{
  "_format": "hh-sol-artifact-1",
  "contractName": "StudentSocietyDAO",
  "sourceName": "contracts/StudentSocietyDAO.sol",
  "abi": [
    {
      "inputs": [],
      "stateMutability": "nonpayable",
      "type": "constructor"
    },
    {
      "anonymous": false,
      "inputs": [
        {
          "indexed": false,
          "internalType": "uint32",
          "name": "proposalIndex",
          "type": "uint32"
        }
      ],
      "name": "ProposalInitiated",
      "type": "event"
    },
    {
      "inputs": [
        {
          "internalType": "uint32",
          "name": "index",
          "type": "uint32"
        }
      ],
      "name": "DecideProposal",
      "outputs": [],
      "stateMutability": "nonpayable",
      "type": "function"
    },
    {
      "inputs": [
        {
          "internalType": "uint32",
          "name": "amount",
          "type": "uint32"
        },
        {
          "internalType": "string",
          "name": "name",
          "type": "string"
        },
        {
          "internalType": "uint256",
          "name": "duration",
          "type": "uint256"
        },
        {
          "internalType": "string",
          "name": "proposerName",
          "type": "string"
        }
      ],
      "name": "createProposal",
      "outputs": [
        {
          "internalType": "uint32",
          "name": "proposalIndex",
          "type": "uint32"
        }
      ],
      "stateMutability": "nonpayable",
      "type": "function"
    },
    {
      "inputs": [
        {
          "internalType": "uint32",
          "name": "index",
          "type": "uint32"
        }
      ],
      "name": "getApprovement",
      "outputs": [
        {
          "internalType": "uint32",
          "name": "",
          "type": "uint32"
        }
      ],
      "stateMutability": "view",
      "type": "function"
    },
    {
      "inputs": [
        {
          "internalType": "uint32",
          "name": "index",
          "type": "uint32"
        }
      ],
      "name": "getDisapprovement",
      "outputs": [
        {
          "internalType": "uint32",
          "name": "",
          "type": "uint32"
        }
      ],
      "stateMutability": "view",
      "type": "function"
    },
    {
      "inputs": [
        {
          "internalType": "uint32",
          "name": "index",
          "type": "uint32"
        }
      ],
      "name": "getDuration",
      "outputs": [
        {
          "internalType": "uint256",
          "name": "",
          "type": "uint256"
        }
      ],
      "stateMutability": "view",
      "type": "function"
    },
    {
      "inputs": [
        {
          "internalType": "uint32",
          "name": "index",
          "type": "uint32"
        }
      ],
      "name": "getProposalName",
      "outputs": [
        {
          "internalType": "string",
          "name": "",
          "type": "string"
        }
      ],
      "stateMutability": "view",
      "type": "function"
    },
    {
      "inputs": [],
      "name": "getProposalNum",
      "outputs": [
        {
          "internalType": "uint256",
          "name": "",
          "type": "uint256"
        }
      ],
      "stateMutability": "view",
      "type": "function"
    },
    {
      "inputs": [],
      "name": "getProposeCost",
      "outputs": [
        {
          "internalType": "uint32",
          "name": "",
          "type": "uint32"
        }
      ],
      "stateMutability": "pure",
      "type": "function"
    },
    {
      "inputs": [
        {
          "internalType": "uint32",
          "name": "index",
          "type": "uint32"
        }
      ],
      "name": "getProposerAddress",
      "outputs": [
        {
          "internalType": "address",
          "name": "",
          "type": "address"
        }
      ],
      "stateMutability": "view",
      "type": "function"
    },
    {
      "inputs": [
        {
          "internalType": "uint32",
          "name": "index",
          "type": "uint32"
        }
      ],
      "name": "getProposerName",
      "outputs": [
        {
          "internalType": "string",
          "name": "",
          "type": "string"
        }
      ],
      "stateMutability": "view",
      "type": "function"
    },
    {
      "inputs": [
        {
          "internalType": "uint32",
          "name": "index",
          "type": "uint32"
        }
      ],
      "name": "getStartTime",
      "outputs": [
        {
          "internalType": "uint256",
          "name": "",
          "type": "uint256"
        }
      ],
      "stateMutability": "view",
      "type": "function"
    },
    {
      "inputs": [],
      "name": "getStudentNumber",
      "outputs": [
        {
          "internalType": "uint256",
          "name": "",
          "type": "uint256"
        }
      ],
      "stateMutability": "view",
      "type": "function"
    },
    {
      "inputs": [
        {
          "internalType": "address",
          "name": "proposer",
          "type": "address"
        }
      ],
      "name": "getTokenId",
      "outputs": [
        {
          "internalType": "uint256",
          "name": "",
          "type": "uint256"
        }
      ],
      "stateMutability": "view",
      "type": "function"
    },
    {
      "inputs": [],
      "name": "getVoteCost",
      "outputs": [
        {
          "internalType": "uint32",
          "name": "",
          "type": "uint32"
        }
      ],
      "stateMutability": "pure",
      "type": "function"
    },
    {
      "inputs": [],
      "name": "manager",
      "outputs": [
        {
          "internalType": "address",
          "name": "",
          "type": "address"
        }
      ],
      "stateMutability": "view",
      "type": "function"
    },
    {
      "inputs": [
        {
          "internalType": "uint256",
          "name": "length",
          "type": "uint256"
        }
      ],
      "name": "rand_int256",
      "outputs": [
        {
          "internalType": "uint256",
          "name": "",
          "type": "uint256"
        }
      ],
      "stateMutability": "view",
      "type": "function"
    },
    {
      "inputs": [
        {
          "internalType": "uint256",
          "name": "startTime",
          "type": "uint256"
        },
        {
          "internalType": "uint256",
          "name": "duration",
          "type": "uint256"
        }
      ],
      "name": "setTimer",
      "outputs": [
        {
          "internalType": "bool",
          "name": "",
          "type": "bool"
        }
      ],
      "stateMutability": "view",
      "type": "function"
    },
    {
      "inputs": [
        {
          "internalType": "uint256",
          "name": "",
          "type": "uint256"
        }
      ],
      "name": "student",
      "outputs": [
        {
          "internalType": "address",
          "name": "",
          "type": "address"
        }
      ],
      "stateMutability": "view",
      "type": "function"
    },
    {
      "inputs": [],
      "name": "studentERC20",
      "outputs": [
        {
          "internalType": "contract MyERC20",
          "name": "",
          "type": "address"
        }
      ],
      "stateMutability": "view",
      "type": "function"
    },
    {
      "inputs": [],
      "name": "studentERC721",
      "outputs": [
        {
          "internalType": "contract MyERC721",
          "name": "",
          "type": "address"
        }
      ],
      "stateMutability": "view",
      "type": "function"
    },
    {
      "inputs": [
        {
          "internalType": "uint32",
          "name": "index",
          "type": "uint32"
        },
        {
          "internalType": "bool",
          "name": "vote_",
          "type": "bool"
        },
        {
          "internalType": "uint32",
          "name": "amount",
          "type": "uint32"
        }
      ],
      "name": "vote",
      "outputs": [],
      "stateMutability": "nonpayable",
      "type": "function"
    },
    {
      "inputs": [],
      "name": "winner",
      "outputs": [
        {
          "internalType": "address",
          "name": "",
          "type": "address"
        }
      ],
      "stateMutability": "view",
      "type": "function"
    }
  ],
  "bytecode": "0x60806040523480156200001157600080fd5b50604051620000209062000169565b6200002b9062000236565b604051809103906000f08015801562000048573d6000803e3d6000fd5b50600260006101000a81548173ffffffffffffffffffffffffffffffffffffffff021916908373ffffffffffffffffffffffffffffffffffffffff160217905550604051620000979062000177565b620000a290620002bd565b604051809103906000f080158015620000bf573d6000803e3d6000fd5b50600360006101000a81548173ffffffffffffffffffffffffffffffffffffffff021916908373ffffffffffffffffffffffffffffffffffffffff1602179055506000600360146101000a81548163ffffffff021916908363ffffffff16021790555033600460006101000a81548173ffffffffffffffffffffffffffffffffffffffff021916908373ffffffffffffffffffffffffffffffffffffffff160217905550620002f4565b611990806200255783390190565b612a3b8062003ee783390190565b600082825260208201905092915050565b7f53747564656e7444414f00000000000000000000000000000000000000000000600082015250565b6000620001ce600a8362000185565b9150620001db8262000196565b602082019050919050565b7f4552430000000000000000000000000000000000000000000000000000000000600082015250565b60006200021e60038362000185565b91506200022b82620001e6565b602082019050919050565b600060408201905081810360008301526200025181620001bf565b9050818103602083015262000266816200020f565b9050919050565b7f4e46540000000000000000000000000000000000000000000000000000000000600082015250565b6000620002a560038362000185565b9150620002b2826200026d565b602082019050919050565b60006040820190508181036000830152620002d881620001bf565b90508181036020830152620002ed8162000296565b9050919050565b61225380620003046000396000f3fe608060405234801561001057600080fd5b50600436106101425760003560e01c806381576ffb116100b8578063b1a273771161007c578063b1a27377146103c5578063df034001146103e3578063dfbf53ae14610413578063e3ce595514610431578063f153768614610461578063f5da27c41461049157610142565b806381576ffb146102fb57806385c2fe241461032b578063a42765331461035b578063a44bd6b814610379578063ae7ca1ac1461039557610142565b806347ac2b311161010a57806347ac2b3114610213578063481c6a75146102435780634c2ce94314610261578063550891da1461029157806359f00ddf146102ad5780636c3fbb2d146102dd57610142565b8063163b4b05146101475780632c41742a14610165578063356f99991461019557806335f34232146101c55780633901d2d4146101f5575b600080fd5b61014f6104af565b60405161015c9190611790565b60405180910390f35b61017f600480360381019061017a91906117eb565b6104b8565b60405161018c9190611790565b60405180910390f35b6101af60048036038101906101aa91906117eb565b6104f4565b6040516101bc9190611831565b60405180910390f35b6101df60048036038101906101da9190611878565b610520565b6040516101ec91906118e6565b60405180910390f35b6101fd61055f565b60405161020a9190611960565b60405180910390f35b61022d60048036038101906102289190611878565b610585565b60405161023a9190611831565b60405180910390f35b61024b6105ca565b60405161025891906118e6565b60405180910390f35b61027b600480360381019061027691906117eb565b6105f0565b6040516102889190611790565b60405180910390f35b6102ab60048036038101906102a691906119b3565b61062c565b005b6102c760048036038101906102c291906117eb565b6109a4565b6040516102d49190611831565b60405180910390f35b6102e56109d0565b6040516102f29190611a27565b60405180910390f35b61031560048036038101906103109190611b88565b6109f6565b6040516103229190611790565b60405180910390f35b610345600480360381019061034091906117eb565b610f04565b60405161035291906118e6565b60405180910390f35b610363610f50565b6040516103709190611831565b60405180910390f35b610393600480360381019061038e91906117eb565b610f70565b005b6103af60048036038101906103aa91906117eb565b6114b9565b6040516103bc9190611caf565b60405180910390f35b6103cd61156d565b6040516103da9190611831565b60405180910390f35b6103fd60048036038101906103f89190611cd1565b611579565b60405161040a9190611d20565b60405180910390f35b61041b6115a1565b60405161042891906118e6565b60405180910390f35b61044b600480360381019061044691906117eb565b6115c7565b6040516104589190611caf565b60405180910390f35b61047b60048036038101906104769190611d67565b61167b565b6040516104889190611831565b60405180910390f35b6104996116c4565b6040516104a69190611790565b60405180910390f35b60006064905090565b6000600560008363ffffffff1663ffffffff16815260200190815260200160002060050160009054906101000a900463ffffffff169050919050565b6000600560008363ffffffff1663ffffffff168152602001908152602001600020600101549050919050565b6000818154811061053057600080fd5b906000526020600020016000915054906101000a900473ffffffffffffffffffffffffffffffffffffffff1681565b600360009054906101000a900473ffffffffffffffffffffffffffffffffffffffff1681565b600080424460405160200161059b929190611db5565b6040516020818303038152906040528051906020012060001c905082816105c29190611e10565b915050919050565b600460009054906101000a900473ffffffffffffffffffffffffffffffffffffffff1681565b6000600560008363ffffffff1663ffffffff16815260200190815260200160002060050160049054906101000a900463ffffffff169050919050565b606463ffffffff168163ffffffff16101561067c576040517f08c379a000000000000000000000000000000000000000000000000000000000815260040161067390611eb3565b60405180910390fd5b600360149054906101000a900463ffffffff1663ffffffff168363ffffffff1611806106f65750600560008463ffffffff1663ffffffff16815260200190815260200160002060010154600560008563ffffffff1663ffffffff168152602001908152602001600020600201546106f39190611f02565b42115b15610736576040517f08c379a000000000000000000000000000000000000000000000000000000000815260040161072d90611fca565b60405180910390fd5b600260009054906101000a900473ffffffffffffffffffffffffffffffffffffffff1673ffffffffffffffffffffffffffffffffffffffff166323b872dd3330846040518463ffffffff1660e01b81526004016107959392919061201b565b602060405180830381600087803b1580156107af57600080fd5b505af11580156107c3573d6000803e3d6000fd5b505050506040513d601f19601f820116820180604052508101906107e79190612067565b506000339080600181540180825580915050600190039060005260206000200160009091909190916101000a81548173ffffffffffffffffffffffffffffffffffffffff021916908373ffffffffffffffffffffffffffffffffffffffff1602179055506000600560008563ffffffff1663ffffffff168152602001908152602001600020905082156108c6576064826108819190612094565b8160050160008282829054906101000a900463ffffffff166108a391906120c5565b92506101000a81548163ffffffff021916908363ffffffff160217905550610914565b6064826108d39190612094565b8160050160048282829054906101000a900463ffffffff166108f591906120c5565b92506101000a81548163ffffffff021916908363ffffffff1602179055505b6064826109219190612094565b8160060160003373ffffffffffffffffffffffffffffffffffffffff1673ffffffffffffffffffffffffffffffffffffffff16815260200190815260200160002060008282829054906101000a900463ffffffff1661098091906120c5565b92506101000a81548163ffffffff021916908363ffffffff16021790555050505050565b6000600560008363ffffffff1663ffffffff168152602001908152602001600020600201549050919050565b600260009054906101000a900473ffffffffffffffffffffffffffffffffffffffff1681565b600061012c63ffffffff168563ffffffff161015610a49576040517f08c379a0000000000000000000000000000000000000000000000000000000008152600401610a4090611eb3565b60405180910390fd5b600260009054906101000a900473ffffffffffffffffffffffffffffffffffffffff1673ffffffffffffffffffffffffffffffffffffffff166323b872dd3330886040518463ffffffff1660e01b8152600401610aa89392919061201b565b602060405180830381600087803b158015610ac257600080fd5b505af1158015610ad6573d6000803e3d6000fd5b505050506040513d601f19601f82011682018060405250810190610afa9190612067565b506003601481819054906101000a900463ffffffff1680929190610b1d906120ff565b91906101000a81548163ffffffff021916908363ffffffff16021790555050600360149054906101000a900463ffffffff1660056000600360149054906101000a900463ffffffff1663ffffffff1663ffffffff16815260200190815260200160002060000160006101000a81548163ffffffff021916908363ffffffff1602179055508360056000600360149054906101000a900463ffffffff1663ffffffff1663ffffffff1681526020019081526020016000206003019080519060200190610be99291906116ce565b503360056000600360149054906101000a900463ffffffff1663ffffffff1663ffffffff16815260200190815260200160002060000160046101000a81548173ffffffffffffffffffffffffffffffffffffffff021916908373ffffffffffffffffffffffffffffffffffffffff1602179055508160056000600360149054906101000a900463ffffffff1663ffffffff1663ffffffff1681526020019081526020016000206004019080519060200190610ca59291906116ce565b50600060056000600360149054906101000a900463ffffffff1663ffffffff1663ffffffff16815260200190815260200160002060050160006101000a81548163ffffffff021916908363ffffffff160217905550600060056000600360149054906101000a900463ffffffff1663ffffffff1663ffffffff16815260200190815260200160002060050160046101000a81548163ffffffff021916908363ffffffff1602179055504260056000600360149054906101000a900463ffffffff1663ffffffff1663ffffffff168152602001908152602001600020600101819055508260056000600360149054906101000a900463ffffffff1663ffffffff1663ffffffff16815260200190815260200160002060020181905550600060056000600360149054906101000a900463ffffffff1663ffffffff1663ffffffff16815260200190815260200160002060060160003373ffffffffffffffffffffffffffffffffffffffff1673ffffffffffffffffffffffffffffffffffffffff16815260200190815260200160002060006101000a81548163ffffffff021916908363ffffffff160217905550600060056000600360149054906101000a900463ffffffff1663ffffffff1663ffffffff16815260200190815260200160002060070160006101000a81548160ff0219169083151502179055507f944f5ef0a446d54c41ea39dac07de1fd2150ec3346cbff6c627d1ffba048676c600360149054906101000a900463ffffffff16604051610edf9190611790565b60405180910390a1600360149054906101000a900463ffffffff169050949350505050565b6000600560008363ffffffff1663ffffffff16815260200190815260200160002060000160049054906101000a900473ffffffffffffffffffffffffffffffffffffffff169050919050565b6000600360149054906101000a900463ffffffff1663ffffffff16905090565b600560008263ffffffff1663ffffffff16815260200190815260200160002060020154600560008363ffffffff1663ffffffff16815260200190815260200160002060010154610fc09190611f02565b421015610fcc57600080fd5b60001515600560008363ffffffff1663ffffffff16815260200190815260200160002060070160009054906101000a900460ff1615151461100c57600080fd5b6001600560008363ffffffff1663ffffffff16815260200190815260200160002060070160006101000a81548160ff021916908315150217905550600560008263ffffffff1663ffffffff16815260200190815260200160002060050160049054906101000a900463ffffffff1663ffffffff16600560008363ffffffff1663ffffffff16815260200190815260200160002060050160009054906101000a900463ffffffff1663ffffffff16106114b657600160066000600560008563ffffffff1663ffffffff16815260200190815260200160002060000160049054906101000a900473ffffffffffffffffffffffffffffffffffffffff1673ffffffffffffffffffffffffffffffffffffffff1673ffffffffffffffffffffffffffffffffffffffff16815260200190815260200160002060008282829054906101000a900463ffffffff1661115f91906120c5565b92506101000a81548163ffffffff021916908363ffffffff160217905550600260009054906101000a900473ffffffffffffffffffffffffffffffffffffffff1673ffffffffffffffffffffffffffffffffffffffff1663a9059cbb600560008463ffffffff1663ffffffff16815260200190815260200160002060000160049054906101000a900473ffffffffffffffffffffffffffffffffffffffff166064600560008663ffffffff1663ffffffff16815260200190815260200160002060050160009054906101000a900463ffffffff1661123d919061212c565b6040518363ffffffff1660e01b815260040161125a92919061216a565b602060405180830381600087803b15801561127457600080fd5b505af1158015611288573d6000803e3d6000fd5b505050506040513d601f19601f820116820180604052508101906112ac9190612067565b50600360066000600560008563ffffffff1663ffffffff16815260200190815260200160002060000160049054906101000a900473ffffffffffffffffffffffffffffffffffffffff1673ffffffffffffffffffffffffffffffffffffffff1673ffffffffffffffffffffffffffffffffffffffff16815260200190815260200160002060009054906101000a900463ffffffff1663ffffffff1614156114b557600061135a612710610585565b9050600360009054906101000a900473ffffffffffffffffffffffffffffffffffffffff1673ffffffffffffffffffffffffffffffffffffffff166340c10f19600560008563ffffffff1663ffffffff16815260200190815260200160002060000160049054906101000a900473ffffffffffffffffffffffffffffffffffffffff16836040518363ffffffff1660e01b81526004016113fb929190612193565b600060405180830381600087803b15801561141557600080fd5b505af1158015611429573d6000803e3d6000fd5b505050508060076000600560008663ffffffff1663ffffffff16815260200190815260200160002060000160049054906101000a900473ffffffffffffffffffffffffffffffffffffffff1673ffffffffffffffffffffffffffffffffffffffff1673ffffffffffffffffffffffffffffffffffffffff16815260200190815260200160002081905550505b5b50565b6060600560008363ffffffff1663ffffffff16815260200190815260200160002060040180546114e8906121eb565b80601f0160208091040260200160405190810160405280929190818152602001828054611514906121eb565b80156115615780601f1061153657610100808354040283529160200191611561565b820191906000526020600020905b81548152906001019060200180831161154457829003601f168201915b50505050509050919050565b60008080549050905090565b600082826115879190611f02565b4210611596576001905061159b565b600090505b92915050565b600160009054906101000a900473ffffffffffffffffffffffffffffffffffffffff1681565b6060600560008363ffffffff1663ffffffff16815260200190815260200160002060030180546115f6906121eb565b80601f0160208091040260200160405190810160405280929190818152602001828054611622906121eb565b801561166f5780601f106116445761010080835404028352916020019161166f565b820191906000526020600020905b81548152906001019060200180831161165257829003601f168201915b50505050509050919050565b6000600760008373ffffffffffffffffffffffffffffffffffffffff1673ffffffffffffffffffffffffffffffffffffffff168152602001908152602001600020549050919050565b600061012c905090565b8280546116da906121eb565b90600052602060002090601f0160209004810192826116fc5760008555611743565b82601f1061171557805160ff1916838001178555611743565b82800160010185558215611743579182015b82811115611742578251825591602001919060010190611727565b5b5090506117509190611754565b5090565b5b8082111561176d576000816000905550600101611755565b5090565b600063ffffffff82169050919050565b61178a81611771565b82525050565b60006020820190506117a56000830184611781565b92915050565b6000604051905090565b600080fd5b600080fd5b6117c881611771565b81146117d357600080fd5b50565b6000813590506117e5816117bf565b92915050565b600060208284031215611801576118006117b5565b5b600061180f848285016117d6565b91505092915050565b6000819050919050565b61182b81611818565b82525050565b60006020820190506118466000830184611822565b92915050565b61185581611818565b811461186057600080fd5b50565b6000813590506118728161184c565b92915050565b60006020828403121561188e5761188d6117b5565b5b600061189c84828501611863565b91505092915050565b600073ffffffffffffffffffffffffffffffffffffffff82169050919050565b60006118d0826118a5565b9050919050565b6118e0816118c5565b82525050565b60006020820190506118fb60008301846118d7565b92915050565b6000819050919050565b600061192661192161191c846118a5565b611901565b6118a5565b9050919050565b60006119388261190b565b9050919050565b600061194a8261192d565b9050919050565b61195a8161193f565b82525050565b60006020820190506119756000830184611951565b92915050565b60008115159050919050565b6119908161197b565b811461199b57600080fd5b50565b6000813590506119ad81611987565b92915050565b6000806000606084860312156119cc576119cb6117b5565b5b60006119da868287016117d6565b93505060206119eb8682870161199e565b92505060406119fc868287016117d6565b9150509250925092565b6000611a118261192d565b9050919050565b611a2181611a06565b82525050565b6000602082019050611a3c6000830184611a18565b92915050565b600080fd5b600080fd5b6000601f19601f8301169050919050565b7f4e487b7100000000000000000000000000000000000000000000000000000000600052604160045260246000fd5b611a9582611a4c565b810181811067ffffffffffffffff82111715611ab457611ab3611a5d565b5b80604052505050565b6000611ac76117ab565b9050611ad38282611a8c565b919050565b600067ffffffffffffffff821115611af357611af2611a5d565b5b611afc82611a4c565b9050602081019050919050565b82818337600083830152505050565b6000611b2b611b2684611ad8565b611abd565b905082815260208101848484011115611b4757611b46611a47565b5b611b52848285611b09565b509392505050565b600082601f830112611b6f57611b6e611a42565b5b8135611b7f848260208601611b18565b91505092915050565b60008060008060808587031215611ba257611ba16117b5565b5b6000611bb0878288016117d6565b945050602085013567ffffffffffffffff811115611bd157611bd06117ba565b5b611bdd87828801611b5a565b9350506040611bee87828801611863565b925050606085013567ffffffffffffffff811115611c0f57611c0e6117ba565b5b611c1b87828801611b5a565b91505092959194509250565b600081519050919050565b600082825260208201905092915050565b60005b83811015611c61578082015181840152602081019050611c46565b83811115611c70576000848401525b50505050565b6000611c8182611c27565b611c8b8185611c32565b9350611c9b818560208601611c43565b611ca481611a4c565b840191505092915050565b60006020820190508181036000830152611cc98184611c76565b905092915050565b60008060408385031215611ce857611ce76117b5565b5b6000611cf685828601611863565b9250506020611d0785828601611863565b9150509250929050565b611d1a8161197b565b82525050565b6000602082019050611d356000830184611d11565b92915050565b611d44816118c5565b8114611d4f57600080fd5b50565b600081359050611d6181611d3b565b92915050565b600060208284031215611d7d57611d7c6117b5565b5b6000611d8b84828501611d52565b91505092915050565b6000819050919050565b611daf611daa82611818565b611d94565b82525050565b6000611dc18285611d9e565b602082019150611dd18284611d9e565b6020820191508190509392505050565b7f4e487b7100000000000000000000000000000000000000000000000000000000600052601260045260246000fd5b6000611e1b82611818565b9150611e2683611818565b925082611e3657611e35611de1565b5b828206905092915050565b7f556e6166666f726461626c652120506c6561736520676574206d6f726520746f60008201527f6b656e0000000000000000000000000000000000000000000000000000000000602082015250565b6000611e9d602383611c32565b9150611ea882611e41565b604082019050919050565b60006020820190508181036000830152611ecc81611e90565b9050919050565b7f4e487b7100000000000000000000000000000000000000000000000000000000600052601160045260246000fd5b6000611f0d82611818565b9150611f1883611818565b9250827fffffffffffffffffffffffffffffffffffffffffffffffffffffffffffffffff03821115611f4d57611f4c611ed3565b5b828201905092915050565b7f50726f706f73616c206e6f7420666f756e642e204974206d617920686173206560008201527f6e64656421000000000000000000000000000000000000000000000000000000602082015250565b6000611fb4602583611c32565b9150611fbf82611f58565b604082019050919050565b60006020820190508181036000830152611fe381611fa7565b9050919050565b6000612005612000611ffb84611771565b611901565b611818565b9050919050565b61201581611fea565b82525050565b600060608201905061203060008301866118d7565b61203d60208301856118d7565b61204a604083018461200c565b949350505050565b60008151905061206181611987565b92915050565b60006020828403121561207d5761207c6117b5565b5b600061208b84828501612052565b91505092915050565b600061209f82611771565b91506120aa83611771565b9250826120ba576120b9611de1565b5b828204905092915050565b60006120d082611771565b91506120db83611771565b92508263ffffffff038211156120f4576120f3611ed3565b5b828201905092915050565b600061210a82611771565b915063ffffffff82141561212157612120611ed3565b5b600182019050919050565b600061213782611771565b915061214283611771565b92508163ffffffff048311821515161561215f5761215e611ed3565b5b828202905092915050565b600060408201905061217f60008301856118d7565b61218c602083018461200c565b9392505050565b60006040820190506121a860008301856118d7565b6121b56020830184611822565b9392505050565b7f4e487b7100000000000000000000000000000000000000000000000000000000600052602260045260246000fd5b6000600282049050600182168061220357607f821691505b60208210811415612217576122166121bc565b5b5091905056fea26469706673582212201aa21aeffd5b9c0b42d8d659104ffdbecb7f355a1e0c7d13fd6c4774d25aebcb64736f6c6343000809003360806040523480156200001157600080fd5b5060405162001990380380620019908339818101604052810190620000379190620002c2565b818181600390805190602001906200005192919062000075565b5080600490805190602001906200006a92919062000075565b5050505050620003ac565b828054620000839062000376565b90600052602060002090601f016020900481019282620000a75760008555620000f3565b82601f10620000c257805160ff1916838001178555620000f3565b82800160010185558215620000f3579182015b82811115620000f2578251825591602001919060010190620000d5565b5b50905062000102919062000106565b5090565b5b808211156200012157600081600090555060010162000107565b5090565b6000604051905090565b600080fd5b600080fd5b600080fd5b600080fd5b6000601f19601f8301169050919050565b7f4e487b7100000000000000000000000000000000000000000000000000000000600052604160045260246000fd5b6200018e8262000143565b810181811067ffffffffffffffff82111715620001b057620001af62000154565b5b80604052505050565b6000620001c562000125565b9050620001d3828262000183565b919050565b600067ffffffffffffffff821115620001f657620001f562000154565b5b620002018262000143565b9050602081019050919050565b60005b838110156200022e57808201518184015260208101905062000211565b838111156200023e576000848401525b50505050565b60006200025b6200025584620001d8565b620001b9565b9050828152602081018484840111156200027a57620002796200013e565b5b620002878482856200020e565b509392505050565b600082601f830112620002a757620002a662000139565b5b8151620002b984826020860162000244565b91505092915050565b60008060408385031215620002dc57620002db6200012f565b5b600083015167ffffffffffffffff811115620002fd57620002fc62000134565b5b6200030b858286016200028f565b925050602083015167ffffffffffffffff8111156200032f576200032e62000134565b5b6200033d858286016200028f565b9150509250929050565b7f4e487b7100000000000000000000000000000000000000000000000000000000600052602260045260246000fd5b600060028204905060018216806200038f57607f821691505b60208210811415620003a657620003a562000347565b5b50919050565b6115d480620003bc6000396000f3fe608060405234801561001057600080fd5b50600436106100b45760003560e01c80633950935111610071578063395093511461017d57806370a08231146101ad57806395d89b41146101dd578063a457c2d7146101fb578063a9059cbb1461022b578063dd62ed3e1461025b576100b4565b806306fdde03146100b9578063095ea7b3146100d757806318160ddd1461010757806323b872dd14610125578063313ce567146101555780633884d63514610173575b600080fd5b6100c161028b565b6040516100ce9190610d90565b60405180910390f35b6100f160048036038101906100ec9190610e4b565b61031d565b6040516100fe9190610ea6565b60405180910390f35b61010f610340565b60405161011c9190610ed0565b60405180910390f35b61013f600480360381019061013a9190610eeb565b61034a565b60405161014c9190610ea6565b60405180910390f35b61015d610379565b60405161016a9190610f5a565b60405180910390f35b61017b610382565b005b61019760048036038101906101929190610e4b565b61047b565b6040516101a49190610ea6565b60405180910390f35b6101c760048036038101906101c29190610f75565b6104b2565b6040516101d49190610ed0565b60405180910390f35b6101e56104fa565b6040516101f29190610d90565b60405180910390f35b61021560048036038101906102109190610e4b565b61058c565b6040516102229190610ea6565b60405180910390f35b61024560048036038101906102409190610e4b565b610603565b6040516102529190610ea6565b60405180910390f35b61027560048036038101906102709190610fa2565b610626565b6040516102829190610ed0565b60405180910390f35b60606003805461029a90611011565b80601f01602080910402602001604051908101604052809291908181526020018280546102c690611011565b80156103135780601f106102e857610100808354040283529160200191610313565b820191906000526020600020905b8154815290600101906020018083116102f657829003601f168201915b5050505050905090565b6000806103286106ad565b90506103358185856106b5565b600191505092915050565b6000600254905090565b6000806103556106ad565b9050610362858285610880565b61036d85858561090c565b60019150509392505050565b60006012905090565b60001515600560003373ffffffffffffffffffffffffffffffffffffffff1673ffffffffffffffffffffffffffffffffffffffff16815260200190815260200160002060009054906101000a900460ff16151514610415576040517f08c379a000000000000000000000000000000000000000000000000000000000815260040161040c906110b5565b60405180910390fd5b610421336107d0610b8d565b6001600560003373ffffffffffffffffffffffffffffffffffffffff1673ffffffffffffffffffffffffffffffffffffffff16815260200190815260200160002060006101000a81548160ff021916908315150217905550565b6000806104866106ad565b90506104a78185856104988589610626565b6104a29190611104565b6106b5565b600191505092915050565b60008060008373ffffffffffffffffffffffffffffffffffffffff1673ffffffffffffffffffffffffffffffffffffffff168152602001908152602001600020549050919050565b60606004805461050990611011565b80601f016020809104026020016040519081016040528092919081815260200182805461053590611011565b80156105825780601f1061055757610100808354040283529160200191610582565b820191906000526020600020905b81548152906001019060200180831161056557829003601f168201915b5050505050905090565b6000806105976106ad565b905060006105a58286610626565b9050838110156105ea576040517f08c379a00000000000000000000000000000000000000000000000000000000081526004016105e1906111cc565b60405180910390fd5b6105f782868684036106b5565b60019250505092915050565b60008061060e6106ad565b905061061b81858561090c565b600191505092915050565b6000600160008473ffffffffffffffffffffffffffffffffffffffff1673ffffffffffffffffffffffffffffffffffffffff16815260200190815260200160002060008373ffffffffffffffffffffffffffffffffffffffff1673ffffffffffffffffffffffffffffffffffffffff16815260200190815260200160002054905092915050565b600033905090565b600073ffffffffffffffffffffffffffffffffffffffff168373ffffffffffffffffffffffffffffffffffffffff161415610725576040517f08c379a000000000000000000000000000000000000000000000000000000000815260040161071c9061125e565b60405180910390fd5b600073ffffffffffffffffffffffffffffffffffffffff168273ffffffffffffffffffffffffffffffffffffffff161415610795576040517f08c379a000000000000000000000000000000000000000000000000000000000815260040161078c906112f0565b60405180910390fd5b80600160008573ffffffffffffffffffffffffffffffffffffffff1673ffffffffffffffffffffffffffffffffffffffff16815260200190815260200160002060008473ffffffffffffffffffffffffffffffffffffffff1673ffffffffffffffffffffffffffffffffffffffff168152602001908152602001600020819055508173ffffffffffffffffffffffffffffffffffffffff168373ffffffffffffffffffffffffffffffffffffffff167f8c5be1e5ebec7d5bd14f71427d1e84f3dd0314c0f7b2291e5b200ac8c7c3b925836040516108739190610ed0565b60405180910390a3505050565b600061088c8484610626565b90507fffffffffffffffffffffffffffffffffffffffffffffffffffffffffffffffff811461090657818110156108f8576040517f08c379a00000000000000000000000000000000000000000000000000000000081526004016108ef9061135c565b60405180910390fd5b61090584848484036106b5565b5b50505050565b600073ffffffffffffffffffffffffffffffffffffffff168373ffffffffffffffffffffffffffffffffffffffff16141561097c576040517f08c379a0000000000000000000000000000000000000000000000000000000008152600401610973906113ee565b60405180910390fd5b600073ffffffffffffffffffffffffffffffffffffffff168273ffffffffffffffffffffffffffffffffffffffff1614156109ec576040517f08c379a00000000000000000000000000000000000000000000000000000000081526004016109e390611480565b60405180910390fd5b6109f7838383610ced565b60008060008573ffffffffffffffffffffffffffffffffffffffff1673ffffffffffffffffffffffffffffffffffffffff16815260200190815260200160002054905081811015610a7d576040517f08c379a0000000000000000000000000000000000000000000000000000000008152600401610a7490611512565b60405180910390fd5b8181036000808673ffffffffffffffffffffffffffffffffffffffff1673ffffffffffffffffffffffffffffffffffffffff16815260200190815260200160002081905550816000808573ffffffffffffffffffffffffffffffffffffffff1673ffffffffffffffffffffffffffffffffffffffff1681526020019081526020016000206000828254610b109190611104565b925050819055508273ffffffffffffffffffffffffffffffffffffffff168473ffffffffffffffffffffffffffffffffffffffff167fddf252ad1be2c89b69c2b068fc378daa952ba7f163c4a11628f55a4df523b3ef84604051610b749190610ed0565b60405180910390a3610b87848484610cf2565b50505050565b600073ffffffffffffffffffffffffffffffffffffffff168273ffffffffffffffffffffffffffffffffffffffff161415610bfd576040517f08c379a0000000000000000000000000000000000000000000000000000000008152600401610bf49061157e565b60405180910390fd5b610c0960008383610ced565b8060026000828254610c1b9190611104565b92505081905550806000808473ffffffffffffffffffffffffffffffffffffffff1673ffffffffffffffffffffffffffffffffffffffff1681526020019081526020016000206000828254610c709190611104565b925050819055508173ffffffffffffffffffffffffffffffffffffffff16600073ffffffffffffffffffffffffffffffffffffffff167fddf252ad1be2c89b69c2b068fc378daa952ba7f163c4a11628f55a4df523b3ef83604051610cd59190610ed0565b60405180910390a3610ce960008383610cf2565b5050565b505050565b505050565b600081519050919050565b600082825260208201905092915050565b60005b83811015610d31578082015181840152602081019050610d16565b83811115610d40576000848401525b50505050565b6000601f19601f8301169050919050565b6000610d6282610cf7565b610d6c8185610d02565b9350610d7c818560208601610d13565b610d8581610d46565b840191505092915050565b60006020820190508181036000830152610daa8184610d57565b905092915050565b600080fd5b600073ffffffffffffffffffffffffffffffffffffffff82169050919050565b6000610de282610db7565b9050919050565b610df281610dd7565b8114610dfd57600080fd5b50565b600081359050610e0f81610de9565b92915050565b6000819050919050565b610e2881610e15565b8114610e3357600080fd5b50565b600081359050610e4581610e1f565b92915050565b60008060408385031215610e6257610e61610db2565b5b6000610e7085828601610e00565b9250506020610e8185828601610e36565b9150509250929050565b60008115159050919050565b610ea081610e8b565b82525050565b6000602082019050610ebb6000830184610e97565b92915050565b610eca81610e15565b82525050565b6000602082019050610ee56000830184610ec1565b92915050565b600080600060608486031215610f0457610f03610db2565b5b6000610f1286828701610e00565b9350506020610f2386828701610e00565b9250506040610f3486828701610e36565b9150509250925092565b600060ff82169050919050565b610f5481610f3e565b82525050565b6000602082019050610f6f6000830184610f4b565b92915050565b600060208284031215610f8b57610f8a610db2565b5b6000610f9984828501610e00565b91505092915050565b60008060408385031215610fb957610fb8610db2565b5b6000610fc785828601610e00565b9250506020610fd885828601610e00565b9150509250929050565b7f4e487b7100000000000000000000000000000000000000000000000000000000600052602260045260246000fd5b6000600282049050600182168061102957607f821691505b6020821081141561103d5761103c610fe2565b5b50919050565b7f5468697320757365722068617320636c61696d65642061697264726f7020616c60008201527f7265616479000000000000000000000000000000000000000000000000000000602082015250565b600061109f602583610d02565b91506110aa82611043565b604082019050919050565b600060208201905081810360008301526110ce81611092565b9050919050565b7f4e487b7100000000000000000000000000000000000000000000000000000000600052601160045260246000fd5b600061110f82610e15565b915061111a83610e15565b9250827fffffffffffffffffffffffffffffffffffffffffffffffffffffffffffffffff0382111561114f5761114e6110d5565b5b828201905092915050565b7f45524332303a2064656372656173656420616c6c6f77616e63652062656c6f7760008201527f207a65726f000000000000000000000000000000000000000000000000000000602082015250565b60006111b6602583610d02565b91506111c18261115a565b604082019050919050565b600060208201905081810360008301526111e5816111a9565b9050919050565b7f45524332303a20617070726f76652066726f6d20746865207a65726f2061646460008201527f7265737300000000000000000000000000000000000000000000000000000000602082015250565b6000611248602483610d02565b9150611253826111ec565b604082019050919050565b600060208201905081810360008301526112778161123b565b9050919050565b7f45524332303a20617070726f766520746f20746865207a65726f20616464726560008201527f7373000000000000000000000000000000000000000000000000000000000000602082015250565b60006112da602283610d02565b91506112e58261127e565b604082019050919050565b60006020820190508181036000830152611309816112cd565b9050919050565b7f45524332303a20696e73756666696369656e7420616c6c6f77616e6365000000600082015250565b6000611346601d83610d02565b915061135182611310565b602082019050919050565b6000602082019050818103600083015261137581611339565b9050919050565b7f45524332303a207472616e736665722066726f6d20746865207a65726f20616460008201527f6472657373000000000000000000000000000000000000000000000000000000602082015250565b60006113d8602583610d02565b91506113e38261137c565b604082019050919050565b60006020820190508181036000830152611407816113cb565b9050919050565b7f45524332303a207472616e7366657220746f20746865207a65726f206164647260008201527f6573730000000000000000000000000000000000000000000000000000000000602082015250565b600061146a602383610d02565b91506114758261140e565b604082019050919050565b600060208201905081810360008301526114998161145d565b9050919050565b7f45524332303a207472616e7366657220616d6f756e742065786365656473206260008201527f616c616e63650000000000000000000000000000000000000000000000000000602082015250565b60006114fc602683610d02565b9150611507826114a0565b604082019050919050565b6000602082019050818103600083015261152b816114ef565b9050919050565b7f45524332303a206d696e7420746f20746865207a65726f206164647265737300600082015250565b6000611568601f83610d02565b915061157382611532565b602082019050919050565b600060208201905081810360008301526115978161155b565b905091905056fea2646970667358221220cd86beca8420cf3e22e59097910d37481febcabba611d75839b8c7a54dc707d064736f6c6343000809003360806040523480156200001157600080fd5b5060405162002a3b38038062002a3b83398181016040528101906200003791906200030b565b8181816000908051906020019062000051929190620000be565b5080600190805190602001906200006a929190620000be565b50505033600660006101000a81548173ffffffffffffffffffffffffffffffffffffffff021916908373ffffffffffffffffffffffffffffffffffffffff16021790555060006007819055505050620003f5565b828054620000cc90620003bf565b90600052602060002090601f016020900481019282620000f057600085556200013c565b82601f106200010b57805160ff19168380011785556200013c565b828001600101855582156200013c579182015b828111156200013b5782518255916020019190600101906200011e565b5b5090506200014b91906200014f565b5090565b5b808211156200016a57600081600090555060010162000150565b5090565b6000604051905090565b600080fd5b600080fd5b600080fd5b600080fd5b6000601f19601f8301169050919050565b7f4e487b7100000000000000000000000000000000000000000000000000000000600052604160045260246000fd5b620001d7826200018c565b810181811067ffffffffffffffff82111715620001f957620001f86200019d565b5b80604052505050565b60006200020e6200016e565b90506200021c8282620001cc565b919050565b600067ffffffffffffffff8211156200023f576200023e6200019d565b5b6200024a826200018c565b9050602081019050919050565b60005b83811015620002775780820151818401526020810190506200025a565b8381111562000287576000848401525b50505050565b6000620002a46200029e8462000221565b62000202565b905082815260208101848484011115620002c357620002c262000187565b5b620002d084828562000257565b509392505050565b600082601f830112620002f057620002ef62000182565b5b8151620003028482602086016200028d565b91505092915050565b6000806040838503121562000325576200032462000178565b5b600083015167ffffffffffffffff8111156200034657620003456200017d565b5b6200035485828601620002d8565b925050602083015167ffffffffffffffff8111156200037857620003776200017d565b5b6200038685828601620002d8565b9150509250929050565b7f4e487b7100000000000000000000000000000000000000000000000000000000600052602260045260246000fd5b60006002820490506001821680620003d857607f821691505b60208210811415620003ef57620003ee62000390565b5b50919050565b61263680620004056000396000f3fe608060405234801561001057600080fd5b50600436106101165760003560e01c8063481c6a75116100a257806395d89b411161007157806395d89b4114610305578063a22cb46514610323578063b88d4fde1461033f578063c87b56dd1461035b578063e985e9c51461038b57610116565b8063481c6a75146102575780634f6ccce7146102755780636352211e146102a557806370a08231146102d557610116565b806318160ddd116100e957806318160ddd146101b557806323b872dd146101d35780632f745c59146101ef57806340c10f191461021f57806342842e0e1461023b57610116565b806301ffc9a71461011b57806306fdde031461014b578063081812fc14610169578063095ea7b314610199575b600080fd5b61013560048036038101906101309190611795565b6103bb565b60405161014291906117dd565b60405180910390f35b61015361049d565b6040516101609190611891565b60405180910390f35b610183600480360381019061017e91906118e9565b61052f565b6040516101909190611957565b60405180910390f35b6101b360048036038101906101ae919061199e565b610575565b005b6101bd61068d565b6040516101ca91906119ed565b60405180910390f35b6101ed60048036038101906101e89190611a08565b610697565b005b6102096004803603810190610204919061199e565b6106f7565b60405161021691906119ed565b60405180910390f35b6102396004803603810190610234919061199e565b6106ff565b005b61025560048036038101906102509190611a08565b610799565b005b61025f6107b9565b60405161026c9190611957565b60405180910390f35b61028f600480360381019061028a91906118e9565b6107df565b60405161029c91906119ed565b60405180910390f35b6102bf60048036038101906102ba91906118e9565b6107fc565b6040516102cc9190611957565b60405180910390f35b6102ef60048036038101906102ea9190611a5b565b6108ae565b6040516102fc91906119ed565b60405180910390f35b61030d610966565b60405161031a9190611891565b60405180910390f35b61033d60048036038101906103389190611ab4565b6109f8565b005b61035960048036038101906103549190611c29565b610a0e565b005b610375600480360381019061037091906118e9565b610a70565b6040516103829190611891565b60405180910390f35b6103a560048036038101906103a09190611cac565b610ad8565b6040516103b291906117dd565b60405180910390f35b60007f80ac58cd000000000000000000000000000000000000000000000000000000007bffffffffffffffffffffffffffffffffffffffffffffffffffffffff1916827bffffffffffffffffffffffffffffffffffffffffffffffffffffffff1916148061048657507f5b5e139f000000000000000000000000000000000000000000000000000000007bffffffffffffffffffffffffffffffffffffffffffffffffffffffff1916827bffffffffffffffffffffffffffffffffffffffffffffffffffffffff1916145b80610496575061049582610b6c565b5b9050919050565b6060600080546104ac90611d1b565b80601f01602080910402602001604051908101604052809291908181526020018280546104d890611d1b565b80156105255780601f106104fa57610100808354040283529160200191610525565b820191906000526020600020905b81548152906001019060200180831161050857829003601f168201915b5050505050905090565b600061053a82610bd6565b6004600083815260200190815260200160002060009054906101000a900473ffffffffffffffffffffffffffffffffffffffff169050919050565b6000610580826107fc565b90508073ffffffffffffffffffffffffffffffffffffffff168373ffffffffffffffffffffffffffffffffffffffff1614156105f1576040517f08c379a00000000000000000000000000000000000000000000000000000000081526004016105e890611dbf565b60405180910390fd5b8073ffffffffffffffffffffffffffffffffffffffff16610610610c21565b73ffffffffffffffffffffffffffffffffffffffff16148061063f575061063e81610639610c21565b610ad8565b5b61067e576040517f08c379a000000000000000000000000000000000000000000000000000000000815260040161067590611e51565b60405180910390fd5b6106888383610c29565b505050565b6000600754905090565b6106a86106a2610c21565b82610ce2565b6106e7576040517f08c379a00000000000000000000000000000000000000000000000000000000081526004016106de90611ee3565b60405180910390fd5b6106f2838383610d77565b505050565b600092915050565b600660009054906101000a900473ffffffffffffffffffffffffffffffffffffffff1673ffffffffffffffffffffffffffffffffffffffff163373ffffffffffffffffffffffffffffffffffffffff161461075957600080fd5b6107638282610fde565b80600860006007548152602001908152602001600020819055506007600081548092919061079090611f32565b91905055505050565b6107b483838360405180602001604052806000815250610a0e565b505050565b600660009054906101000a900473ffffffffffffffffffffffffffffffffffffffff1681565b600060086000838152602001908152602001600020549050919050565b6000806002600084815260200190815260200160002060009054906101000a900473ffffffffffffffffffffffffffffffffffffffff169050600073ffffffffffffffffffffffffffffffffffffffff168173ffffffffffffffffffffffffffffffffffffffff1614156108a5576040517f08c379a000000000000000000000000000000000000000000000000000000000815260040161089c90611fc7565b60405180910390fd5b80915050919050565b60008073ffffffffffffffffffffffffffffffffffffffff168273ffffffffffffffffffffffffffffffffffffffff16141561091f576040517f08c379a000000000000000000000000000000000000000000000000000000000815260040161091690612059565b60405180910390fd5b600360008373ffffffffffffffffffffffffffffffffffffffff1673ffffffffffffffffffffffffffffffffffffffff168152602001908152602001600020549050919050565b60606001805461097590611d1b565b80601f01602080910402602001604051908101604052809291908181526020018280546109a190611d1b565b80156109ee5780601f106109c3576101008083540402835291602001916109ee565b820191906000526020600020905b8154815290600101906020018083116109d157829003601f168201915b5050505050905090565b610a0a610a03610c21565b83836111b8565b5050565b610a1f610a19610c21565b83610ce2565b610a5e576040517f08c379a0000000000000000000000000000000000000000000000000000000008152600401610a5590611ee3565b60405180910390fd5b610a6a84848484611325565b50505050565b6060610a7b82610bd6565b6000610a85611381565b90506000815111610aa55760405180602001604052806000815250610ad0565b80610aaf84611398565b604051602001610ac09291906120b5565b6040516020818303038152906040525b915050919050565b6000600560008473ffffffffffffffffffffffffffffffffffffffff1673ffffffffffffffffffffffffffffffffffffffff16815260200190815260200160002060008373ffffffffffffffffffffffffffffffffffffffff1673ffffffffffffffffffffffffffffffffffffffff16815260200190815260200160002060009054906101000a900460ff16905092915050565b60007f01ffc9a7000000000000000000000000000000000000000000000000000000007bffffffffffffffffffffffffffffffffffffffffffffffffffffffff1916827bffffffffffffffffffffffffffffffffffffffffffffffffffffffff1916149050919050565b610bdf816114f9565b610c1e576040517f08c379a0000000000000000000000000000000000000000000000000000000008152600401610c1590611fc7565b60405180910390fd5b50565b600033905090565b816004600083815260200190815260200160002060006101000a81548173ffffffffffffffffffffffffffffffffffffffff021916908373ffffffffffffffffffffffffffffffffffffffff160217905550808273ffffffffffffffffffffffffffffffffffffffff16610c9c836107fc565b73ffffffffffffffffffffffffffffffffffffffff167f8c5be1e5ebec7d5bd14f71427d1e84f3dd0314c0f7b2291e5b200ac8c7c3b92560405160405180910390a45050565b600080610cee836107fc565b90508073ffffffffffffffffffffffffffffffffffffffff168473ffffffffffffffffffffffffffffffffffffffff161480610d305750610d2f8185610ad8565b5b80610d6e57508373ffffffffffffffffffffffffffffffffffffffff16610d568461052f565b73ffffffffffffffffffffffffffffffffffffffff16145b91505092915050565b8273ffffffffffffffffffffffffffffffffffffffff16610d97826107fc565b73ffffffffffffffffffffffffffffffffffffffff1614610ded576040517f08c379a0000000000000000000000000000000000000000000000000000000008152600401610de49061214b565b60405180910390fd5b600073ffffffffffffffffffffffffffffffffffffffff168273ffffffffffffffffffffffffffffffffffffffff161415610e5d576040517f08c379a0000000000000000000000000000000000000000000000000000000008152600401610e54906121dd565b60405180910390fd5b610e68838383611565565b610e73600082610c29565b6001600360008573ffffffffffffffffffffffffffffffffffffffff1673ffffffffffffffffffffffffffffffffffffffff1681526020019081526020016000206000828254610ec391906121fd565b925050819055506001600360008473ffffffffffffffffffffffffffffffffffffffff1673ffffffffffffffffffffffffffffffffffffffff1681526020019081526020016000206000828254610f1a9190612231565b92505081905550816002600083815260200190815260200160002060006101000a81548173ffffffffffffffffffffffffffffffffffffffff021916908373ffffffffffffffffffffffffffffffffffffffff160217905550808273ffffffffffffffffffffffffffffffffffffffff168473ffffffffffffffffffffffffffffffffffffffff167fddf252ad1be2c89b69c2b068fc378daa952ba7f163c4a11628f55a4df523b3ef60405160405180910390a4610fd983838361156a565b505050565b600073ffffffffffffffffffffffffffffffffffffffff168273ffffffffffffffffffffffffffffffffffffffff16141561104e576040517f08c379a0000000000000000000000000000000000000000000000000000000008152600401611045906122d3565b60405180910390fd5b611057816114f9565b15611097576040517f08c379a000000000000000000000000000000000000000000000000000000000815260040161108e9061233f565b60405180910390fd5b6110a360008383611565565b6001600360008473ffffffffffffffffffffffffffffffffffffffff1673ffffffffffffffffffffffffffffffffffffffff16815260200190815260200160002060008282546110f39190612231565b92505081905550816002600083815260200190815260200160002060006101000a81548173ffffffffffffffffffffffffffffffffffffffff021916908373ffffffffffffffffffffffffffffffffffffffff160217905550808273ffffffffffffffffffffffffffffffffffffffff16600073ffffffffffffffffffffffffffffffffffffffff167fddf252ad1be2c89b69c2b068fc378daa952ba7f163c4a11628f55a4df523b3ef60405160405180910390a46111b46000838361156a565b5050565b8173ffffffffffffffffffffffffffffffffffffffff168373ffffffffffffffffffffffffffffffffffffffff161415611227576040517f08c379a000000000000000000000000000000000000000000000000000000000815260040161121e906123ab565b60405180910390fd5b80600560008573ffffffffffffffffffffffffffffffffffffffff1673ffffffffffffffffffffffffffffffffffffffff16815260200190815260200160002060008473ffffffffffffffffffffffffffffffffffffffff1673ffffffffffffffffffffffffffffffffffffffff16815260200190815260200160002060006101000a81548160ff0219169083151502179055508173ffffffffffffffffffffffffffffffffffffffff168373ffffffffffffffffffffffffffffffffffffffff167f17307eab39ab6107e8899845ad3d59bd9653f200f220920489ca2b5937696c318360405161131891906117dd565b60405180910390a3505050565b611330848484610d77565b61133c8484848461156f565b61137b576040517f08c379a00000000000000000000000000000000000000000000000000000000081526004016113729061243d565b60405180910390fd5b50505050565b606060405180602001604052806000815250905090565b606060008214156113e0576040518060400160405280600181526020017f300000000000000000000000000000000000000000000000000000000000000081525090506114f4565b600082905060005b600082146114125780806113fb90611f32565b915050600a8261140b919061248c565b91506113e8565b60008167ffffffffffffffff81111561142e5761142d611afe565b5b6040519080825280601f01601f1916602001820160405280156114605781602001600182028036833780820191505090505b5090505b600085146114ed5760018261147991906121fd565b9150600a8561148891906124bd565b60306114949190612231565b60f81b8183815181106114aa576114a96124ee565b5b60200101907effffffffffffffffffffffffffffffffffffffffffffffffffffffffffffff1916908160001a905350600a856114e6919061248c565b9450611464565b8093505050505b919050565b60008073ffffffffffffffffffffffffffffffffffffffff166002600084815260200190815260200160002060009054906101000a900473ffffffffffffffffffffffffffffffffffffffff1673ffffffffffffffffffffffffffffffffffffffff1614159050919050565b505050565b505050565b60006115908473ffffffffffffffffffffffffffffffffffffffff16611706565b156116f9578373ffffffffffffffffffffffffffffffffffffffff1663150b7a026115b9610c21565b8786866040518563ffffffff1660e01b81526004016115db9493929190612572565b602060405180830381600087803b1580156115f557600080fd5b505af192505050801561162657506040513d601f19601f8201168201806040525081019061162391906125d3565b60015b6116a9573d8060008114611656576040519150601f19603f3d011682016040523d82523d6000602084013e61165b565b606091505b506000815114156116a1576040517f08c379a00000000000000000000000000000000000000000000000000000000081526004016116989061243d565b60405180910390fd5b805181602001fd5b63150b7a0260e01b7bffffffffffffffffffffffffffffffffffffffffffffffffffffffff1916817bffffffffffffffffffffffffffffffffffffffffffffffffffffffff1916149150506116fe565b600190505b949350505050565b6000808273ffffffffffffffffffffffffffffffffffffffff163b119050919050565b6000604051905090565b600080fd5b600080fd5b60007fffffffff0000000000000000000000000000000000000000000000000000000082169050919050565b6117728161173d565b811461177d57600080fd5b50565b60008135905061178f81611769565b92915050565b6000602082840312156117ab576117aa611733565b5b60006117b984828501611780565b91505092915050565b60008115159050919050565b6117d7816117c2565b82525050565b60006020820190506117f260008301846117ce565b92915050565b600081519050919050565b600082825260208201905092915050565b60005b83811015611832578082015181840152602081019050611817565b83811115611841576000848401525b50505050565b6000601f19601f8301169050919050565b6000611863826117f8565b61186d8185611803565b935061187d818560208601611814565b61188681611847565b840191505092915050565b600060208201905081810360008301526118ab8184611858565b905092915050565b6000819050919050565b6118c6816118b3565b81146118d157600080fd5b50565b6000813590506118e3816118bd565b92915050565b6000602082840312156118ff576118fe611733565b5b600061190d848285016118d4565b91505092915050565b600073ffffffffffffffffffffffffffffffffffffffff82169050919050565b600061194182611916565b9050919050565b61195181611936565b82525050565b600060208201905061196c6000830184611948565b92915050565b61197b81611936565b811461198657600080fd5b50565b60008135905061199881611972565b92915050565b600080604083850312156119b5576119b4611733565b5b60006119c385828601611989565b92505060206119d4858286016118d4565b9150509250929050565b6119e7816118b3565b82525050565b6000602082019050611a0260008301846119de565b92915050565b600080600060608486031215611a2157611a20611733565b5b6000611a2f86828701611989565b9350506020611a4086828701611989565b9250506040611a51868287016118d4565b9150509250925092565b600060208284031215611a7157611a70611733565b5b6000611a7f84828501611989565b91505092915050565b611a91816117c2565b8114611a9c57600080fd5b50565b600081359050611aae81611a88565b92915050565b60008060408385031215611acb57611aca611733565b5b6000611ad985828601611989565b9250506020611aea85828601611a9f565b9150509250929050565b600080fd5b600080fd5b7f4e487b7100000000000000000000000000000000000000000000000000000000600052604160045260246000fd5b611b3682611847565b810181811067ffffffffffffffff82111715611b5557611b54611afe565b5b80604052505050565b6000611b68611729565b9050611b748282611b2d565b919050565b600067ffffffffffffffff821115611b9457611b93611afe565b5b611b9d82611847565b9050602081019050919050565b82818337600083830152505050565b6000611bcc611bc784611b79565b611b5e565b905082815260208101848484011115611be857611be7611af9565b5b611bf3848285611baa565b509392505050565b600082601f830112611c1057611c0f611af4565b5b8135611c20848260208601611bb9565b91505092915050565b60008060008060808587031215611c4357611c42611733565b5b6000611c5187828801611989565b9450506020611c6287828801611989565b9350506040611c73878288016118d4565b925050606085013567ffffffffffffffff811115611c9457611c93611738565b5b611ca087828801611bfb565b91505092959194509250565b60008060408385031215611cc357611cc2611733565b5b6000611cd185828601611989565b9250506020611ce285828601611989565b9150509250929050565b7f4e487b7100000000000000000000000000000000000000000000000000000000600052602260045260246000fd5b60006002820490506001821680611d3357607f821691505b60208210811415611d4757611d46611cec565b5b50919050565b7f4552433732313a20617070726f76616c20746f2063757272656e74206f776e6560008201527f7200000000000000000000000000000000000000000000000000000000000000602082015250565b6000611da9602183611803565b9150611db482611d4d565b604082019050919050565b60006020820190508181036000830152611dd881611d9c565b9050919050565b7f4552433732313a20617070726f76652063616c6c6572206973206e6f7420746f60008201527f6b656e206f776e6572206e6f7220617070726f76656420666f7220616c6c0000602082015250565b6000611e3b603e83611803565b9150611e4682611ddf565b604082019050919050565b60006020820190508181036000830152611e6a81611e2e565b9050919050565b7f4552433732313a2063616c6c6572206973206e6f7420746f6b656e206f776e6560008201527f72206e6f7220617070726f766564000000000000000000000000000000000000602082015250565b6000611ecd602e83611803565b9150611ed882611e71565b604082019050919050565b60006020820190508181036000830152611efc81611ec0565b9050919050565b7f4e487b7100000000000000000000000000000000000000000000000000000000600052601160045260246000fd5b6000611f3d826118b3565b91507fffffffffffffffffffffffffffffffffffffffffffffffffffffffffffffffff821415611f7057611f6f611f03565b5b600182019050919050565b7f4552433732313a20696e76616c696420746f6b656e2049440000000000000000600082015250565b6000611fb1601883611803565b9150611fbc82611f7b565b602082019050919050565b60006020820190508181036000830152611fe081611fa4565b9050919050565b7f4552433732313a2061646472657373207a65726f206973206e6f74206120766160008201527f6c6964206f776e65720000000000000000000000000000000000000000000000602082015250565b6000612043602983611803565b915061204e82611fe7565b604082019050919050565b6000602082019050818103600083015261207281612036565b9050919050565b600081905092915050565b600061208f826117f8565b6120998185612079565b93506120a9818560208601611814565b80840191505092915050565b60006120c18285612084565b91506120cd8284612084565b91508190509392505050565b7f4552433732313a207472616e736665722066726f6d20696e636f72726563742060008201527f6f776e6572000000000000000000000000000000000000000000000000000000602082015250565b6000612135602583611803565b9150612140826120d9565b604082019050919050565b6000602082019050818103600083015261216481612128565b9050919050565b7f4552433732313a207472616e7366657220746f20746865207a65726f2061646460008201527f7265737300000000000000000000000000000000000000000000000000000000602082015250565b60006121c7602483611803565b91506121d28261216b565b604082019050919050565b600060208201905081810360008301526121f6816121ba565b9050919050565b6000612208826118b3565b9150612213836118b3565b92508282101561222657612225611f03565b5b828203905092915050565b600061223c826118b3565b9150612247836118b3565b9250827fffffffffffffffffffffffffffffffffffffffffffffffffffffffffffffffff0382111561227c5761227b611f03565b5b828201905092915050565b7f4552433732313a206d696e7420746f20746865207a65726f2061646472657373600082015250565b60006122bd602083611803565b91506122c882612287565b602082019050919050565b600060208201905081810360008301526122ec816122b0565b9050919050565b7f4552433732313a20746f6b656e20616c7265616479206d696e74656400000000600082015250565b6000612329601c83611803565b9150612334826122f3565b602082019050919050565b600060208201905081810360008301526123588161231c565b9050919050565b7f4552433732313a20617070726f766520746f2063616c6c657200000000000000600082015250565b6000612395601983611803565b91506123a08261235f565b602082019050919050565b600060208201905081810360008301526123c481612388565b9050919050565b7f4552433732313a207472616e7366657220746f206e6f6e20455243373231526560008201527f63656976657220696d706c656d656e7465720000000000000000000000000000602082015250565b6000612427603283611803565b9150612432826123cb565b604082019050919050565b600060208201905081810360008301526124568161241a565b9050919050565b7f4e487b7100000000000000000000000000000000000000000000000000000000600052601260045260246000fd5b6000612497826118b3565b91506124a2836118b3565b9250826124b2576124b161245d565b5b828204905092915050565b60006124c8826118b3565b91506124d3836118b3565b9250826124e3576124e261245d565b5b828206905092915050565b7f4e487b7100000000000000000000000000000000000000000000000000000000600052603260045260246000fd5b600081519050919050565b600082825260208201905092915050565b60006125448261251d565b61254e8185612528565b935061255e818560208601611814565b61256781611847565b840191505092915050565b60006080820190506125876000830187611948565b6125946020830186611948565b6125a160408301856119de565b81810360608301526125b38184612539565b905095945050505050565b6000815190506125cd81611769565b92915050565b6000602082840312156125e9576125e8611733565b5b60006125f7848285016125be565b9150509291505056fea26469706673582212201633c9432935a5eb4b9ff3bf61dabdcc6badfdf4a792514c2114cc3a77ae245664736f6c63430008090033",
  "linkReferences": {},
  "deployedLinkReferences": {}
}