{
  "_format": "hh-sol-artifact-1",
  "contractName": "StudentSocietyDAO",
  "sourceName": "contracts/StudentSocietyDAO.sol",
  "abi": [
    {
      "inputs": [],
      "stateMutability": "nonpayable",
      "type": "constructor"
    },
    {
      "anonymous": false,
      "inputs": [
        {
          "indexed": false,
          "internalType": "uint32",
          "name": "proposalIndex",
          "type": "uint32"
        }
      ],
      "name": "ProposalInitiated",
      "type": "event"
    },
    {
      "inputs": [
        {
          "internalType": "uint32",
          "name": "index",
          "type": "uint32"
        }
      ],
      "name": "DecideProposal",
      "outputs": [],
      "stateMutability": "nonpayable",
      "type": "function"
    },
    {
      "inputs": [
        {
          "internalType": "uint32",
          "name": "amount",
          "type": "uint32"
        },
        {
          "internalType": "string",
          "name": "name",
          "type": "string"
        },
        {
          "internalType": "uint256",
          "name": "duration",
          "type": "uint256"
        },
        {
          "internalType": "string",
          "name": "proposerName",
          "type": "string"
        }
      ],
      "name": "createProposal",
      "outputs": [
        {
          "internalType": "uint32",
          "name": "proposalIndex",
          "type": "uint32"
        }
      ],
      "stateMutability": "nonpayable",
      "type": "function"
    },
    {
      "inputs": [
        {
          "internalType": "uint32",
          "name": "index",
          "type": "uint32"
        }
      ],
      "name": "getApprovement",
      "outputs": [
        {
          "internalType": "uint32",
          "name": "",
          "type": "uint32"
        }
      ],
      "stateMutability": "view",
      "type": "function"
    },
    {
      "inputs": [
        {
          "internalType": "uint32",
          "name": "index",
          "type": "uint32"
        }
      ],
      "name": "getDisapprovement",
      "outputs": [
        {
          "internalType": "uint32",
          "name": "",
          "type": "uint32"
        }
      ],
      "stateMutability": "view",
      "type": "function"
    },
    {
      "inputs": [
        {
          "internalType": "uint32",
          "name": "index",
          "type": "uint32"
        }
      ],
      "name": "getDuration",
      "outputs": [
        {
          "internalType": "uint256",
          "name": "",
          "type": "uint256"
        }
      ],
      "stateMutability": "view",
      "type": "function"
    },
    {
      "inputs": [
        {
          "internalType": "uint32",
          "name": "index",
          "type": "uint32"
        }
      ],
      "name": "getProposalName",
      "outputs": [
        {
          "internalType": "string",
          "name": "",
          "type": "string"
        }
      ],
      "stateMutability": "view",
      "type": "function"
    },
    {
      "inputs": [],
      "name": "getProposalNum",
      "outputs": [
        {
          "internalType": "uint256",
          "name": "",
          "type": "uint256"
        }
      ],
      "stateMutability": "view",
      "type": "function"
    },
    {
      "inputs": [],
      "name": "getProposeCost",
      "outputs": [
        {
          "internalType": "uint32",
          "name": "",
          "type": "uint32"
        }
      ],
      "stateMutability": "pure",
      "type": "function"
    },
    {
      "inputs": [
        {
          "internalType": "uint32",
          "name": "index",
          "type": "uint32"
        }
      ],
      "name": "getProposerAddress",
      "outputs": [
        {
          "internalType": "address",
          "name": "",
          "type": "address"
        }
      ],
      "stateMutability": "view",
      "type": "function"
    },
    {
      "inputs": [
        {
          "internalType": "uint32",
          "name": "index",
          "type": "uint32"
        }
      ],
      "name": "getProposerName",
      "outputs": [
        {
          "internalType": "string",
          "name": "",
          "type": "string"
        }
      ],
      "stateMutability": "view",
      "type": "function"
    },
    {
      "inputs": [
        {
          "internalType": "uint32",
          "name": "index",
          "type": "uint32"
        }
      ],
      "name": "getStartTime",
      "outputs": [
        {
          "internalType": "uint256",
          "name": "",
          "type": "uint256"
        }
      ],
      "stateMutability": "view",
      "type": "function"
    },
    {
      "inputs": [],
      "name": "getStudentNumber",
      "outputs": [
        {
          "internalType": "uint256",
          "name": "",
          "type": "uint256"
        }
      ],
      "stateMutability": "view",
      "type": "function"
    },
    {
      "inputs": [
        {
          "internalType": "address",
          "name": "proposer",
          "type": "address"
        }
      ],
      "name": "getTokenId",
      "outputs": [
        {
          "internalType": "uint256",
          "name": "",
          "type": "uint256"
        }
      ],
      "stateMutability": "view",
      "type": "function"
    },
    {
      "inputs": [],
      "name": "getVoteCost",
      "outputs": [
        {
          "internalType": "uint32",
          "name": "",
          "type": "uint32"
        }
      ],
      "stateMutability": "pure",
      "type": "function"
    },
    {
      "inputs": [],
      "name": "manager",
      "outputs": [
        {
          "internalType": "address",
          "name": "",
          "type": "address"
        }
      ],
      "stateMutability": "view",
      "type": "function"
    },
    {
      "inputs": [
        {
          "internalType": "uint256",
          "name": "length",
          "type": "uint256"
        }
      ],
      "name": "rand_int256",
      "outputs": [
        {
          "internalType": "uint256",
          "name": "",
          "type": "uint256"
        }
      ],
      "stateMutability": "view",
      "type": "function"
    },
    {
      "inputs": [
        {
          "internalType": "uint256",
          "name": "startTime",
          "type": "uint256"
        },
        {
          "internalType": "uint256",
          "name": "duration",
          "type": "uint256"
        }
      ],
      "name": "setTimer",
      "outputs": [
        {
          "internalType": "bool",
          "name": "",
          "type": "bool"
        }
      ],
      "stateMutability": "view",
      "type": "function"
    },
    {
      "inputs": [
        {
          "internalType": "uint256",
          "name": "",
          "type": "uint256"
        }
      ],
      "name": "student",
      "outputs": [
        {
          "internalType": "address",
          "name": "",
          "type": "address"
        }
      ],
      "stateMutability": "view",
      "type": "function"
    },
    {
      "inputs": [],
      "name": "studentERC20",
      "outputs": [
        {
          "internalType": "contract MyERC20",
          "name": "",
          "type": "address"
        }
      ],
      "stateMutability": "view",
      "type": "function"
    },
    {
      "inputs": [],
      "name": "studentERC721",
      "outputs": [
        {
          "internalType": "contract MyERC721",
          "name": "",
          "type": "address"
        }
      ],
      "stateMutability": "view",
      "type": "function"
    },
    {
      "inputs": [
        {
          "internalType": "uint32",
          "name": "index",
          "type": "uint32"
        },
        {
          "internalType": "bool",
          "name": "vote_",
          "type": "bool"
        },
        {
          "internalType": "uint32",
          "name": "amount",
          "type": "uint32"
        }
      ],
      "name": "vote",
      "outputs": [],
      "stateMutability": "nonpayable",
      "type": "function"
    },
    {
      "inputs": [],
      "name": "winner",
      "outputs": [
        {
          "internalType": "address",
          "name": "",
          "type": "address"
        }
      ],
      "stateMutability": "view",
      "type": "function"
    }
  ],
  "bytecode": "0x60806040523480156200001157600080fd5b50604051620000209062000169565b6200002b9062000236565b604051809103906000f08015801562000048573d6000803e3d6000fd5b50600260006101000a81548173ffffffffffffffffffffffffffffffffffffffff021916908373ffffffffffffffffffffffffffffffffffffffff160217905550604051620000979062000177565b620000a290620002bd565b604051809103906000f080158015620000bf573d6000803e3d6000fd5b50600360006101000a81548173ffffffffffffffffffffffffffffffffffffffff021916908373ffffffffffffffffffffffffffffffffffffffff1602179055506000600360146101000a81548163ffffffff021916908363ffffffff16021790555033600460006101000a81548173ffffffffffffffffffffffffffffffffffffffff021916908373ffffffffffffffffffffffffffffffffffffffff160217905550620002f4565b61199080620025a383390190565b612b038062003f3383390190565b600082825260208201905092915050565b7f53747564656e7444414f00000000000000000000000000000000000000000000600082015250565b6000620001ce600a8362000185565b9150620001db8262000196565b602082019050919050565b7f4552430000000000000000000000000000000000000000000000000000000000600082015250565b60006200021e60038362000185565b91506200022b82620001e6565b602082019050919050565b600060408201905081810360008301526200025181620001bf565b9050818103602083015262000266816200020f565b9050919050565b7f4e46540000000000000000000000000000000000000000000000000000000000600082015250565b6000620002a560038362000185565b9150620002b2826200026d565b602082019050919050565b60006040820190508181036000830152620002d881620001bf565b90508181036020830152620002ed8162000296565b9050919050565b61229f80620003046000396000f3fe608060405234801561001057600080fd5b50600436106101425760003560e01c806381576ffb116100b8578063b1a273771161007c578063b1a27377146103c5578063df034001146103e3578063dfbf53ae14610413578063e3ce595514610431578063f153768614610461578063f5da27c41461049157610142565b806381576ffb146102fb57806385c2fe241461032b578063a42765331461035b578063a44bd6b814610379578063ae7ca1ac1461039557610142565b806347ac2b311161010a57806347ac2b3114610213578063481c6a75146102435780634c2ce94314610261578063550891da1461029157806359f00ddf146102ad5780636c3fbb2d146102dd57610142565b8063163b4b05146101475780632c41742a14610165578063356f99991461019557806335f34232146101c55780633901d2d4146101f5575b600080fd5b61014f6104af565b60405161015c91906117a8565b60405180910390f35b61017f600480360381019061017a9190611803565b6104b8565b60405161018c91906117a8565b60405180910390f35b6101af60048036038101906101aa9190611803565b6104f4565b6040516101bc9190611849565b60405180910390f35b6101df60048036038101906101da9190611890565b610520565b6040516101ec91906118fe565b60405180910390f35b6101fd61055f565b60405161020a9190611978565b60405180910390f35b61022d60048036038101906102289190611890565b610585565b60405161023a9190611849565b60405180910390f35b61024b6105ca565b60405161025891906118fe565b60405180910390f35b61027b60048036038101906102769190611803565b6105f0565b60405161028891906117a8565b60405180910390f35b6102ab60048036038101906102a691906119cb565b61062c565b005b6102c760048036038101906102c29190611803565b6109a4565b6040516102d49190611849565b60405180910390f35b6102e56109d0565b6040516102f29190611a3f565b60405180910390f35b61031560048036038101906103109190611ba0565b6109f6565b60405161032291906117a8565b60405180910390f35b61034560048036038101906103409190611803565b610f1c565b60405161035291906118fe565b60405180910390f35b610363610f68565b6040516103709190611849565b60405180910390f35b610393600480360381019061038e9190611803565b610f88565b005b6103af60048036038101906103aa9190611803565b6114d1565b6040516103bc9190611cc7565b60405180910390f35b6103cd611585565b6040516103da9190611849565b60405180910390f35b6103fd60048036038101906103f89190611ce9565b611591565b60405161040a9190611d38565b60405180910390f35b61041b6115b9565b60405161042891906118fe565b60405180910390f35b61044b60048036038101906104469190611803565b6115df565b6040516104589190611cc7565b60405180910390f35b61047b60048036038101906104769190611d7f565b611693565b6040516104889190611849565b60405180910390f35b6104996116dc565b6040516104a691906117a8565b60405180910390f35b60006064905090565b6000600560008363ffffffff1663ffffffff16815260200190815260200160002060050160009054906101000a900463ffffffff169050919050565b6000600560008363ffffffff1663ffffffff168152602001908152602001600020600101549050919050565b6000818154811061053057600080fd5b906000526020600020016000915054906101000a900473ffffffffffffffffffffffffffffffffffffffff1681565b600360009054906101000a900473ffffffffffffffffffffffffffffffffffffffff1681565b600080424460405160200161059b929190611dcd565b6040516020818303038152906040528051906020012060001c905082816105c29190611e28565b915050919050565b600460009054906101000a900473ffffffffffffffffffffffffffffffffffffffff1681565b6000600560008363ffffffff1663ffffffff16815260200190815260200160002060050160049054906101000a900463ffffffff169050919050565b606463ffffffff168163ffffffff16101561067c576040517f08c379a000000000000000000000000000000000000000000000000000000000815260040161067390611ecb565b60405180910390fd5b600360149054906101000a900463ffffffff1663ffffffff168363ffffffff1611806106f65750600560008463ffffffff1663ffffffff16815260200190815260200160002060010154600560008563ffffffff1663ffffffff168152602001908152602001600020600201546106f39190611f1a565b42115b15610736576040517f08c379a000000000000000000000000000000000000000000000000000000000815260040161072d90611fe2565b60405180910390fd5b600260009054906101000a900473ffffffffffffffffffffffffffffffffffffffff1673ffffffffffffffffffffffffffffffffffffffff166323b872dd3330846040518463ffffffff1660e01b815260040161079593929190612033565b602060405180830381600087803b1580156107af57600080fd5b505af11580156107c3573d6000803e3d6000fd5b505050506040513d601f19601f820116820180604052508101906107e7919061207f565b506000339080600181540180825580915050600190039060005260206000200160009091909190916101000a81548173ffffffffffffffffffffffffffffffffffffffff021916908373ffffffffffffffffffffffffffffffffffffffff1602179055506000600560008563ffffffff1663ffffffff168152602001908152602001600020905082156108c65760648261088191906120ac565b8160050160008282829054906101000a900463ffffffff166108a391906120dd565b92506101000a81548163ffffffff021916908363ffffffff160217905550610914565b6064826108d391906120ac565b8160050160048282829054906101000a900463ffffffff166108f591906120dd565b92506101000a81548163ffffffff021916908363ffffffff1602179055505b60648261092191906120ac565b8160060160003373ffffffffffffffffffffffffffffffffffffffff1673ffffffffffffffffffffffffffffffffffffffff16815260200190815260200160002060008282829054906101000a900463ffffffff1661098091906120dd565b92506101000a81548163ffffffff021916908363ffffffff16021790555050505050565b6000600560008363ffffffff1663ffffffff168152602001908152602001600020600201549050919050565b600260009054906101000a900473ffffffffffffffffffffffffffffffffffffffff1681565b600061012c63ffffffff168563ffffffff161015610a49576040517f08c379a0000000000000000000000000000000000000000000000000000000008152600401610a4090611ecb565b60405180910390fd5b600260009054906101000a900473ffffffffffffffffffffffffffffffffffffffff1673ffffffffffffffffffffffffffffffffffffffff166323b872dd3330886040518463ffffffff1660e01b8152600401610aa893929190612033565b602060405180830381600087803b158015610ac257600080fd5b505af1158015610ad6573d6000803e3d6000fd5b505050506040513d601f19601f82011682018060405250810190610afa919061207f565b506003601481819054906101000a900463ffffffff1680929190610b1d90612117565b91906101000a81548163ffffffff021916908363ffffffff16021790555050600360149054906101000a900463ffffffff1660056000600360149054906101000a900463ffffffff1663ffffffff1663ffffffff16815260200190815260200160002060000160006101000a81548163ffffffff021916908363ffffffff1602179055508360056000600360149054906101000a900463ffffffff1663ffffffff1663ffffffff1681526020019081526020016000206003019080519060200190610be99291906116e6565b503360056000600360149054906101000a900463ffffffff1663ffffffff1663ffffffff16815260200190815260200160002060000160046101000a81548173ffffffffffffffffffffffffffffffffffffffff021916908373ffffffffffffffffffffffffffffffffffffffff1602179055508160056000600360149054906101000a900463ffffffff1663ffffffff1663ffffffff1681526020019081526020016000206004019080519060200190610ca59291906116e6565b50606461012c86610cb69190612144565b610cc091906120ac565b60056000600360149054906101000a900463ffffffff1663ffffffff1663ffffffff16815260200190815260200160002060050160006101000a81548163ffffffff021916908363ffffffff160217905550600060056000600360149054906101000a900463ffffffff1663ffffffff1663ffffffff16815260200190815260200160002060050160046101000a81548163ffffffff021916908363ffffffff1602179055504260056000600360149054906101000a900463ffffffff1663ffffffff1663ffffffff168152602001908152602001600020600101819055508260056000600360149054906101000a900463ffffffff1663ffffffff1663ffffffff16815260200190815260200160002060020181905550600060056000600360149054906101000a900463ffffffff1663ffffffff1663ffffffff16815260200190815260200160002060060160003373ffffffffffffffffffffffffffffffffffffffff1673ffffffffffffffffffffffffffffffffffffffff16815260200190815260200160002060006101000a81548163ffffffff021916908363ffffffff160217905550600060056000600360149054906101000a900463ffffffff1663ffffffff1663ffffffff16815260200190815260200160002060070160006101000a81548160ff0219169083151502179055507f944f5ef0a446d54c41ea39dac07de1fd2150ec3346cbff6c627d1ffba048676c600360149054906101000a900463ffffffff16604051610ef791906117a8565b60405180910390a1600360149054906101000a900463ffffffff169050949350505050565b6000600560008363ffffffff1663ffffffff16815260200190815260200160002060000160049054906101000a900473ffffffffffffffffffffffffffffffffffffffff169050919050565b6000600360149054906101000a900463ffffffff1663ffffffff16905090565b600560008263ffffffff1663ffffffff16815260200190815260200160002060020154600560008363ffffffff1663ffffffff16815260200190815260200160002060010154610fd89190611f1a565b421015610fe457600080fd5b60001515600560008363ffffffff1663ffffffff16815260200190815260200160002060070160009054906101000a900460ff1615151461102457600080fd5b6001600560008363ffffffff1663ffffffff16815260200190815260200160002060070160006101000a81548160ff021916908315150217905550600560008263ffffffff1663ffffffff16815260200190815260200160002060050160049054906101000a900463ffffffff1663ffffffff16600560008363ffffffff1663ffffffff16815260200190815260200160002060050160009054906101000a900463ffffffff1663ffffffff16106114ce57600160066000600560008563ffffffff1663ffffffff16815260200190815260200160002060000160049054906101000a900473ffffffffffffffffffffffffffffffffffffffff1673ffffffffffffffffffffffffffffffffffffffff1673ffffffffffffffffffffffffffffffffffffffff16815260200190815260200160002060008282829054906101000a900463ffffffff1661117791906120dd565b92506101000a81548163ffffffff021916908363ffffffff160217905550600260009054906101000a900473ffffffffffffffffffffffffffffffffffffffff1673ffffffffffffffffffffffffffffffffffffffff1663a9059cbb600560008463ffffffff1663ffffffff16815260200190815260200160002060000160049054906101000a900473ffffffffffffffffffffffffffffffffffffffff166064600560008663ffffffff1663ffffffff16815260200190815260200160002060050160009054906101000a900463ffffffff166112559190612178565b6040518363ffffffff1660e01b81526004016112729291906121b6565b602060405180830381600087803b15801561128c57600080fd5b505af11580156112a0573d6000803e3d6000fd5b505050506040513d601f19601f820116820180604052508101906112c4919061207f565b50600360066000600560008563ffffffff1663ffffffff16815260200190815260200160002060000160049054906101000a900473ffffffffffffffffffffffffffffffffffffffff1673ffffffffffffffffffffffffffffffffffffffff1673ffffffffffffffffffffffffffffffffffffffff16815260200190815260200160002060009054906101000a900463ffffffff1663ffffffff1614156114cd576000611372612710610585565b9050600360009054906101000a900473ffffffffffffffffffffffffffffffffffffffff1673ffffffffffffffffffffffffffffffffffffffff166340c10f19600560008563ffffffff1663ffffffff16815260200190815260200160002060000160049054906101000a900473ffffffffffffffffffffffffffffffffffffffff16836040518363ffffffff1660e01b81526004016114139291906121df565b600060405180830381600087803b15801561142d57600080fd5b505af1158015611441573d6000803e3d6000fd5b505050508060076000600560008663ffffffff1663ffffffff16815260200190815260200160002060000160049054906101000a900473ffffffffffffffffffffffffffffffffffffffff1673ffffffffffffffffffffffffffffffffffffffff1673ffffffffffffffffffffffffffffffffffffffff16815260200190815260200160002081905550505b5b50565b6060600560008363ffffffff1663ffffffff168152602001908152602001600020600401805461150090612237565b80601f016020809104026020016040519081016040528092919081815260200182805461152c90612237565b80156115795780601f1061154e57610100808354040283529160200191611579565b820191906000526020600020905b81548152906001019060200180831161155c57829003601f168201915b50505050509050919050565b60008080549050905090565b6000828261159f9190611f1a565b42106115ae57600190506115b3565b600090505b92915050565b600160009054906101000a900473ffffffffffffffffffffffffffffffffffffffff1681565b6060600560008363ffffffff1663ffffffff168152602001908152602001600020600301805461160e90612237565b80601f016020809104026020016040519081016040528092919081815260200182805461163a90612237565b80156116875780601f1061165c57610100808354040283529160200191611687565b820191906000526020600020905b81548152906001019060200180831161166a57829003601f168201915b50505050509050919050565b6000600760008373ffffffffffffffffffffffffffffffffffffffff1673ffffffffffffffffffffffffffffffffffffffff168152602001908152602001600020549050919050565b600061012c905090565b8280546116f290612237565b90600052602060002090601f016020900481019282611714576000855561175b565b82601f1061172d57805160ff191683800117855561175b565b8280016001018555821561175b579182015b8281111561175a57825182559160200191906001019061173f565b5b509050611768919061176c565b5090565b5b8082111561178557600081600090555060010161176d565b5090565b600063ffffffff82169050919050565b6117a281611789565b82525050565b60006020820190506117bd6000830184611799565b92915050565b6000604051905090565b600080fd5b600080fd5b6117e081611789565b81146117eb57600080fd5b50565b6000813590506117fd816117d7565b92915050565b600060208284031215611819576118186117cd565b5b6000611827848285016117ee565b91505092915050565b6000819050919050565b61184381611830565b82525050565b600060208201905061185e600083018461183a565b92915050565b61186d81611830565b811461187857600080fd5b50565b60008135905061188a81611864565b92915050565b6000602082840312156118a6576118a56117cd565b5b60006118b48482850161187b565b91505092915050565b600073ffffffffffffffffffffffffffffffffffffffff82169050919050565b60006118e8826118bd565b9050919050565b6118f8816118dd565b82525050565b600060208201905061191360008301846118ef565b92915050565b6000819050919050565b600061193e611939611934846118bd565b611919565b6118bd565b9050919050565b600061195082611923565b9050919050565b600061196282611945565b9050919050565b61197281611957565b82525050565b600060208201905061198d6000830184611969565b92915050565b60008115159050919050565b6119a881611993565b81146119b357600080fd5b50565b6000813590506119c58161199f565b92915050565b6000806000606084860312156119e4576119e36117cd565b5b60006119f2868287016117ee565b9350506020611a03868287016119b6565b9250506040611a14868287016117ee565b9150509250925092565b6000611a2982611945565b9050919050565b611a3981611a1e565b82525050565b6000602082019050611a546000830184611a30565b92915050565b600080fd5b600080fd5b6000601f19601f8301169050919050565b7f4e487b7100000000000000000000000000000000000000000000000000000000600052604160045260246000fd5b611aad82611a64565b810181811067ffffffffffffffff82111715611acc57611acb611a75565b5b80604052505050565b6000611adf6117c3565b9050611aeb8282611aa4565b919050565b600067ffffffffffffffff821115611b0b57611b0a611a75565b5b611b1482611a64565b9050602081019050919050565b82818337600083830152505050565b6000611b43611b3e84611af0565b611ad5565b905082815260208101848484011115611b5f57611b5e611a5f565b5b611b6a848285611b21565b509392505050565b600082601f830112611b8757611b86611a5a565b5b8135611b97848260208601611b30565b91505092915050565b60008060008060808587031215611bba57611bb96117cd565b5b6000611bc8878288016117ee565b945050602085013567ffffffffffffffff811115611be957611be86117d2565b5b611bf587828801611b72565b9350506040611c068782880161187b565b925050606085013567ffffffffffffffff811115611c2757611c266117d2565b5b611c3387828801611b72565b91505092959194509250565b600081519050919050565b600082825260208201905092915050565b60005b83811015611c79578082015181840152602081019050611c5e565b83811115611c88576000848401525b50505050565b6000611c9982611c3f565b611ca38185611c4a565b9350611cb3818560208601611c5b565b611cbc81611a64565b840191505092915050565b60006020820190508181036000830152611ce18184611c8e565b905092915050565b60008060408385031215611d0057611cff6117cd565b5b6000611d0e8582860161187b565b9250506020611d1f8582860161187b565b9150509250929050565b611d3281611993565b82525050565b6000602082019050611d4d6000830184611d29565b92915050565b611d5c816118dd565b8114611d6757600080fd5b50565b600081359050611d7981611d53565b92915050565b600060208284031215611d9557611d946117cd565b5b6000611da384828501611d6a565b91505092915050565b6000819050919050565b611dc7611dc282611830565b611dac565b82525050565b6000611dd98285611db6565b602082019150611de98284611db6565b6020820191508190509392505050565b7f4e487b7100000000000000000000000000000000000000000000000000000000600052601260045260246000fd5b6000611e3382611830565b9150611e3e83611830565b925082611e4e57611e4d611df9565b5b828206905092915050565b7f556e6166666f726461626c652120506c6561736520676574206d6f726520746f60008201527f6b656e0000000000000000000000000000000000000000000000000000000000602082015250565b6000611eb5602383611c4a565b9150611ec082611e59565b604082019050919050565b60006020820190508181036000830152611ee481611ea8565b9050919050565b7f4e487b7100000000000000000000000000000000000000000000000000000000600052601160045260246000fd5b6000611f2582611830565b9150611f3083611830565b9250827fffffffffffffffffffffffffffffffffffffffffffffffffffffffffffffffff03821115611f6557611f64611eeb565b5b828201905092915050565b7f50726f706f73616c206e6f7420666f756e642e204974206d617920686173206560008201527f6e64656421000000000000000000000000000000000000000000000000000000602082015250565b6000611fcc602583611c4a565b9150611fd782611f70565b604082019050919050565b60006020820190508181036000830152611ffb81611fbf565b9050919050565b600061201d61201861201384611789565b611919565b611830565b9050919050565b61202d81612002565b82525050565b600060608201905061204860008301866118ef565b61205560208301856118ef565b6120626040830184612024565b949350505050565b6000815190506120798161199f565b92915050565b600060208284031215612095576120946117cd565b5b60006120a38482850161206a565b91505092915050565b60006120b782611789565b91506120c283611789565b9250826120d2576120d1611df9565b5b828204905092915050565b60006120e882611789565b91506120f383611789565b92508263ffffffff0382111561210c5761210b611eeb565b5b828201905092915050565b600061212282611789565b915063ffffffff82141561213957612138611eeb565b5b600182019050919050565b600061214f82611789565b915061215a83611789565b92508282101561216d5761216c611eeb565b5b828203905092915050565b600061218382611789565b915061218e83611789565b92508163ffffffff04831182151516156121ab576121aa611eeb565b5b828202905092915050565b60006040820190506121cb60008301856118ef565b6121d86020830184612024565b9392505050565b60006040820190506121f460008301856118ef565b612201602083018461183a565b9392505050565b7f4e487b7100000000000000000000000000000000000000000000000000000000600052602260045260246000fd5b6000600282049050600182168061224f57607f821691505b6020821081141561226357612262612208565b5b5091905056fea2646970667358221220f85d83bbb869d5fc66d60622f4c310fc5cd60b5266140900af7e9586fd10d93664736f6c6343000809003360806040523480156200001157600080fd5b5060405162001990380380620019908339818101604052810190620000379190620002c2565b818181600390805190602001906200005192919062000075565b5080600490805190602001906200006a92919062000075565b5050505050620003ac565b828054620000839062000376565b90600052602060002090601f016020900481019282620000a75760008555620000f3565b82601f10620000c257805160ff1916838001178555620000f3565b82800160010185558215620000f3579182015b82811115620000f2578251825591602001919060010190620000d5565b5b50905062000102919062000106565b5090565b5b808211156200012157600081600090555060010162000107565b5090565b6000604051905090565b600080fd5b600080fd5b600080fd5b600080fd5b6000601f19601f8301169050919050565b7f4e487b7100000000000000000000000000000000000000000000000000000000600052604160045260246000fd5b6200018e8262000143565b810181811067ffffffffffffffff82111715620001b057620001af62000154565b5b80604052505050565b6000620001c562000125565b9050620001d3828262000183565b919050565b600067ffffffffffffffff821115620001f657620001f562000154565b5b620002018262000143565b9050602081019050919050565b60005b838110156200022e57808201518184015260208101905062000211565b838111156200023e576000848401525b50505050565b60006200025b6200025584620001d8565b620001b9565b9050828152602081018484840111156200027a57620002796200013e565b5b620002878482856200020e565b509392505050565b600082601f830112620002a757620002a662000139565b5b8151620002b984826020860162000244565b91505092915050565b60008060408385031215620002dc57620002db6200012f565b5b600083015167ffffffffffffffff811115620002fd57620002fc62000134565b5b6200030b858286016200028f565b925050602083015167ffffffffffffffff8111156200032f576200032e62000134565b5b6200033d858286016200028f565b9150509250929050565b7f4e487b7100000000000000000000000000000000000000000000000000000000600052602260045260246000fd5b600060028204905060018216806200038f57607f821691505b60208210811415620003a657620003a562000347565b5b50919050565b6115d480620003bc6000396000f3fe608060405234801561001057600080fd5b50600436106100b45760003560e01c80633950935111610071578063395093511461017d57806370a08231146101ad57806395d89b41146101dd578063a457c2d7146101fb578063a9059cbb1461022b578063dd62ed3e1461025b576100b4565b806306fdde03146100b9578063095ea7b3146100d757806318160ddd1461010757806323b872dd14610125578063313ce567146101555780633884d63514610173575b600080fd5b6100c161028b565b6040516100ce9190610d90565b60405180910390f35b6100f160048036038101906100ec9190610e4b565b61031d565b6040516100fe9190610ea6565b60405180910390f35b61010f610340565b60405161011c9190610ed0565b60405180910390f35b61013f600480360381019061013a9190610eeb565b61034a565b60405161014c9190610ea6565b60405180910390f35b61015d610379565b60405161016a9190610f5a565b60405180910390f35b61017b610382565b005b61019760048036038101906101929190610e4b565b61047b565b6040516101a49190610ea6565b60405180910390f35b6101c760048036038101906101c29190610f75565b6104b2565b6040516101d49190610ed0565b60405180910390f35b6101e56104fa565b6040516101f29190610d90565b60405180910390f35b61021560048036038101906102109190610e4b565b61058c565b6040516102229190610ea6565b60405180910390f35b61024560048036038101906102409190610e4b565b610603565b6040516102529190610ea6565b60405180910390f35b61027560048036038101906102709190610fa2565b610626565b6040516102829190610ed0565b60405180910390f35b60606003805461029a90611011565b80601f01602080910402602001604051908101604052809291908181526020018280546102c690611011565b80156103135780601f106102e857610100808354040283529160200191610313565b820191906000526020600020905b8154815290600101906020018083116102f657829003601f168201915b5050505050905090565b6000806103286106ad565b90506103358185856106b5565b600191505092915050565b6000600254905090565b6000806103556106ad565b9050610362858285610880565b61036d85858561090c565b60019150509392505050565b60006012905090565b60001515600560003373ffffffffffffffffffffffffffffffffffffffff1673ffffffffffffffffffffffffffffffffffffffff16815260200190815260200160002060009054906101000a900460ff16151514610415576040517f08c379a000000000000000000000000000000000000000000000000000000000815260040161040c906110b5565b60405180910390fd5b610421336107d0610b8d565b6001600560003373ffffffffffffffffffffffffffffffffffffffff1673ffffffffffffffffffffffffffffffffffffffff16815260200190815260200160002060006101000a81548160ff021916908315150217905550565b6000806104866106ad565b90506104a78185856104988589610626565b6104a29190611104565b6106b5565b600191505092915050565b60008060008373ffffffffffffffffffffffffffffffffffffffff1673ffffffffffffffffffffffffffffffffffffffff168152602001908152602001600020549050919050565b60606004805461050990611011565b80601f016020809104026020016040519081016040528092919081815260200182805461053590611011565b80156105825780601f1061055757610100808354040283529160200191610582565b820191906000526020600020905b81548152906001019060200180831161056557829003601f168201915b5050505050905090565b6000806105976106ad565b905060006105a58286610626565b9050838110156105ea576040517f08c379a00000000000000000000000000000000000000000000000000000000081526004016105e1906111cc565b60405180910390fd5b6105f782868684036106b5565b60019250505092915050565b60008061060e6106ad565b905061061b81858561090c565b600191505092915050565b6000600160008473ffffffffffffffffffffffffffffffffffffffff1673ffffffffffffffffffffffffffffffffffffffff16815260200190815260200160002060008373ffffffffffffffffffffffffffffffffffffffff1673ffffffffffffffffffffffffffffffffffffffff16815260200190815260200160002054905092915050565b600033905090565b600073ffffffffffffffffffffffffffffffffffffffff168373ffffffffffffffffffffffffffffffffffffffff161415610725576040517f08c379a000000000000000000000000000000000000000000000000000000000815260040161071c9061125e565b60405180910390fd5b600073ffffffffffffffffffffffffffffffffffffffff168273ffffffffffffffffffffffffffffffffffffffff161415610795576040517f08c379a000000000000000000000000000000000000000000000000000000000815260040161078c906112f0565b60405180910390fd5b80600160008573ffffffffffffffffffffffffffffffffffffffff1673ffffffffffffffffffffffffffffffffffffffff16815260200190815260200160002060008473ffffffffffffffffffffffffffffffffffffffff1673ffffffffffffffffffffffffffffffffffffffff168152602001908152602001600020819055508173ffffffffffffffffffffffffffffffffffffffff168373ffffffffffffffffffffffffffffffffffffffff167f8c5be1e5ebec7d5bd14f71427d1e84f3dd0314c0f7b2291e5b200ac8c7c3b925836040516108739190610ed0565b60405180910390a3505050565b600061088c8484610626565b90507fffffffffffffffffffffffffffffffffffffffffffffffffffffffffffffffff811461090657818110156108f8576040517f08c379a00000000000000000000000000000000000000000000000000000000081526004016108ef9061135c565b60405180910390fd5b61090584848484036106b5565b5b50505050565b600073ffffffffffffffffffffffffffffffffffffffff168373ffffffffffffffffffffffffffffffffffffffff16141561097c576040517f08c379a0000000000000000000000000000000000000000000000000000000008152600401610973906113ee565b60405180910390fd5b600073ffffffffffffffffffffffffffffffffffffffff168273ffffffffffffffffffffffffffffffffffffffff1614156109ec576040517f08c379a00000000000000000000000000000000000000000000000000000000081526004016109e390611480565b60405180910390fd5b6109f7838383610ced565b60008060008573ffffffffffffffffffffffffffffffffffffffff1673ffffffffffffffffffffffffffffffffffffffff16815260200190815260200160002054905081811015610a7d576040517f08c379a0000000000000000000000000000000000000000000000000000000008152600401610a7490611512565b60405180910390fd5b8181036000808673ffffffffffffffffffffffffffffffffffffffff1673ffffffffffffffffffffffffffffffffffffffff16815260200190815260200160002081905550816000808573ffffffffffffffffffffffffffffffffffffffff1673ffffffffffffffffffffffffffffffffffffffff1681526020019081526020016000206000828254610b109190611104565b925050819055508273ffffffffffffffffffffffffffffffffffffffff168473ffffffffffffffffffffffffffffffffffffffff167fddf252ad1be2c89b69c2b068fc378daa952ba7f163c4a11628f55a4df523b3ef84604051610b749190610ed0565b60405180910390a3610b87848484610cf2565b50505050565b600073ffffffffffffffffffffffffffffffffffffffff168273ffffffffffffffffffffffffffffffffffffffff161415610bfd576040517f08c379a0000000000000000000000000000000000000000000000000000000008152600401610bf49061157e565b60405180910390fd5b610c0960008383610ced565b8060026000828254610c1b9190611104565b92505081905550806000808473ffffffffffffffffffffffffffffffffffffffff1673ffffffffffffffffffffffffffffffffffffffff1681526020019081526020016000206000828254610c709190611104565b925050819055508173ffffffffffffffffffffffffffffffffffffffff16600073ffffffffffffffffffffffffffffffffffffffff167fddf252ad1be2c89b69c2b068fc378daa952ba7f163c4a11628f55a4df523b3ef83604051610cd59190610ed0565b60405180910390a3610ce960008383610cf2565b5050565b505050565b505050565b600081519050919050565b600082825260208201905092915050565b60005b83811015610d31578082015181840152602081019050610d16565b83811115610d40576000848401525b50505050565b6000601f19601f8301169050919050565b6000610d6282610cf7565b610d6c8185610d02565b9350610d7c818560208601610d13565b610d8581610d46565b840191505092915050565b60006020820190508181036000830152610daa8184610d57565b905092915050565b600080fd5b600073ffffffffffffffffffffffffffffffffffffffff82169050919050565b6000610de282610db7565b9050919050565b610df281610dd7565b8114610dfd57600080fd5b50565b600081359050610e0f81610de9565b92915050565b6000819050919050565b610e2881610e15565b8114610e3357600080fd5b50565b600081359050610e4581610e1f565b92915050565b60008060408385031215610e6257610e61610db2565b5b6000610e7085828601610e00565b9250506020610e8185828601610e36565b9150509250929050565b60008115159050919050565b610ea081610e8b565b82525050565b6000602082019050610ebb6000830184610e97565b92915050565b610eca81610e15565b82525050565b6000602082019050610ee56000830184610ec1565b92915050565b600080600060608486031215610f0457610f03610db2565b5b6000610f1286828701610e00565b9350506020610f2386828701610e00565b9250506040610f3486828701610e36565b9150509250925092565b600060ff82169050919050565b610f5481610f3e565b82525050565b6000602082019050610f6f6000830184610f4b565b92915050565b600060208284031215610f8b57610f8a610db2565b5b6000610f9984828501610e00565b91505092915050565b60008060408385031215610fb957610fb8610db2565b5b6000610fc785828601610e00565b9250506020610fd885828601610e00565b9150509250929050565b7f4e487b7100000000000000000000000000000000000000000000000000000000600052602260045260246000fd5b6000600282049050600182168061102957607f821691505b6020821081141561103d5761103c610fe2565b5b50919050565b7f5468697320757365722068617320636c61696d65642061697264726f7020616c60008201527f7265616479000000000000000000000000000000000000000000000000000000602082015250565b600061109f602583610d02565b91506110aa82611043565b604082019050919050565b600060208201905081810360008301526110ce81611092565b9050919050565b7f4e487b7100000000000000000000000000000000000000000000000000000000600052601160045260246000fd5b600061110f82610e15565b915061111a83610e15565b9250827fffffffffffffffffffffffffffffffffffffffffffffffffffffffffffffffff0382111561114f5761114e6110d5565b5b828201905092915050565b7f45524332303a2064656372656173656420616c6c6f77616e63652062656c6f7760008201527f207a65726f000000000000000000000000000000000000000000000000000000602082015250565b60006111b6602583610d02565b91506111c18261115a565b604082019050919050565b600060208201905081810360008301526111e5816111a9565b9050919050565b7f45524332303a20617070726f76652066726f6d20746865207a65726f2061646460008201527f7265737300000000000000000000000000000000000000000000000000000000602082015250565b6000611248602483610d02565b9150611253826111ec565b604082019050919050565b600060208201905081810360008301526112778161123b565b9050919050565b7f45524332303a20617070726f766520746f20746865207a65726f20616464726560008201527f7373000000000000000000000000000000000000000000000000000000000000602082015250565b60006112da602283610d02565b91506112e58261127e565b604082019050919050565b60006020820190508181036000830152611309816112cd565b9050919050565b7f45524332303a20696e73756666696369656e7420616c6c6f77616e6365000000600082015250565b6000611346601d83610d02565b915061135182611310565b602082019050919050565b6000602082019050818103600083015261137581611339565b9050919050565b7f45524332303a207472616e736665722066726f6d20746865207a65726f20616460008201527f6472657373000000000000000000000000000000000000000000000000000000602082015250565b60006113d8602583610d02565b91506113e38261137c565b604082019050919050565b60006020820190508181036000830152611407816113cb565b9050919050565b7f45524332303a207472616e7366657220746f20746865207a65726f206164647260008201527f6573730000000000000000000000000000000000000000000000000000000000602082015250565b600061146a602383610d02565b91506114758261140e565b604082019050919050565b600060208201905081810360008301526114998161145d565b9050919050565b7f45524332303a207472616e7366657220616d6f756e742065786365656473206260008201527f616c616e63650000000000000000000000000000000000000000000000000000602082015250565b60006114fc602683610d02565b9150611507826114a0565b604082019050919050565b6000602082019050818103600083015261152b816114ef565b9050919050565b7f45524332303a206d696e7420746f20746865207a65726f206164647265737300600082015250565b6000611568601f83610d02565b915061157382611532565b602082019050919050565b600060208201905081810360008301526115978161155b565b905091905056fea2646970667358221220cd86beca8420cf3e22e59097910d37481febcabba611d75839b8c7a54dc707d064736f6c6343000809003360806040523480156200001157600080fd5b5060405162002b0338038062002b0383398181016040528101906200003791906200030b565b8181816000908051906020019062000051929190620000be565b5080600190805190602001906200006a929190620000be565b50505033600660006101000a81548173ffffffffffffffffffffffffffffffffffffffff021916908373ffffffffffffffffffffffffffffffffffffffff16021790555060006007819055505050620003f5565b828054620000cc90620003bf565b90600052602060002090601f016020900481019282620000f057600085556200013c565b82601f106200010b57805160ff19168380011785556200013c565b828001600101855582156200013c579182015b828111156200013b5782518255916020019190600101906200011e565b5b5090506200014b91906200014f565b5090565b5b808211156200016a57600081600090555060010162000150565b5090565b6000604051905090565b600080fd5b600080fd5b600080fd5b600080fd5b6000601f19601f8301169050919050565b7f4e487b7100000000000000000000000000000000000000000000000000000000600052604160045260246000fd5b620001d7826200018c565b810181811067ffffffffffffffff82111715620001f957620001f86200019d565b5b80604052505050565b60006200020e6200016e565b90506200021c8282620001cc565b919050565b600067ffffffffffffffff8211156200023f576200023e6200019d565b5b6200024a826200018c565b9050602081019050919050565b60005b83811015620002775780820151818401526020810190506200025a565b8381111562000287576000848401525b50505050565b6000620002a46200029e8462000221565b62000202565b905082815260208101848484011115620002c357620002c262000187565b5b620002d084828562000257565b509392505050565b600082601f830112620002f057620002ef62000182565b5b8151620003028482602086016200028d565b91505092915050565b6000806040838503121562000325576200032462000178565b5b600083015167ffffffffffffffff8111156200034657620003456200017d565b5b6200035485828601620002d8565b925050602083015167ffffffffffffffff8111156200037857620003776200017d565b5b6200038685828601620002d8565b9150509250929050565b7f4e487b7100000000000000000000000000000000000000000000000000000000600052602260045260246000fd5b60006002820490506001821680620003d857607f821691505b60208210811415620003ef57620003ee62000390565b5b50919050565b6126fe80620004056000396000f3fe608060405234801561001057600080fd5b50600436106101215760003560e01c8063481c6a75116100ad578063a22cb46511610071578063a22cb4651461032e578063b88d4fde1461034a578063c87b56dd14610366578063e985e9c514610396578063f1537686146103c657610121565b8063481c6a75146102625780634f6ccce7146102805780636352211e146102b057806370a08231146102e057806395d89b411461031057610121565b806318160ddd116100f457806318160ddd146101c057806323b872dd146101de5780632f745c59146101fa57806340c10f191461022a57806342842e0e1461024657610121565b806301ffc9a71461012657806306fdde0314610156578063081812fc14610174578063095ea7b3146101a4575b600080fd5b610140600480360381019061013b919061185d565b6103f6565b60405161014d91906118a5565b60405180910390f35b61015e6104d8565b60405161016b9190611959565b60405180910390f35b61018e600480360381019061018991906119b1565b61056a565b60405161019b9190611a1f565b60405180910390f35b6101be60048036038101906101b99190611a66565b6105b0565b005b6101c86106c8565b6040516101d59190611ab5565b60405180910390f35b6101f860048036038101906101f39190611ad0565b6106d2565b005b610214600480360381019061020f9190611a66565b610732565b6040516102219190611ab5565b60405180910390f35b610244600480360381019061023f9190611a66565b61073a565b005b610260600480360381019061025b9190611ad0565b610818565b005b61026a610838565b6040516102779190611a1f565b60405180910390f35b61029a600480360381019061029591906119b1565b61085e565b6040516102a79190611ab5565b60405180910390f35b6102ca60048036038101906102c591906119b1565b61087b565b6040516102d79190611a1f565b60405180910390f35b6102fa60048036038101906102f59190611b23565b61092d565b6040516103079190611ab5565b60405180910390f35b6103186109e5565b6040516103259190611959565b60405180910390f35b61034860048036038101906103439190611b7c565b610a77565b005b610364600480360381019061035f9190611cf1565b610a8d565b005b610380600480360381019061037b91906119b1565b610aef565b60405161038d9190611959565b60405180910390f35b6103b060048036038101906103ab9190611d74565b610b57565b6040516103bd91906118a5565b60405180910390f35b6103e060048036038101906103db9190611b23565b610beb565b6040516103ed9190611ab5565b60405180910390f35b60007f80ac58cd000000000000000000000000000000000000000000000000000000007bffffffffffffffffffffffffffffffffffffffffffffffffffffffff1916827bffffffffffffffffffffffffffffffffffffffffffffffffffffffff191614806104c157507f5b5e139f000000000000000000000000000000000000000000000000000000007bffffffffffffffffffffffffffffffffffffffffffffffffffffffff1916827bffffffffffffffffffffffffffffffffffffffffffffffffffffffff1916145b806104d157506104d082610c34565b5b9050919050565b6060600080546104e790611de3565b80601f016020809104026020016040519081016040528092919081815260200182805461051390611de3565b80156105605780601f1061053557610100808354040283529160200191610560565b820191906000526020600020905b81548152906001019060200180831161054357829003601f168201915b5050505050905090565b600061057582610c9e565b6004600083815260200190815260200160002060009054906101000a900473ffffffffffffffffffffffffffffffffffffffff169050919050565b60006105bb8261087b565b90508073ffffffffffffffffffffffffffffffffffffffff168373ffffffffffffffffffffffffffffffffffffffff16141561062c576040517f08c379a000000000000000000000000000000000000000000000000000000000815260040161062390611e87565b60405180910390fd5b8073ffffffffffffffffffffffffffffffffffffffff1661064b610ce9565b73ffffffffffffffffffffffffffffffffffffffff16148061067a575061067981610674610ce9565b610b57565b5b6106b9576040517f08c379a00000000000000000000000000000000000000000000000000000000081526004016106b090611f19565b60405180910390fd5b6106c38383610cf1565b505050565b6000600754905090565b6106e36106dd610ce9565b82610daa565b610722576040517f08c379a000000000000000000000000000000000000000000000000000000000815260040161071990611fab565b60405180910390fd5b61072d838383610e3f565b505050565b600092915050565b600660009054906101000a900473ffffffffffffffffffffffffffffffffffffffff1673ffffffffffffffffffffffffffffffffffffffff163373ffffffffffffffffffffffffffffffffffffffff161461079457600080fd5b61079e82826110a6565b80600960008473ffffffffffffffffffffffffffffffffffffffff1673ffffffffffffffffffffffffffffffffffffffff1681526020019081526020016000208190555080600860006007548152602001908152602001600020819055506007600081548092919061080f90611ffa565b91905055505050565b61083383838360405180602001604052806000815250610a8d565b505050565b600660009054906101000a900473ffffffffffffffffffffffffffffffffffffffff1681565b600060086000838152602001908152602001600020549050919050565b6000806002600084815260200190815260200160002060009054906101000a900473ffffffffffffffffffffffffffffffffffffffff169050600073ffffffffffffffffffffffffffffffffffffffff168173ffffffffffffffffffffffffffffffffffffffff161415610924576040517f08c379a000000000000000000000000000000000000000000000000000000000815260040161091b9061208f565b60405180910390fd5b80915050919050565b60008073ffffffffffffffffffffffffffffffffffffffff168273ffffffffffffffffffffffffffffffffffffffff16141561099e576040517f08c379a000000000000000000000000000000000000000000000000000000000815260040161099590612121565b60405180910390fd5b600360008373ffffffffffffffffffffffffffffffffffffffff1673ffffffffffffffffffffffffffffffffffffffff168152602001908152602001600020549050919050565b6060600180546109f490611de3565b80601f0160208091040260200160405190810160405280929190818152602001828054610a2090611de3565b8015610a6d5780601f10610a4257610100808354040283529160200191610a6d565b820191906000526020600020905b815481529060010190602001808311610a5057829003601f168201915b5050505050905090565b610a89610a82610ce9565b8383611280565b5050565b610a9e610a98610ce9565b83610daa565b610add576040517f08c379a0000000000000000000000000000000000000000000000000000000008152600401610ad490611fab565b60405180910390fd5b610ae9848484846113ed565b50505050565b6060610afa82610c9e565b6000610b04611449565b90506000815111610b245760405180602001604052806000815250610b4f565b80610b2e84611460565b604051602001610b3f92919061217d565b6040516020818303038152906040525b915050919050565b6000600560008473ffffffffffffffffffffffffffffffffffffffff1673ffffffffffffffffffffffffffffffffffffffff16815260200190815260200160002060008373ffffffffffffffffffffffffffffffffffffffff1673ffffffffffffffffffffffffffffffffffffffff16815260200190815260200160002060009054906101000a900460ff16905092915050565b6000600960008373ffffffffffffffffffffffffffffffffffffffff1673ffffffffffffffffffffffffffffffffffffffff168152602001908152602001600020549050919050565b60007f01ffc9a7000000000000000000000000000000000000000000000000000000007bffffffffffffffffffffffffffffffffffffffffffffffffffffffff1916827bffffffffffffffffffffffffffffffffffffffffffffffffffffffff1916149050919050565b610ca7816115c1565b610ce6576040517f08c379a0000000000000000000000000000000000000000000000000000000008152600401610cdd9061208f565b60405180910390fd5b50565b600033905090565b816004600083815260200190815260200160002060006101000a81548173ffffffffffffffffffffffffffffffffffffffff021916908373ffffffffffffffffffffffffffffffffffffffff160217905550808273ffffffffffffffffffffffffffffffffffffffff16610d648361087b565b73ffffffffffffffffffffffffffffffffffffffff167f8c5be1e5ebec7d5bd14f71427d1e84f3dd0314c0f7b2291e5b200ac8c7c3b92560405160405180910390a45050565b600080610db68361087b565b90508073ffffffffffffffffffffffffffffffffffffffff168473ffffffffffffffffffffffffffffffffffffffff161480610df85750610df78185610b57565b5b80610e3657508373ffffffffffffffffffffffffffffffffffffffff16610e1e8461056a565b73ffffffffffffffffffffffffffffffffffffffff16145b91505092915050565b8273ffffffffffffffffffffffffffffffffffffffff16610e5f8261087b565b73ffffffffffffffffffffffffffffffffffffffff1614610eb5576040517f08c379a0000000000000000000000000000000000000000000000000000000008152600401610eac90612213565b60405180910390fd5b600073ffffffffffffffffffffffffffffffffffffffff168273ffffffffffffffffffffffffffffffffffffffff161415610f25576040517f08c379a0000000000000000000000000000000000000000000000000000000008152600401610f1c906122a5565b60405180910390fd5b610f3083838361162d565b610f3b600082610cf1565b6001600360008573ffffffffffffffffffffffffffffffffffffffff1673ffffffffffffffffffffffffffffffffffffffff1681526020019081526020016000206000828254610f8b91906122c5565b925050819055506001600360008473ffffffffffffffffffffffffffffffffffffffff1673ffffffffffffffffffffffffffffffffffffffff1681526020019081526020016000206000828254610fe291906122f9565b92505081905550816002600083815260200190815260200160002060006101000a81548173ffffffffffffffffffffffffffffffffffffffff021916908373ffffffffffffffffffffffffffffffffffffffff160217905550808273ffffffffffffffffffffffffffffffffffffffff168473ffffffffffffffffffffffffffffffffffffffff167fddf252ad1be2c89b69c2b068fc378daa952ba7f163c4a11628f55a4df523b3ef60405160405180910390a46110a1838383611632565b505050565b600073ffffffffffffffffffffffffffffffffffffffff168273ffffffffffffffffffffffffffffffffffffffff161415611116576040517f08c379a000000000000000000000000000000000000000000000000000000000815260040161110d9061239b565b60405180910390fd5b61111f816115c1565b1561115f576040517f08c379a000000000000000000000000000000000000000000000000000000000815260040161115690612407565b60405180910390fd5b61116b6000838361162d565b6001600360008473ffffffffffffffffffffffffffffffffffffffff1673ffffffffffffffffffffffffffffffffffffffff16815260200190815260200160002060008282546111bb91906122f9565b92505081905550816002600083815260200190815260200160002060006101000a81548173ffffffffffffffffffffffffffffffffffffffff021916908373ffffffffffffffffffffffffffffffffffffffff160217905550808273ffffffffffffffffffffffffffffffffffffffff16600073ffffffffffffffffffffffffffffffffffffffff167fddf252ad1be2c89b69c2b068fc378daa952ba7f163c4a11628f55a4df523b3ef60405160405180910390a461127c60008383611632565b5050565b8173ffffffffffffffffffffffffffffffffffffffff168373ffffffffffffffffffffffffffffffffffffffff1614156112ef576040517f08c379a00000000000000000000000000000000000000000000000000000000081526004016112e690612473565b60405180910390fd5b80600560008573ffffffffffffffffffffffffffffffffffffffff1673ffffffffffffffffffffffffffffffffffffffff16815260200190815260200160002060008473ffffffffffffffffffffffffffffffffffffffff1673ffffffffffffffffffffffffffffffffffffffff16815260200190815260200160002060006101000a81548160ff0219169083151502179055508173ffffffffffffffffffffffffffffffffffffffff168373ffffffffffffffffffffffffffffffffffffffff167f17307eab39ab6107e8899845ad3d59bd9653f200f220920489ca2b5937696c31836040516113e091906118a5565b60405180910390a3505050565b6113f8848484610e3f565b61140484848484611637565b611443576040517f08c379a000000000000000000000000000000000000000000000000000000000815260040161143a90612505565b60405180910390fd5b50505050565b606060405180602001604052806000815250905090565b606060008214156114a8576040518060400160405280600181526020017f300000000000000000000000000000000000000000000000000000000000000081525090506115bc565b600082905060005b600082146114da5780806114c390611ffa565b915050600a826114d39190612554565b91506114b0565b60008167ffffffffffffffff8111156114f6576114f5611bc6565b5b6040519080825280601f01601f1916602001820160405280156115285781602001600182028036833780820191505090505b5090505b600085146115b55760018261154191906122c5565b9150600a856115509190612585565b603061155c91906122f9565b60f81b818381518110611572576115716125b6565b5b60200101907effffffffffffffffffffffffffffffffffffffffffffffffffffffffffffff1916908160001a905350600a856115ae9190612554565b945061152c565b8093505050505b919050565b60008073ffffffffffffffffffffffffffffffffffffffff166002600084815260200190815260200160002060009054906101000a900473ffffffffffffffffffffffffffffffffffffffff1673ffffffffffffffffffffffffffffffffffffffff1614159050919050565b505050565b505050565b60006116588473ffffffffffffffffffffffffffffffffffffffff166117ce565b156117c1578373ffffffffffffffffffffffffffffffffffffffff1663150b7a02611681610ce9565b8786866040518563ffffffff1660e01b81526004016116a3949392919061263a565b602060405180830381600087803b1580156116bd57600080fd5b505af19250505080156116ee57506040513d601f19601f820116820180604052508101906116eb919061269b565b60015b611771573d806000811461171e576040519150601f19603f3d011682016040523d82523d6000602084013e611723565b606091505b50600081511415611769576040517f08c379a000000000000000000000000000000000000000000000000000000000815260040161176090612505565b60405180910390fd5b805181602001fd5b63150b7a0260e01b7bffffffffffffffffffffffffffffffffffffffffffffffffffffffff1916817bffffffffffffffffffffffffffffffffffffffffffffffffffffffff1916149150506117c6565b600190505b949350505050565b6000808273ffffffffffffffffffffffffffffffffffffffff163b119050919050565b6000604051905090565b600080fd5b600080fd5b60007fffffffff0000000000000000000000000000000000000000000000000000000082169050919050565b61183a81611805565b811461184557600080fd5b50565b60008135905061185781611831565b92915050565b600060208284031215611873576118726117fb565b5b600061188184828501611848565b91505092915050565b60008115159050919050565b61189f8161188a565b82525050565b60006020820190506118ba6000830184611896565b92915050565b600081519050919050565b600082825260208201905092915050565b60005b838110156118fa5780820151818401526020810190506118df565b83811115611909576000848401525b50505050565b6000601f19601f8301169050919050565b600061192b826118c0565b61193581856118cb565b93506119458185602086016118dc565b61194e8161190f565b840191505092915050565b600060208201905081810360008301526119738184611920565b905092915050565b6000819050919050565b61198e8161197b565b811461199957600080fd5b50565b6000813590506119ab81611985565b92915050565b6000602082840312156119c7576119c66117fb565b5b60006119d58482850161199c565b91505092915050565b600073ffffffffffffffffffffffffffffffffffffffff82169050919050565b6000611a09826119de565b9050919050565b611a19816119fe565b82525050565b6000602082019050611a346000830184611a10565b92915050565b611a43816119fe565b8114611a4e57600080fd5b50565b600081359050611a6081611a3a565b92915050565b60008060408385031215611a7d57611a7c6117fb565b5b6000611a8b85828601611a51565b9250506020611a9c8582860161199c565b9150509250929050565b611aaf8161197b565b82525050565b6000602082019050611aca6000830184611aa6565b92915050565b600080600060608486031215611ae957611ae86117fb565b5b6000611af786828701611a51565b9350506020611b0886828701611a51565b9250506040611b198682870161199c565b9150509250925092565b600060208284031215611b3957611b386117fb565b5b6000611b4784828501611a51565b91505092915050565b611b598161188a565b8114611b6457600080fd5b50565b600081359050611b7681611b50565b92915050565b60008060408385031215611b9357611b926117fb565b5b6000611ba185828601611a51565b9250506020611bb285828601611b67565b9150509250929050565b600080fd5b600080fd5b7f4e487b7100000000000000000000000000000000000000000000000000000000600052604160045260246000fd5b611bfe8261190f565b810181811067ffffffffffffffff82111715611c1d57611c1c611bc6565b5b80604052505050565b6000611c306117f1565b9050611c3c8282611bf5565b919050565b600067ffffffffffffffff821115611c5c57611c5b611bc6565b5b611c658261190f565b9050602081019050919050565b82818337600083830152505050565b6000611c94611c8f84611c41565b611c26565b905082815260208101848484011115611cb057611caf611bc1565b5b611cbb848285611c72565b509392505050565b600082601f830112611cd857611cd7611bbc565b5b8135611ce8848260208601611c81565b91505092915050565b60008060008060808587031215611d0b57611d0a6117fb565b5b6000611d1987828801611a51565b9450506020611d2a87828801611a51565b9350506040611d3b8782880161199c565b925050606085013567ffffffffffffffff811115611d5c57611d5b611800565b5b611d6887828801611cc3565b91505092959194509250565b60008060408385031215611d8b57611d8a6117fb565b5b6000611d9985828601611a51565b9250506020611daa85828601611a51565b9150509250929050565b7f4e487b7100000000000000000000000000000000000000000000000000000000600052602260045260246000fd5b60006002820490506001821680611dfb57607f821691505b60208210811415611e0f57611e0e611db4565b5b50919050565b7f4552433732313a20617070726f76616c20746f2063757272656e74206f776e6560008201527f7200000000000000000000000000000000000000000000000000000000000000602082015250565b6000611e716021836118cb565b9150611e7c82611e15565b604082019050919050565b60006020820190508181036000830152611ea081611e64565b9050919050565b7f4552433732313a20617070726f76652063616c6c6572206973206e6f7420746f60008201527f6b656e206f776e6572206e6f7220617070726f76656420666f7220616c6c0000602082015250565b6000611f03603e836118cb565b9150611f0e82611ea7565b604082019050919050565b60006020820190508181036000830152611f3281611ef6565b9050919050565b7f4552433732313a2063616c6c6572206973206e6f7420746f6b656e206f776e6560008201527f72206e6f7220617070726f766564000000000000000000000000000000000000602082015250565b6000611f95602e836118cb565b9150611fa082611f39565b604082019050919050565b60006020820190508181036000830152611fc481611f88565b9050919050565b7f4e487b7100000000000000000000000000000000000000000000000000000000600052601160045260246000fd5b60006120058261197b565b91507fffffffffffffffffffffffffffffffffffffffffffffffffffffffffffffffff82141561203857612037611fcb565b5b600182019050919050565b7f4552433732313a20696e76616c696420746f6b656e2049440000000000000000600082015250565b60006120796018836118cb565b915061208482612043565b602082019050919050565b600060208201905081810360008301526120a88161206c565b9050919050565b7f4552433732313a2061646472657373207a65726f206973206e6f74206120766160008201527f6c6964206f776e65720000000000000000000000000000000000000000000000602082015250565b600061210b6029836118cb565b9150612116826120af565b604082019050919050565b6000602082019050818103600083015261213a816120fe565b9050919050565b600081905092915050565b6000612157826118c0565b6121618185612141565b93506121718185602086016118dc565b80840191505092915050565b6000612189828561214c565b9150612195828461214c565b91508190509392505050565b7f4552433732313a207472616e736665722066726f6d20696e636f72726563742060008201527f6f776e6572000000000000000000000000000000000000000000000000000000602082015250565b60006121fd6025836118cb565b9150612208826121a1565b604082019050919050565b6000602082019050818103600083015261222c816121f0565b9050919050565b7f4552433732313a207472616e7366657220746f20746865207a65726f2061646460008201527f7265737300000000000000000000000000000000000000000000000000000000602082015250565b600061228f6024836118cb565b915061229a82612233565b604082019050919050565b600060208201905081810360008301526122be81612282565b9050919050565b60006122d08261197b565b91506122db8361197b565b9250828210156122ee576122ed611fcb565b5b828203905092915050565b60006123048261197b565b915061230f8361197b565b9250827fffffffffffffffffffffffffffffffffffffffffffffffffffffffffffffffff0382111561234457612343611fcb565b5b828201905092915050565b7f4552433732313a206d696e7420746f20746865207a65726f2061646472657373600082015250565b60006123856020836118cb565b91506123908261234f565b602082019050919050565b600060208201905081810360008301526123b481612378565b9050919050565b7f4552433732313a20746f6b656e20616c7265616479206d696e74656400000000600082015250565b60006123f1601c836118cb565b91506123fc826123bb565b602082019050919050565b60006020820190508181036000830152612420816123e4565b9050919050565b7f4552433732313a20617070726f766520746f2063616c6c657200000000000000600082015250565b600061245d6019836118cb565b915061246882612427565b602082019050919050565b6000602082019050818103600083015261248c81612450565b9050919050565b7f4552433732313a207472616e7366657220746f206e6f6e20455243373231526560008201527f63656976657220696d706c656d656e7465720000000000000000000000000000602082015250565b60006124ef6032836118cb565b91506124fa82612493565b604082019050919050565b6000602082019050818103600083015261251e816124e2565b9050919050565b7f4e487b7100000000000000000000000000000000000000000000000000000000600052601260045260246000fd5b600061255f8261197b565b915061256a8361197b565b92508261257a57612579612525565b5b828204905092915050565b60006125908261197b565b915061259b8361197b565b9250826125ab576125aa612525565b5b828206905092915050565b7f4e487b7100000000000000000000000000000000000000000000000000000000600052603260045260246000fd5b600081519050919050565b600082825260208201905092915050565b600061260c826125e5565b61261681856125f0565b93506126268185602086016118dc565b61262f8161190f565b840191505092915050565b600060808201905061264f6000830187611a10565b61265c6020830186611a10565b6126696040830185611aa6565b818103606083015261267b8184612601565b905095945050505050565b60008151905061269581611831565b92915050565b6000602082840312156126b1576126b06117fb565b5b60006126bf84828501612686565b9150509291505056fea2646970667358221220be55a578333da936ab32e22ea740d2621ea73550938f1949bf539a0e7ae1f7a664736f6c63430008090033",
  "linkReferences": {},
  "deployedLinkReferences": {}
}