{
  "_format": "hh-sol-artifact-1",
  "contractName": "StudentSocietyDAO",
  "sourceName": "contracts/StudentSocietyDAO.sol",
  "abi": [
    {
      "inputs": [],
      "stateMutability": "nonpayable",
      "type": "constructor"
    },
    {
      "anonymous": false,
      "inputs": [
        {
          "indexed": false,
          "internalType": "uint32",
          "name": "proposalIndex",
          "type": "uint32"
        }
      ],
      "name": "ProposalInitiated",
      "type": "event"
    },
    {
      "inputs": [
        {
          "internalType": "uint32",
          "name": "index",
          "type": "uint32"
        }
      ],
      "name": "DecideProposal",
      "outputs": [],
      "stateMutability": "nonpayable",
      "type": "function"
    },
    {
      "inputs": [
        {
          "internalType": "uint32",
          "name": "amount",
          "type": "uint32"
        },
        {
          "internalType": "string",
          "name": "name",
          "type": "string"
        },
        {
          "internalType": "uint256",
          "name": "duration",
          "type": "uint256"
        },
        {
          "internalType": "string",
          "name": "proposerName",
          "type": "string"
        }
      ],
      "name": "createProposal",
      "outputs": [
        {
          "internalType": "uint32",
          "name": "proposalIndex",
          "type": "uint32"
        }
      ],
      "stateMutability": "nonpayable",
      "type": "function"
    },
    {
      "inputs": [
        {
          "internalType": "uint32",
          "name": "index",
          "type": "uint32"
        }
      ],
      "name": "getApprovement",
      "outputs": [
        {
          "internalType": "uint32",
          "name": "",
          "type": "uint32"
        }
      ],
      "stateMutability": "view",
      "type": "function"
    },
    {
      "inputs": [
        {
          "internalType": "uint32",
          "name": "index",
          "type": "uint32"
        }
      ],
      "name": "getDisapprovement",
      "outputs": [
        {
          "internalType": "uint32",
          "name": "",
          "type": "uint32"
        }
      ],
      "stateMutability": "view",
      "type": "function"
    },
    {
      "inputs": [
        {
          "internalType": "uint32",
          "name": "index",
          "type": "uint32"
        }
      ],
      "name": "getDuration",
      "outputs": [
        {
          "internalType": "uint256",
          "name": "",
          "type": "uint256"
        }
      ],
      "stateMutability": "view",
      "type": "function"
    },
    {
      "inputs": [
        {
          "internalType": "uint32",
          "name": "index",
          "type": "uint32"
        }
      ],
      "name": "getProposalName",
      "outputs": [
        {
          "internalType": "string",
          "name": "",
          "type": "string"
        }
      ],
      "stateMutability": "view",
      "type": "function"
    },
    {
      "inputs": [],
      "name": "getProposalNum",
      "outputs": [
        {
          "internalType": "uint256",
          "name": "",
          "type": "uint256"
        }
      ],
      "stateMutability": "view",
      "type": "function"
    },
    {
      "inputs": [],
      "name": "getProposeCost",
      "outputs": [
        {
          "internalType": "uint32",
          "name": "",
          "type": "uint32"
        }
      ],
      "stateMutability": "pure",
      "type": "function"
    },
    {
      "inputs": [
        {
          "internalType": "uint32",
          "name": "index",
          "type": "uint32"
        }
      ],
      "name": "getProposerAddress",
      "outputs": [
        {
          "internalType": "address",
          "name": "",
          "type": "address"
        }
      ],
      "stateMutability": "view",
      "type": "function"
    },
    {
      "inputs": [
        {
          "internalType": "uint32",
          "name": "index",
          "type": "uint32"
        }
      ],
      "name": "getProposerName",
      "outputs": [
        {
          "internalType": "string",
          "name": "",
          "type": "string"
        }
      ],
      "stateMutability": "view",
      "type": "function"
    },
    {
      "inputs": [
        {
          "internalType": "uint32",
          "name": "index",
          "type": "uint32"
        }
      ],
      "name": "getStartTime",
      "outputs": [
        {
          "internalType": "uint256",
          "name": "",
          "type": "uint256"
        }
      ],
      "stateMutability": "view",
      "type": "function"
    },
    {
      "inputs": [],
      "name": "getStudentNumber",
      "outputs": [
        {
          "internalType": "uint256",
          "name": "",
          "type": "uint256"
        }
      ],
      "stateMutability": "view",
      "type": "function"
    },
    {
      "inputs": [],
      "name": "getVoteCost",
      "outputs": [
        {
          "internalType": "uint32",
          "name": "",
          "type": "uint32"
        }
      ],
      "stateMutability": "pure",
      "type": "function"
    },
    {
      "inputs": [],
      "name": "manager",
      "outputs": [
        {
          "internalType": "address",
          "name": "",
          "type": "address"
        }
      ],
      "stateMutability": "view",
      "type": "function"
    },
    {
      "inputs": [
        {
          "internalType": "uint256",
          "name": "length",
          "type": "uint256"
        }
      ],
      "name": "rand_int256",
      "outputs": [
        {
          "internalType": "uint256",
          "name": "",
          "type": "uint256"
        }
      ],
      "stateMutability": "view",
      "type": "function"
    },
    {
      "inputs": [
        {
          "internalType": "uint256",
          "name": "startTime",
          "type": "uint256"
        },
        {
          "internalType": "uint256",
          "name": "duration",
          "type": "uint256"
        }
      ],
      "name": "setTimer",
      "outputs": [
        {
          "internalType": "bool",
          "name": "",
          "type": "bool"
        }
      ],
      "stateMutability": "view",
      "type": "function"
    },
    {
      "inputs": [
        {
          "internalType": "uint256",
          "name": "",
          "type": "uint256"
        }
      ],
      "name": "student",
      "outputs": [
        {
          "internalType": "address",
          "name": "",
          "type": "address"
        }
      ],
      "stateMutability": "view",
      "type": "function"
    },
    {
      "inputs": [],
      "name": "studentERC20",
      "outputs": [
        {
          "internalType": "contract MyERC20",
          "name": "",
          "type": "address"
        }
      ],
      "stateMutability": "view",
      "type": "function"
    },
    {
      "inputs": [],
      "name": "studentERC721",
      "outputs": [
        {
          "internalType": "contract MyERC721",
          "name": "",
          "type": "address"
        }
      ],
      "stateMutability": "view",
      "type": "function"
    },
    {
      "inputs": [
        {
          "internalType": "uint32",
          "name": "index",
          "type": "uint32"
        },
        {
          "internalType": "bool",
          "name": "vote_",
          "type": "bool"
        },
        {
          "internalType": "uint32",
          "name": "amount",
          "type": "uint32"
        }
      ],
      "name": "vote",
      "outputs": [],
      "stateMutability": "nonpayable",
      "type": "function"
    },
    {
      "inputs": [],
      "name": "winner",
      "outputs": [
        {
          "internalType": "address",
          "name": "",
          "type": "address"
        }
      ],
      "stateMutability": "view",
      "type": "function"
    }
  ],
  "bytecode": "0x60806040523480156200001157600080fd5b50604051620000209062000169565b6200002b9062000236565b604051809103906000f08015801562000048573d6000803e3d6000fd5b50600260006101000a81548173ffffffffffffffffffffffffffffffffffffffff021916908373ffffffffffffffffffffffffffffffffffffffff160217905550604051620000979062000177565b620000a290620002bd565b604051809103906000f080158015620000bf573d6000803e3d6000fd5b50600360006101000a81548173ffffffffffffffffffffffffffffffffffffffff021916908373ffffffffffffffffffffffffffffffffffffffff1602179055506000600360146101000a81548163ffffffff021916908363ffffffff16021790555033600460006101000a81548173ffffffffffffffffffffffffffffffffffffffff021916908373ffffffffffffffffffffffffffffffffffffffff160217905550620002f4565b611990806200254683390190565b612bac8062003ed683390190565b600082825260208201905092915050565b7f53747564656e7444414f00000000000000000000000000000000000000000000600082015250565b6000620001ce600a8362000185565b9150620001db8262000196565b602082019050919050565b7f4552430000000000000000000000000000000000000000000000000000000000600082015250565b60006200021e60038362000185565b91506200022b82620001e6565b602082019050919050565b600060408201905081810360008301526200025181620001bf565b9050818103602083015262000266816200020f565b9050919050565b7f4e46540000000000000000000000000000000000000000000000000000000000600082015250565b6000620002a560038362000185565b9150620002b2826200026d565b602082019050919050565b60006040820190508181036000830152620002d881620001bf565b90508181036020830152620002ed8162000296565b9050919050565b61224280620003046000396000f3fe608060405234801561001057600080fd5b50600436106101375760003560e01c80636c3fbb2d116100b8578063ae7ca1ac1161007c578063ae7ca1ac1461038a578063b1a27377146103ba578063df034001146103d8578063dfbf53ae14610408578063e3ce595514610426578063f5da27c41461045657610137565b80636c3fbb2d146102d257806381576ffb146102f057806385c2fe2414610320578063a427653314610350578063a44bd6b81461036e57610137565b806347ac2b31116100ff57806347ac2b3114610208578063481c6a75146102385780634c2ce94314610256578063550891da1461028657806359f00ddf146102a257610137565b8063163b4b051461013c5780632c41742a1461015a578063356f99991461018a57806335f34232146101ba5780633901d2d4146101ea575b600080fd5b610144610474565b6040516101519190611774565b60405180910390f35b610174600480360381019061016f91906117cf565b61047d565b6040516101819190611774565b60405180910390f35b6101a4600480360381019061019f91906117cf565b6104b9565b6040516101b19190611815565b60405180910390f35b6101d460048036038101906101cf919061185c565b6104e5565b6040516101e191906118ca565b60405180910390f35b6101f2610524565b6040516101ff9190611944565b60405180910390f35b610222600480360381019061021d919061185c565b61054a565b60405161022f9190611815565b60405180910390f35b61024061058f565b60405161024d91906118ca565b60405180910390f35b610270600480360381019061026b91906117cf565b6105b5565b60405161027d9190611774565b60405180910390f35b6102a0600480360381019061029b9190611997565b6105f1565b005b6102bc60048036038101906102b791906117cf565b610969565b6040516102c99190611815565b60405180910390f35b6102da610995565b6040516102e79190611a0b565b60405180910390f35b61030a60048036038101906103059190611b6c565b6109bb565b6040516103179190611774565b60405180910390f35b61033a600480360381019061033591906117cf565b610ec9565b60405161034791906118ca565b60405180910390f35b610358610f15565b6040516103659190611815565b60405180910390f35b610388600480360381019061038391906117cf565b610f35565b005b6103a4600480360381019061039f91906117cf565b6114e6565b6040516103b19190611c93565b60405180910390f35b6103c261159a565b6040516103cf9190611815565b60405180910390f35b6103f260048036038101906103ed9190611cb5565b6115a6565b6040516103ff9190611d04565b60405180910390f35b6104106115ce565b60405161041d91906118ca565b60405180910390f35b610440600480360381019061043b91906117cf565b6115f4565b60405161044d9190611c93565b60405180910390f35b61045e6116a8565b60405161046b9190611774565b60405180910390f35b60006064905090565b6000600560008363ffffffff1663ffffffff16815260200190815260200160002060050160009054906101000a900463ffffffff169050919050565b6000600560008363ffffffff1663ffffffff168152602001908152602001600020600101549050919050565b600081815481106104f557600080fd5b906000526020600020016000915054906101000a900473ffffffffffffffffffffffffffffffffffffffff1681565b600360009054906101000a900473ffffffffffffffffffffffffffffffffffffffff1681565b6000804244604051602001610560929190611d40565b6040516020818303038152906040528051906020012060001c905082816105879190611d9b565b915050919050565b600460009054906101000a900473ffffffffffffffffffffffffffffffffffffffff1681565b6000600560008363ffffffff1663ffffffff16815260200190815260200160002060050160049054906101000a900463ffffffff169050919050565b606463ffffffff168163ffffffff161015610641576040517f08c379a000000000000000000000000000000000000000000000000000000000815260040161063890611e3e565b60405180910390fd5b600360149054906101000a900463ffffffff1663ffffffff168363ffffffff1611806106bb5750600560008463ffffffff1663ffffffff16815260200190815260200160002060010154600560008563ffffffff1663ffffffff168152602001908152602001600020600201546106b89190611e8d565b42115b156106fb576040517f08c379a00000000000000000000000000000000000000000000000000000000081526004016106f290611f55565b60405180910390fd5b600260009054906101000a900473ffffffffffffffffffffffffffffffffffffffff1673ffffffffffffffffffffffffffffffffffffffff166323b872dd3330846040518463ffffffff1660e01b815260040161075a93929190611fa6565b602060405180830381600087803b15801561077457600080fd5b505af1158015610788573d6000803e3d6000fd5b505050506040513d601f19601f820116820180604052508101906107ac9190611ff2565b506000339080600181540180825580915050600190039060005260206000200160009091909190916101000a81548173ffffffffffffffffffffffffffffffffffffffff021916908373ffffffffffffffffffffffffffffffffffffffff1602179055506000600560008563ffffffff1663ffffffff1681526020019081526020016000209050821561088b57606482610846919061201f565b8160050160008282829054906101000a900463ffffffff166108689190612050565b92506101000a81548163ffffffff021916908363ffffffff1602179055506108d9565b606482610898919061201f565b8160050160048282829054906101000a900463ffffffff166108ba9190612050565b92506101000a81548163ffffffff021916908363ffffffff1602179055505b6064826108e6919061201f565b8160060160003373ffffffffffffffffffffffffffffffffffffffff1673ffffffffffffffffffffffffffffffffffffffff16815260200190815260200160002060008282829054906101000a900463ffffffff166109459190612050565b92506101000a81548163ffffffff021916908363ffffffff16021790555050505050565b6000600560008363ffffffff1663ffffffff168152602001908152602001600020600201549050919050565b600260009054906101000a900473ffffffffffffffffffffffffffffffffffffffff1681565b600061012c63ffffffff168563ffffffff161015610a0e576040517f08c379a0000000000000000000000000000000000000000000000000000000008152600401610a0590611e3e565b60405180910390fd5b600260009054906101000a900473ffffffffffffffffffffffffffffffffffffffff1673ffffffffffffffffffffffffffffffffffffffff166323b872dd3330886040518463ffffffff1660e01b8152600401610a6d93929190611fa6565b602060405180830381600087803b158015610a8757600080fd5b505af1158015610a9b573d6000803e3d6000fd5b505050506040513d601f19601f82011682018060405250810190610abf9190611ff2565b506003601481819054906101000a900463ffffffff1680929190610ae29061208a565b91906101000a81548163ffffffff021916908363ffffffff16021790555050600360149054906101000a900463ffffffff1660056000600360149054906101000a900463ffffffff1663ffffffff1663ffffffff16815260200190815260200160002060000160006101000a81548163ffffffff021916908363ffffffff1602179055508360056000600360149054906101000a900463ffffffff1663ffffffff1663ffffffff1681526020019081526020016000206003019080519060200190610bae9291906116b2565b503360056000600360149054906101000a900463ffffffff1663ffffffff1663ffffffff16815260200190815260200160002060000160046101000a81548173ffffffffffffffffffffffffffffffffffffffff021916908373ffffffffffffffffffffffffffffffffffffffff1602179055508160056000600360149054906101000a900463ffffffff1663ffffffff1663ffffffff1681526020019081526020016000206004019080519060200190610c6a9291906116b2565b50600060056000600360149054906101000a900463ffffffff1663ffffffff1663ffffffff16815260200190815260200160002060050160006101000a81548163ffffffff021916908363ffffffff160217905550600060056000600360149054906101000a900463ffffffff1663ffffffff1663ffffffff16815260200190815260200160002060050160046101000a81548163ffffffff021916908363ffffffff1602179055504260056000600360149054906101000a900463ffffffff1663ffffffff1663ffffffff168152602001908152602001600020600101819055508260056000600360149054906101000a900463ffffffff1663ffffffff1663ffffffff16815260200190815260200160002060020181905550600060056000600360149054906101000a900463ffffffff1663ffffffff1663ffffffff16815260200190815260200160002060060160003373ffffffffffffffffffffffffffffffffffffffff1673ffffffffffffffffffffffffffffffffffffffff16815260200190815260200160002060006101000a81548163ffffffff021916908363ffffffff160217905550600060056000600360149054906101000a900463ffffffff1663ffffffff1663ffffffff16815260200190815260200160002060070160006101000a81548160ff0219169083151502179055507f944f5ef0a446d54c41ea39dac07de1fd2150ec3346cbff6c627d1ffba048676c600360149054906101000a900463ffffffff16604051610ea49190611774565b60405180910390a1600360149054906101000a900463ffffffff169050949350505050565b6000600560008363ffffffff1663ffffffff16815260200190815260200160002060000160049054906101000a900473ffffffffffffffffffffffffffffffffffffffff169050919050565b6000600360149054906101000a900463ffffffff1663ffffffff16905090565b600560008263ffffffff1663ffffffff16815260200190815260200160002060020154600560008363ffffffff1663ffffffff16815260200190815260200160002060010154610f859190611e8d565b421015610f9157600080fd5b60001515600560008363ffffffff1663ffffffff16815260200190815260200160002060070160009054906101000a900460ff16151514610fd157600080fd5b6001600560008363ffffffff1663ffffffff16815260200190815260200160002060070160006101000a81548160ff021916908315150217905550600560008263ffffffff1663ffffffff16815260200190815260200160002060050160049054906101000a900463ffffffff1663ffffffff16600560008363ffffffff1663ffffffff16815260200190815260200160002060050160009054906101000a900463ffffffff1663ffffffff16106114e357600160066000600560008563ffffffff1663ffffffff16815260200190815260200160002060000160049054906101000a900473ffffffffffffffffffffffffffffffffffffffff1673ffffffffffffffffffffffffffffffffffffffff1673ffffffffffffffffffffffffffffffffffffffff16815260200190815260200160002060008282829054906101000a900463ffffffff166111249190612050565b92506101000a81548163ffffffff021916908363ffffffff160217905550600260009054906101000a900473ffffffffffffffffffffffffffffffffffffffff1673ffffffffffffffffffffffffffffffffffffffff1663a9059cbb600560008463ffffffff1663ffffffff16815260200190815260200160002060000160049054906101000a900473ffffffffffffffffffffffffffffffffffffffff166064600560008663ffffffff1663ffffffff16815260200190815260200160002060050160009054906101000a900463ffffffff1661120291906120b7565b6040518363ffffffff1660e01b815260040161121f9291906120f5565b602060405180830381600087803b15801561123957600080fd5b505af115801561124d573d6000803e3d6000fd5b505050506040513d601f19601f820116820180604052508101906112719190611ff2565b50600360066000600560008563ffffffff1663ffffffff16815260200190815260200160002060000160049054906101000a900473ffffffffffffffffffffffffffffffffffffffff1673ffffffffffffffffffffffffffffffffffffffff1673ffffffffffffffffffffffffffffffffffffffff16815260200190815260200160002060009054906101000a900463ffffffff1663ffffffff1614156114e257600360009054906101000a900473ffffffffffffffffffffffffffffffffffffffff1673ffffffffffffffffffffffffffffffffffffffff166340c10f19600560008463ffffffff1663ffffffff16815260200190815260200160002060000160049054906101000a900473ffffffffffffffffffffffffffffffffffffffff1661139e61271061054a565b6040518363ffffffff1660e01b81526004016113bb92919061211e565b600060405180830381600087803b1580156113d557600080fd5b505af11580156113e9573d6000803e3d6000fd5b50505050600260009054906101000a900473ffffffffffffffffffffffffffffffffffffffff1673ffffffffffffffffffffffffffffffffffffffff1663a9059cbb600560008463ffffffff1663ffffffff16815260200190815260200160002060000160049054906101000a900473ffffffffffffffffffffffffffffffffffffffff166101f46040518363ffffffff1660e01b815260040161148e929190612182565b602060405180830381600087803b1580156114a857600080fd5b505af11580156114bc573d6000803e3d6000fd5b505050506040513d601f19601f820116820180604052508101906114e09190611ff2565b505b5b50565b6060600560008363ffffffff1663ffffffff1681526020019081526020016000206004018054611515906121da565b80601f0160208091040260200160405190810160405280929190818152602001828054611541906121da565b801561158e5780601f106115635761010080835404028352916020019161158e565b820191906000526020600020905b81548152906001019060200180831161157157829003601f168201915b50505050509050919050565b60008080549050905090565b600082826115b49190611e8d565b42106115c357600190506115c8565b600090505b92915050565b600160009054906101000a900473ffffffffffffffffffffffffffffffffffffffff1681565b6060600560008363ffffffff1663ffffffff1681526020019081526020016000206003018054611623906121da565b80601f016020809104026020016040519081016040528092919081815260200182805461164f906121da565b801561169c5780601f106116715761010080835404028352916020019161169c565b820191906000526020600020905b81548152906001019060200180831161167f57829003601f168201915b50505050509050919050565b600061012c905090565b8280546116be906121da565b90600052602060002090601f0160209004810192826116e05760008555611727565b82601f106116f957805160ff1916838001178555611727565b82800160010185558215611727579182015b8281111561172657825182559160200191906001019061170b565b5b5090506117349190611738565b5090565b5b80821115611751576000816000905550600101611739565b5090565b600063ffffffff82169050919050565b61176e81611755565b82525050565b60006020820190506117896000830184611765565b92915050565b6000604051905090565b600080fd5b600080fd5b6117ac81611755565b81146117b757600080fd5b50565b6000813590506117c9816117a3565b92915050565b6000602082840312156117e5576117e4611799565b5b60006117f3848285016117ba565b91505092915050565b6000819050919050565b61180f816117fc565b82525050565b600060208201905061182a6000830184611806565b92915050565b611839816117fc565b811461184457600080fd5b50565b60008135905061185681611830565b92915050565b60006020828403121561187257611871611799565b5b600061188084828501611847565b91505092915050565b600073ffffffffffffffffffffffffffffffffffffffff82169050919050565b60006118b482611889565b9050919050565b6118c4816118a9565b82525050565b60006020820190506118df60008301846118bb565b92915050565b6000819050919050565b600061190a61190561190084611889565b6118e5565b611889565b9050919050565b600061191c826118ef565b9050919050565b600061192e82611911565b9050919050565b61193e81611923565b82525050565b60006020820190506119596000830184611935565b92915050565b60008115159050919050565b6119748161195f565b811461197f57600080fd5b50565b6000813590506119918161196b565b92915050565b6000806000606084860312156119b0576119af611799565b5b60006119be868287016117ba565b93505060206119cf86828701611982565b92505060406119e0868287016117ba565b9150509250925092565b60006119f582611911565b9050919050565b611a05816119ea565b82525050565b6000602082019050611a2060008301846119fc565b92915050565b600080fd5b600080fd5b6000601f19601f8301169050919050565b7f4e487b7100000000000000000000000000000000000000000000000000000000600052604160045260246000fd5b611a7982611a30565b810181811067ffffffffffffffff82111715611a9857611a97611a41565b5b80604052505050565b6000611aab61178f565b9050611ab78282611a70565b919050565b600067ffffffffffffffff821115611ad757611ad6611a41565b5b611ae082611a30565b9050602081019050919050565b82818337600083830152505050565b6000611b0f611b0a84611abc565b611aa1565b905082815260208101848484011115611b2b57611b2a611a2b565b5b611b36848285611aed565b509392505050565b600082601f830112611b5357611b52611a26565b5b8135611b63848260208601611afc565b91505092915050565b60008060008060808587031215611b8657611b85611799565b5b6000611b94878288016117ba565b945050602085013567ffffffffffffffff811115611bb557611bb461179e565b5b611bc187828801611b3e565b9350506040611bd287828801611847565b925050606085013567ffffffffffffffff811115611bf357611bf261179e565b5b611bff87828801611b3e565b91505092959194509250565b600081519050919050565b600082825260208201905092915050565b60005b83811015611c45578082015181840152602081019050611c2a565b83811115611c54576000848401525b50505050565b6000611c6582611c0b565b611c6f8185611c16565b9350611c7f818560208601611c27565b611c8881611a30565b840191505092915050565b60006020820190508181036000830152611cad8184611c5a565b905092915050565b60008060408385031215611ccc57611ccb611799565b5b6000611cda85828601611847565b9250506020611ceb85828601611847565b9150509250929050565b611cfe8161195f565b82525050565b6000602082019050611d196000830184611cf5565b92915050565b6000819050919050565b611d3a611d35826117fc565b611d1f565b82525050565b6000611d4c8285611d29565b602082019150611d5c8284611d29565b6020820191508190509392505050565b7f4e487b7100000000000000000000000000000000000000000000000000000000600052601260045260246000fd5b6000611da6826117fc565b9150611db1836117fc565b925082611dc157611dc0611d6c565b5b828206905092915050565b7f556e6166666f726461626c652120506c6561736520676574206d6f726520746f60008201527f6b656e0000000000000000000000000000000000000000000000000000000000602082015250565b6000611e28602383611c16565b9150611e3382611dcc565b604082019050919050565b60006020820190508181036000830152611e5781611e1b565b9050919050565b7f4e487b7100000000000000000000000000000000000000000000000000000000600052601160045260246000fd5b6000611e98826117fc565b9150611ea3836117fc565b9250827fffffffffffffffffffffffffffffffffffffffffffffffffffffffffffffffff03821115611ed857611ed7611e5e565b5b828201905092915050565b7f50726f706f73616c206e6f7420666f756e642e204974206d617920686173206560008201527f6e64656421000000000000000000000000000000000000000000000000000000602082015250565b6000611f3f602583611c16565b9150611f4a82611ee3565b604082019050919050565b60006020820190508181036000830152611f6e81611f32565b9050919050565b6000611f90611f8b611f8684611755565b6118e5565b6117fc565b9050919050565b611fa081611f75565b82525050565b6000606082019050611fbb60008301866118bb565b611fc860208301856118bb565b611fd56040830184611f97565b949350505050565b600081519050611fec8161196b565b92915050565b60006020828403121561200857612007611799565b5b600061201684828501611fdd565b91505092915050565b600061202a82611755565b915061203583611755565b92508261204557612044611d6c565b5b828204905092915050565b600061205b82611755565b915061206683611755565b92508263ffffffff0382111561207f5761207e611e5e565b5b828201905092915050565b600061209582611755565b915063ffffffff8214156120ac576120ab611e5e565b5b600182019050919050565b60006120c282611755565b91506120cd83611755565b92508163ffffffff04831182151516156120ea576120e9611e5e565b5b828202905092915050565b600060408201905061210a60008301856118bb565b6121176020830184611f97565b9392505050565b600060408201905061213360008301856118bb565b6121406020830184611806565b9392505050565b6000819050919050565b600061216c61216761216284612147565b6118e5565b6117fc565b9050919050565b61217c81612151565b82525050565b600060408201905061219760008301856118bb565b6121a46020830184612173565b9392505050565b7f4e487b7100000000000000000000000000000000000000000000000000000000600052602260045260246000fd5b600060028204905060018216806121f257607f821691505b60208210811415612206576122056121ab565b5b5091905056fea26469706673582212206ad7d0c2522eff3f8eca4de9f3309646d0ef1f156b8515cb5f718a374e9f1f8664736f6c6343000809003360806040523480156200001157600080fd5b5060405162001990380380620019908339818101604052810190620000379190620002c2565b818181600390805190602001906200005192919062000075565b5080600490805190602001906200006a92919062000075565b5050505050620003ac565b828054620000839062000376565b90600052602060002090601f016020900481019282620000a75760008555620000f3565b82601f10620000c257805160ff1916838001178555620000f3565b82800160010185558215620000f3579182015b82811115620000f2578251825591602001919060010190620000d5565b5b50905062000102919062000106565b5090565b5b808211156200012157600081600090555060010162000107565b5090565b6000604051905090565b600080fd5b600080fd5b600080fd5b600080fd5b6000601f19601f8301169050919050565b7f4e487b7100000000000000000000000000000000000000000000000000000000600052604160045260246000fd5b6200018e8262000143565b810181811067ffffffffffffffff82111715620001b057620001af62000154565b5b80604052505050565b6000620001c562000125565b9050620001d3828262000183565b919050565b600067ffffffffffffffff821115620001f657620001f562000154565b5b620002018262000143565b9050602081019050919050565b60005b838110156200022e57808201518184015260208101905062000211565b838111156200023e576000848401525b50505050565b60006200025b6200025584620001d8565b620001b9565b9050828152602081018484840111156200027a57620002796200013e565b5b620002878482856200020e565b509392505050565b600082601f830112620002a757620002a662000139565b5b8151620002b984826020860162000244565b91505092915050565b60008060408385031215620002dc57620002db6200012f565b5b600083015167ffffffffffffffff811115620002fd57620002fc62000134565b5b6200030b858286016200028f565b925050602083015167ffffffffffffffff8111156200032f576200032e62000134565b5b6200033d858286016200028f565b9150509250929050565b7f4e487b7100000000000000000000000000000000000000000000000000000000600052602260045260246000fd5b600060028204905060018216806200038f57607f821691505b60208210811415620003a657620003a562000347565b5b50919050565b6115d480620003bc6000396000f3fe608060405234801561001057600080fd5b50600436106100b45760003560e01c80633950935111610071578063395093511461017d57806370a08231146101ad57806395d89b41146101dd578063a457c2d7146101fb578063a9059cbb1461022b578063dd62ed3e1461025b576100b4565b806306fdde03146100b9578063095ea7b3146100d757806318160ddd1461010757806323b872dd14610125578063313ce567146101555780633884d63514610173575b600080fd5b6100c161028b565b6040516100ce9190610d90565b60405180910390f35b6100f160048036038101906100ec9190610e4b565b61031d565b6040516100fe9190610ea6565b60405180910390f35b61010f610340565b60405161011c9190610ed0565b60405180910390f35b61013f600480360381019061013a9190610eeb565b61034a565b60405161014c9190610ea6565b60405180910390f35b61015d610379565b60405161016a9190610f5a565b60405180910390f35b61017b610382565b005b61019760048036038101906101929190610e4b565b61047b565b6040516101a49190610ea6565b60405180910390f35b6101c760048036038101906101c29190610f75565b6104b2565b6040516101d49190610ed0565b60405180910390f35b6101e56104fa565b6040516101f29190610d90565b60405180910390f35b61021560048036038101906102109190610e4b565b61058c565b6040516102229190610ea6565b60405180910390f35b61024560048036038101906102409190610e4b565b610603565b6040516102529190610ea6565b60405180910390f35b61027560048036038101906102709190610fa2565b610626565b6040516102829190610ed0565b60405180910390f35b60606003805461029a90611011565b80601f01602080910402602001604051908101604052809291908181526020018280546102c690611011565b80156103135780601f106102e857610100808354040283529160200191610313565b820191906000526020600020905b8154815290600101906020018083116102f657829003601f168201915b5050505050905090565b6000806103286106ad565b90506103358185856106b5565b600191505092915050565b6000600254905090565b6000806103556106ad565b9050610362858285610880565b61036d85858561090c565b60019150509392505050565b60006012905090565b60001515600560003373ffffffffffffffffffffffffffffffffffffffff1673ffffffffffffffffffffffffffffffffffffffff16815260200190815260200160002060009054906101000a900460ff16151514610415576040517f08c379a000000000000000000000000000000000000000000000000000000000815260040161040c906110b5565b60405180910390fd5b610421336103e8610b8d565b6001600560003373ffffffffffffffffffffffffffffffffffffffff1673ffffffffffffffffffffffffffffffffffffffff16815260200190815260200160002060006101000a81548160ff021916908315150217905550565b6000806104866106ad565b90506104a78185856104988589610626565b6104a29190611104565b6106b5565b600191505092915050565b60008060008373ffffffffffffffffffffffffffffffffffffffff1673ffffffffffffffffffffffffffffffffffffffff168152602001908152602001600020549050919050565b60606004805461050990611011565b80601f016020809104026020016040519081016040528092919081815260200182805461053590611011565b80156105825780601f1061055757610100808354040283529160200191610582565b820191906000526020600020905b81548152906001019060200180831161056557829003601f168201915b5050505050905090565b6000806105976106ad565b905060006105a58286610626565b9050838110156105ea576040517f08c379a00000000000000000000000000000000000000000000000000000000081526004016105e1906111cc565b60405180910390fd5b6105f782868684036106b5565b60019250505092915050565b60008061060e6106ad565b905061061b81858561090c565b600191505092915050565b6000600160008473ffffffffffffffffffffffffffffffffffffffff1673ffffffffffffffffffffffffffffffffffffffff16815260200190815260200160002060008373ffffffffffffffffffffffffffffffffffffffff1673ffffffffffffffffffffffffffffffffffffffff16815260200190815260200160002054905092915050565b600033905090565b600073ffffffffffffffffffffffffffffffffffffffff168373ffffffffffffffffffffffffffffffffffffffff161415610725576040517f08c379a000000000000000000000000000000000000000000000000000000000815260040161071c9061125e565b60405180910390fd5b600073ffffffffffffffffffffffffffffffffffffffff168273ffffffffffffffffffffffffffffffffffffffff161415610795576040517f08c379a000000000000000000000000000000000000000000000000000000000815260040161078c906112f0565b60405180910390fd5b80600160008573ffffffffffffffffffffffffffffffffffffffff1673ffffffffffffffffffffffffffffffffffffffff16815260200190815260200160002060008473ffffffffffffffffffffffffffffffffffffffff1673ffffffffffffffffffffffffffffffffffffffff168152602001908152602001600020819055508173ffffffffffffffffffffffffffffffffffffffff168373ffffffffffffffffffffffffffffffffffffffff167f8c5be1e5ebec7d5bd14f71427d1e84f3dd0314c0f7b2291e5b200ac8c7c3b925836040516108739190610ed0565b60405180910390a3505050565b600061088c8484610626565b90507fffffffffffffffffffffffffffffffffffffffffffffffffffffffffffffffff811461090657818110156108f8576040517f08c379a00000000000000000000000000000000000000000000000000000000081526004016108ef9061135c565b60405180910390fd5b61090584848484036106b5565b5b50505050565b600073ffffffffffffffffffffffffffffffffffffffff168373ffffffffffffffffffffffffffffffffffffffff16141561097c576040517f08c379a0000000000000000000000000000000000000000000000000000000008152600401610973906113ee565b60405180910390fd5b600073ffffffffffffffffffffffffffffffffffffffff168273ffffffffffffffffffffffffffffffffffffffff1614156109ec576040517f08c379a00000000000000000000000000000000000000000000000000000000081526004016109e390611480565b60405180910390fd5b6109f7838383610ced565b60008060008573ffffffffffffffffffffffffffffffffffffffff1673ffffffffffffffffffffffffffffffffffffffff16815260200190815260200160002054905081811015610a7d576040517f08c379a0000000000000000000000000000000000000000000000000000000008152600401610a7490611512565b60405180910390fd5b8181036000808673ffffffffffffffffffffffffffffffffffffffff1673ffffffffffffffffffffffffffffffffffffffff16815260200190815260200160002081905550816000808573ffffffffffffffffffffffffffffffffffffffff1673ffffffffffffffffffffffffffffffffffffffff1681526020019081526020016000206000828254610b109190611104565b925050819055508273ffffffffffffffffffffffffffffffffffffffff168473ffffffffffffffffffffffffffffffffffffffff167fddf252ad1be2c89b69c2b068fc378daa952ba7f163c4a11628f55a4df523b3ef84604051610b749190610ed0565b60405180910390a3610b87848484610cf2565b50505050565b600073ffffffffffffffffffffffffffffffffffffffff168273ffffffffffffffffffffffffffffffffffffffff161415610bfd576040517f08c379a0000000000000000000000000000000000000000000000000000000008152600401610bf49061157e565b60405180910390fd5b610c0960008383610ced565b8060026000828254610c1b9190611104565b92505081905550806000808473ffffffffffffffffffffffffffffffffffffffff1673ffffffffffffffffffffffffffffffffffffffff1681526020019081526020016000206000828254610c709190611104565b925050819055508173ffffffffffffffffffffffffffffffffffffffff16600073ffffffffffffffffffffffffffffffffffffffff167fddf252ad1be2c89b69c2b068fc378daa952ba7f163c4a11628f55a4df523b3ef83604051610cd59190610ed0565b60405180910390a3610ce960008383610cf2565b5050565b505050565b505050565b600081519050919050565b600082825260208201905092915050565b60005b83811015610d31578082015181840152602081019050610d16565b83811115610d40576000848401525b50505050565b6000601f19601f8301169050919050565b6000610d6282610cf7565b610d6c8185610d02565b9350610d7c818560208601610d13565b610d8581610d46565b840191505092915050565b60006020820190508181036000830152610daa8184610d57565b905092915050565b600080fd5b600073ffffffffffffffffffffffffffffffffffffffff82169050919050565b6000610de282610db7565b9050919050565b610df281610dd7565b8114610dfd57600080fd5b50565b600081359050610e0f81610de9565b92915050565b6000819050919050565b610e2881610e15565b8114610e3357600080fd5b50565b600081359050610e4581610e1f565b92915050565b60008060408385031215610e6257610e61610db2565b5b6000610e7085828601610e00565b9250506020610e8185828601610e36565b9150509250929050565b60008115159050919050565b610ea081610e8b565b82525050565b6000602082019050610ebb6000830184610e97565b92915050565b610eca81610e15565b82525050565b6000602082019050610ee56000830184610ec1565b92915050565b600080600060608486031215610f0457610f03610db2565b5b6000610f1286828701610e00565b9350506020610f2386828701610e00565b9250506040610f3486828701610e36565b9150509250925092565b600060ff82169050919050565b610f5481610f3e565b82525050565b6000602082019050610f6f6000830184610f4b565b92915050565b600060208284031215610f8b57610f8a610db2565b5b6000610f9984828501610e00565b91505092915050565b60008060408385031215610fb957610fb8610db2565b5b6000610fc785828601610e00565b9250506020610fd885828601610e00565b9150509250929050565b7f4e487b7100000000000000000000000000000000000000000000000000000000600052602260045260246000fd5b6000600282049050600182168061102957607f821691505b6020821081141561103d5761103c610fe2565b5b50919050565b7f5468697320757365722068617320636c61696d65642061697264726f7020616c60008201527f7265616479000000000000000000000000000000000000000000000000000000602082015250565b600061109f602583610d02565b91506110aa82611043565b604082019050919050565b600060208201905081810360008301526110ce81611092565b9050919050565b7f4e487b7100000000000000000000000000000000000000000000000000000000600052601160045260246000fd5b600061110f82610e15565b915061111a83610e15565b9250827fffffffffffffffffffffffffffffffffffffffffffffffffffffffffffffffff0382111561114f5761114e6110d5565b5b828201905092915050565b7f45524332303a2064656372656173656420616c6c6f77616e63652062656c6f7760008201527f207a65726f000000000000000000000000000000000000000000000000000000602082015250565b60006111b6602583610d02565b91506111c18261115a565b604082019050919050565b600060208201905081810360008301526111e5816111a9565b9050919050565b7f45524332303a20617070726f76652066726f6d20746865207a65726f2061646460008201527f7265737300000000000000000000000000000000000000000000000000000000602082015250565b6000611248602483610d02565b9150611253826111ec565b604082019050919050565b600060208201905081810360008301526112778161123b565b9050919050565b7f45524332303a20617070726f766520746f20746865207a65726f20616464726560008201527f7373000000000000000000000000000000000000000000000000000000000000602082015250565b60006112da602283610d02565b91506112e58261127e565b604082019050919050565b60006020820190508181036000830152611309816112cd565b9050919050565b7f45524332303a20696e73756666696369656e7420616c6c6f77616e6365000000600082015250565b6000611346601d83610d02565b915061135182611310565b602082019050919050565b6000602082019050818103600083015261137581611339565b9050919050565b7f45524332303a207472616e736665722066726f6d20746865207a65726f20616460008201527f6472657373000000000000000000000000000000000000000000000000000000602082015250565b60006113d8602583610d02565b91506113e38261137c565b604082019050919050565b60006020820190508181036000830152611407816113cb565b9050919050565b7f45524332303a207472616e7366657220746f20746865207a65726f206164647260008201527f6573730000000000000000000000000000000000000000000000000000000000602082015250565b600061146a602383610d02565b91506114758261140e565b604082019050919050565b600060208201905081810360008301526114998161145d565b9050919050565b7f45524332303a207472616e7366657220616d6f756e742065786365656473206260008201527f616c616e63650000000000000000000000000000000000000000000000000000602082015250565b60006114fc602683610d02565b9150611507826114a0565b604082019050919050565b6000602082019050818103600083015261152b816114ef565b9050919050565b7f45524332303a206d696e7420746f20746865207a65726f206164647265737300600082015250565b6000611568601f83610d02565b915061157382611532565b602082019050919050565b600060208201905081810360008301526115978161155b565b905091905056fea264697066735822122038a0359e3f52e99756755c91b521261ff2ac9e3b527fc1025df6d75e9922132164736f6c6343000809003360806040523480156200001157600080fd5b5060405162002bac38038062002bac83398181016040528101906200003791906200030b565b8181816000908051906020019062000051929190620000be565b5080600190805190602001906200006a929190620000be565b50505033600660006101000a81548173ffffffffffffffffffffffffffffffffffffffff021916908373ffffffffffffffffffffffffffffffffffffffff16021790555060006007819055505050620003f5565b828054620000cc90620003bf565b90600052602060002090601f016020900481019282620000f057600085556200013c565b82601f106200010b57805160ff19168380011785556200013c565b828001600101855582156200013c579182015b828111156200013b5782518255916020019190600101906200011e565b5b5090506200014b91906200014f565b5090565b5b808211156200016a57600081600090555060010162000150565b5090565b6000604051905090565b600080fd5b600080fd5b600080fd5b600080fd5b6000601f19601f8301169050919050565b7f4e487b7100000000000000000000000000000000000000000000000000000000600052604160045260246000fd5b620001d7826200018c565b810181811067ffffffffffffffff82111715620001f957620001f86200019d565b5b80604052505050565b60006200020e6200016e565b90506200021c8282620001cc565b919050565b600067ffffffffffffffff8211156200023f576200023e6200019d565b5b6200024a826200018c565b9050602081019050919050565b60005b83811015620002775780820151818401526020810190506200025a565b8381111562000287576000848401525b50505050565b6000620002a46200029e8462000221565b62000202565b905082815260208101848484011115620002c357620002c262000187565b5b620002d084828562000257565b509392505050565b600082601f830112620002f057620002ef62000182565b5b8151620003028482602086016200028d565b91505092915050565b6000806040838503121562000325576200032462000178565b5b600083015167ffffffffffffffff8111156200034657620003456200017d565b5b6200035485828601620002d8565b925050602083015167ffffffffffffffff8111156200037857620003776200017d565b5b6200038685828601620002d8565b9150509250929050565b7f4e487b7100000000000000000000000000000000000000000000000000000000600052602260045260246000fd5b60006002820490506001821680620003d857607f821691505b60208210811415620003ef57620003ee62000390565b5b50919050565b6127a780620004056000396000f3fe608060405234801561001057600080fd5b50600436106101165760003560e01c8063481c6a75116100a257806395d89b411161007157806395d89b4114610305578063a22cb46514610323578063b88d4fde1461033f578063c87b56dd1461035b578063e985e9c51461038b57610116565b8063481c6a75146102575780634f6ccce7146102755780636352211e146102a557806370a08231146102d557610116565b806318160ddd116100e957806318160ddd146101b557806323b872dd146101d35780632f745c59146101ef57806340c10f191461021f57806342842e0e1461023b57610116565b806301ffc9a71461011b57806306fdde031461014b578063081812fc14610169578063095ea7b314610199575b600080fd5b6101356004803603810190610130919061189a565b6103bb565b60405161014291906118e2565b60405180910390f35b61015361049d565b6040516101609190611996565b60405180910390f35b610183600480360381019061017e91906119ee565b61052f565b6040516101909190611a5c565b60405180910390f35b6101b360048036038101906101ae9190611aa3565b610575565b005b6101bd61068d565b6040516101ca9190611af2565b60405180910390f35b6101ed60048036038101906101e89190611b0d565b610697565b005b61020960048036038101906102049190611aa3565b6106f7565b6040516102169190611af2565b60405180910390f35b61023960048036038101906102349190611aa3565b6106ff565b005b61025560048036038101906102509190611b0d565b610878565b005b61025f610898565b60405161026c9190611a5c565b60405180910390f35b61028f600480360381019061028a91906119ee565b6108be565b60405161029c9190611af2565b60405180910390f35b6102bf60048036038101906102ba91906119ee565b6108db565b6040516102cc9190611a5c565b60405180910390f35b6102ef60048036038101906102ea9190611b60565b61098d565b6040516102fc9190611af2565b60405180910390f35b61030d610a45565b60405161031a9190611996565b60405180910390f35b61033d60048036038101906103389190611bb9565b610ad7565b005b61035960048036038101906103549190611d2e565b610aed565b005b610375600480360381019061037091906119ee565b610b4f565b6040516103829190611996565b60405180910390f35b6103a560048036038101906103a09190611db1565b610bb7565b6040516103b291906118e2565b60405180910390f35b60007f80ac58cd000000000000000000000000000000000000000000000000000000007bffffffffffffffffffffffffffffffffffffffffffffffffffffffff1916827bffffffffffffffffffffffffffffffffffffffffffffffffffffffff1916148061048657507f5b5e139f000000000000000000000000000000000000000000000000000000007bffffffffffffffffffffffffffffffffffffffffffffffffffffffff1916827bffffffffffffffffffffffffffffffffffffffffffffffffffffffff1916145b80610496575061049582610c4b565b5b9050919050565b6060600080546104ac90611e20565b80601f01602080910402602001604051908101604052809291908181526020018280546104d890611e20565b80156105255780601f106104fa57610100808354040283529160200191610525565b820191906000526020600020905b81548152906001019060200180831161050857829003601f168201915b5050505050905090565b600061053a82610cb5565b6004600083815260200190815260200160002060009054906101000a900473ffffffffffffffffffffffffffffffffffffffff169050919050565b6000610580826108db565b90508073ffffffffffffffffffffffffffffffffffffffff168373ffffffffffffffffffffffffffffffffffffffff1614156105f1576040517f08c379a00000000000000000000000000000000000000000000000000000000081526004016105e890611ec4565b60405180910390fd5b8073ffffffffffffffffffffffffffffffffffffffff16610610610d00565b73ffffffffffffffffffffffffffffffffffffffff16148061063f575061063e81610639610d00565b610bb7565b5b61067e576040517f08c379a000000000000000000000000000000000000000000000000000000000815260040161067590611f56565b60405180910390fd5b6106888383610d08565b505050565b6000600754905090565b6106a86106a2610d00565b82610dc1565b6106e7576040517f08c379a00000000000000000000000000000000000000000000000000000000081526004016106de90611fe8565b60405180910390fd5b6106f2838383610e56565b505050565b600092915050565b600660009054906101000a900473ffffffffffffffffffffffffffffffffffffffff1673ffffffffffffffffffffffffffffffffffffffff163373ffffffffffffffffffffffffffffffffffffffff161461075957600080fd5b60001515600960008473ffffffffffffffffffffffffffffffffffffffff1673ffffffffffffffffffffffffffffffffffffffff16815260200190815260200160002060009054906101000a900460ff161515146107ec576040517f08c379a00000000000000000000000000000000000000000000000000000000081526004016107e390612054565b60405180910390fd5b60011515600960008473ffffffffffffffffffffffffffffffffffffffff1673ffffffffffffffffffffffffffffffffffffffff16815260200190815260200160002060009054906101000a9050505061084682826110bd565b80600860006007600081548092919061085e906120a3565b919050558152602001908152602001600020819055505050565b61089383838360405180602001604052806000815250610aed565b505050565b600660009054906101000a900473ffffffffffffffffffffffffffffffffffffffff1681565b600060086000838152602001908152602001600020549050919050565b6000806002600084815260200190815260200160002060009054906101000a900473ffffffffffffffffffffffffffffffffffffffff169050600073ffffffffffffffffffffffffffffffffffffffff168173ffffffffffffffffffffffffffffffffffffffff161415610984576040517f08c379a000000000000000000000000000000000000000000000000000000000815260040161097b90612138565b60405180910390fd5b80915050919050565b60008073ffffffffffffffffffffffffffffffffffffffff168273ffffffffffffffffffffffffffffffffffffffff1614156109fe576040517f08c379a00000000000000000000000000000000000000000000000000000000081526004016109f5906121ca565b60405180910390fd5b600360008373ffffffffffffffffffffffffffffffffffffffff1673ffffffffffffffffffffffffffffffffffffffff168152602001908152602001600020549050919050565b606060018054610a5490611e20565b80601f0160208091040260200160405190810160405280929190818152602001828054610a8090611e20565b8015610acd5780601f10610aa257610100808354040283529160200191610acd565b820191906000526020600020905b815481529060010190602001808311610ab057829003601f168201915b5050505050905090565b610ae9610ae2610d00565b8383611297565b5050565b610afe610af8610d00565b83610dc1565b610b3d576040517f08c379a0000000000000000000000000000000000000000000000000000000008152600401610b3490611fe8565b60405180910390fd5b610b4984848484611404565b50505050565b6060610b5a82610cb5565b6000610b64611460565b90506000815111610b845760405180602001604052806000815250610baf565b80610b8e8461149d565b604051602001610b9f929190612226565b6040516020818303038152906040525b915050919050565b6000600560008473ffffffffffffffffffffffffffffffffffffffff1673ffffffffffffffffffffffffffffffffffffffff16815260200190815260200160002060008373ffffffffffffffffffffffffffffffffffffffff1673ffffffffffffffffffffffffffffffffffffffff16815260200190815260200160002060009054906101000a900460ff16905092915050565b60007f01ffc9a7000000000000000000000000000000000000000000000000000000007bffffffffffffffffffffffffffffffffffffffffffffffffffffffff1916827bffffffffffffffffffffffffffffffffffffffffffffffffffffffff1916149050919050565b610cbe816115fe565b610cfd576040517f08c379a0000000000000000000000000000000000000000000000000000000008152600401610cf490612138565b60405180910390fd5b50565b600033905090565b816004600083815260200190815260200160002060006101000a81548173ffffffffffffffffffffffffffffffffffffffff021916908373ffffffffffffffffffffffffffffffffffffffff160217905550808273ffffffffffffffffffffffffffffffffffffffff16610d7b836108db565b73ffffffffffffffffffffffffffffffffffffffff167f8c5be1e5ebec7d5bd14f71427d1e84f3dd0314c0f7b2291e5b200ac8c7c3b92560405160405180910390a45050565b600080610dcd836108db565b90508073ffffffffffffffffffffffffffffffffffffffff168473ffffffffffffffffffffffffffffffffffffffff161480610e0f5750610e0e8185610bb7565b5b80610e4d57508373ffffffffffffffffffffffffffffffffffffffff16610e358461052f565b73ffffffffffffffffffffffffffffffffffffffff16145b91505092915050565b8273ffffffffffffffffffffffffffffffffffffffff16610e76826108db565b73ffffffffffffffffffffffffffffffffffffffff1614610ecc576040517f08c379a0000000000000000000000000000000000000000000000000000000008152600401610ec3906122bc565b60405180910390fd5b600073ffffffffffffffffffffffffffffffffffffffff168273ffffffffffffffffffffffffffffffffffffffff161415610f3c576040517f08c379a0000000000000000000000000000000000000000000000000000000008152600401610f339061234e565b60405180910390fd5b610f4783838361166a565b610f52600082610d08565b6001600360008573ffffffffffffffffffffffffffffffffffffffff1673ffffffffffffffffffffffffffffffffffffffff1681526020019081526020016000206000828254610fa2919061236e565b925050819055506001600360008473ffffffffffffffffffffffffffffffffffffffff1673ffffffffffffffffffffffffffffffffffffffff1681526020019081526020016000206000828254610ff991906123a2565b92505081905550816002600083815260200190815260200160002060006101000a81548173ffffffffffffffffffffffffffffffffffffffff021916908373ffffffffffffffffffffffffffffffffffffffff160217905550808273ffffffffffffffffffffffffffffffffffffffff168473ffffffffffffffffffffffffffffffffffffffff167fddf252ad1be2c89b69c2b068fc378daa952ba7f163c4a11628f55a4df523b3ef60405160405180910390a46110b883838361166f565b505050565b600073ffffffffffffffffffffffffffffffffffffffff168273ffffffffffffffffffffffffffffffffffffffff16141561112d576040517f08c379a000000000000000000000000000000000000000000000000000000000815260040161112490612444565b60405180910390fd5b611136816115fe565b15611176576040517f08c379a000000000000000000000000000000000000000000000000000000000815260040161116d906124b0565b60405180910390fd5b6111826000838361166a565b6001600360008473ffffffffffffffffffffffffffffffffffffffff1673ffffffffffffffffffffffffffffffffffffffff16815260200190815260200160002060008282546111d291906123a2565b92505081905550816002600083815260200190815260200160002060006101000a81548173ffffffffffffffffffffffffffffffffffffffff021916908373ffffffffffffffffffffffffffffffffffffffff160217905550808273ffffffffffffffffffffffffffffffffffffffff16600073ffffffffffffffffffffffffffffffffffffffff167fddf252ad1be2c89b69c2b068fc378daa952ba7f163c4a11628f55a4df523b3ef60405160405180910390a46112936000838361166f565b5050565b8173ffffffffffffffffffffffffffffffffffffffff168373ffffffffffffffffffffffffffffffffffffffff161415611306576040517f08c379a00000000000000000000000000000000000000000000000000000000081526004016112fd9061251c565b60405180910390fd5b80600560008573ffffffffffffffffffffffffffffffffffffffff1673ffffffffffffffffffffffffffffffffffffffff16815260200190815260200160002060008473ffffffffffffffffffffffffffffffffffffffff1673ffffffffffffffffffffffffffffffffffffffff16815260200190815260200160002060006101000a81548160ff0219169083151502179055508173ffffffffffffffffffffffffffffffffffffffff168373ffffffffffffffffffffffffffffffffffffffff167f17307eab39ab6107e8899845ad3d59bd9653f200f220920489ca2b5937696c31836040516113f791906118e2565b60405180910390a3505050565b61140f848484610e56565b61141b84848484611674565b61145a576040517f08c379a0000000000000000000000000000000000000000000000000000000008152600401611451906125ae565b60405180910390fd5b50505050565b60606040518060400160405280601681526020017f687474703a2f2f3132372e302e302e313a333030302f00000000000000000000815250905090565b606060008214156114e5576040518060400160405280600181526020017f300000000000000000000000000000000000000000000000000000000000000081525090506115f9565b600082905060005b60008214611517578080611500906120a3565b915050600a8261151091906125fd565b91506114ed565b60008167ffffffffffffffff81111561153357611532611c03565b5b6040519080825280601f01601f1916602001820160405280156115655781602001600182028036833780820191505090505b5090505b600085146115f25760018261157e919061236e565b9150600a8561158d919061262e565b603061159991906123a2565b60f81b8183815181106115af576115ae61265f565b5b60200101907effffffffffffffffffffffffffffffffffffffffffffffffffffffffffffff1916908160001a905350600a856115eb91906125fd565b9450611569565b8093505050505b919050565b60008073ffffffffffffffffffffffffffffffffffffffff166002600084815260200190815260200160002060009054906101000a900473ffffffffffffffffffffffffffffffffffffffff1673ffffffffffffffffffffffffffffffffffffffff1614159050919050565b505050565b505050565b60006116958473ffffffffffffffffffffffffffffffffffffffff1661180b565b156117fe578373ffffffffffffffffffffffffffffffffffffffff1663150b7a026116be610d00565b8786866040518563ffffffff1660e01b81526004016116e094939291906126e3565b602060405180830381600087803b1580156116fa57600080fd5b505af192505050801561172b57506040513d601f19601f820116820180604052508101906117289190612744565b60015b6117ae573d806000811461175b576040519150601f19603f3d011682016040523d82523d6000602084013e611760565b606091505b506000815114156117a6576040517f08c379a000000000000000000000000000000000000000000000000000000000815260040161179d906125ae565b60405180910390fd5b805181602001fd5b63150b7a0260e01b7bffffffffffffffffffffffffffffffffffffffffffffffffffffffff1916817bffffffffffffffffffffffffffffffffffffffffffffffffffffffff191614915050611803565b600190505b949350505050565b6000808273ffffffffffffffffffffffffffffffffffffffff163b119050919050565b6000604051905090565b600080fd5b600080fd5b60007fffffffff0000000000000000000000000000000000000000000000000000000082169050919050565b61187781611842565b811461188257600080fd5b50565b6000813590506118948161186e565b92915050565b6000602082840312156118b0576118af611838565b5b60006118be84828501611885565b91505092915050565b60008115159050919050565b6118dc816118c7565b82525050565b60006020820190506118f760008301846118d3565b92915050565b600081519050919050565b600082825260208201905092915050565b60005b8381101561193757808201518184015260208101905061191c565b83811115611946576000848401525b50505050565b6000601f19601f8301169050919050565b6000611968826118fd565b6119728185611908565b9350611982818560208601611919565b61198b8161194c565b840191505092915050565b600060208201905081810360008301526119b0818461195d565b905092915050565b6000819050919050565b6119cb816119b8565b81146119d657600080fd5b50565b6000813590506119e8816119c2565b92915050565b600060208284031215611a0457611a03611838565b5b6000611a12848285016119d9565b91505092915050565b600073ffffffffffffffffffffffffffffffffffffffff82169050919050565b6000611a4682611a1b565b9050919050565b611a5681611a3b565b82525050565b6000602082019050611a716000830184611a4d565b92915050565b611a8081611a3b565b8114611a8b57600080fd5b50565b600081359050611a9d81611a77565b92915050565b60008060408385031215611aba57611ab9611838565b5b6000611ac885828601611a8e565b9250506020611ad9858286016119d9565b9150509250929050565b611aec816119b8565b82525050565b6000602082019050611b076000830184611ae3565b92915050565b600080600060608486031215611b2657611b25611838565b5b6000611b3486828701611a8e565b9350506020611b4586828701611a8e565b9250506040611b56868287016119d9565b9150509250925092565b600060208284031215611b7657611b75611838565b5b6000611b8484828501611a8e565b91505092915050565b611b96816118c7565b8114611ba157600080fd5b50565b600081359050611bb381611b8d565b92915050565b60008060408385031215611bd057611bcf611838565b5b6000611bde85828601611a8e565b9250506020611bef85828601611ba4565b9150509250929050565b600080fd5b600080fd5b7f4e487b7100000000000000000000000000000000000000000000000000000000600052604160045260246000fd5b611c3b8261194c565b810181811067ffffffffffffffff82111715611c5a57611c59611c03565b5b80604052505050565b6000611c6d61182e565b9050611c798282611c32565b919050565b600067ffffffffffffffff821115611c9957611c98611c03565b5b611ca28261194c565b9050602081019050919050565b82818337600083830152505050565b6000611cd1611ccc84611c7e565b611c63565b905082815260208101848484011115611ced57611cec611bfe565b5b611cf8848285611caf565b509392505050565b600082601f830112611d1557611d14611bf9565b5b8135611d25848260208601611cbe565b91505092915050565b60008060008060808587031215611d4857611d47611838565b5b6000611d5687828801611a8e565b9450506020611d6787828801611a8e565b9350506040611d78878288016119d9565b925050606085013567ffffffffffffffff811115611d9957611d9861183d565b5b611da587828801611d00565b91505092959194509250565b60008060408385031215611dc857611dc7611838565b5b6000611dd685828601611a8e565b9250506020611de785828601611a8e565b9150509250929050565b7f4e487b7100000000000000000000000000000000000000000000000000000000600052602260045260246000fd5b60006002820490506001821680611e3857607f821691505b60208210811415611e4c57611e4b611df1565b5b50919050565b7f4552433732313a20617070726f76616c20746f2063757272656e74206f776e6560008201527f7200000000000000000000000000000000000000000000000000000000000000602082015250565b6000611eae602183611908565b9150611eb982611e52565b604082019050919050565b60006020820190508181036000830152611edd81611ea1565b9050919050565b7f4552433732313a20617070726f76652063616c6c6572206973206e6f7420746f60008201527f6b656e206f776e6572206e6f7220617070726f76656420666f7220616c6c0000602082015250565b6000611f40603e83611908565b9150611f4b82611ee4565b604082019050919050565b60006020820190508181036000830152611f6f81611f33565b9050919050565b7f4552433732313a2063616c6c6572206973206e6f7420746f6b656e206f776e6560008201527f72206e6f7220617070726f766564000000000000000000000000000000000000602082015250565b6000611fd2602e83611908565b9150611fdd82611f76565b604082019050919050565b6000602082019050818103600083015261200181611fc5565b9050919050565b7f5468697320757365722068617320676f74204e465420616c7265616479000000600082015250565b600061203e601d83611908565b915061204982612008565b602082019050919050565b6000602082019050818103600083015261206d81612031565b9050919050565b7f4e487b7100000000000000000000000000000000000000000000000000000000600052601160045260246000fd5b60006120ae826119b8565b91507fffffffffffffffffffffffffffffffffffffffffffffffffffffffffffffffff8214156120e1576120e0612074565b5b600182019050919050565b7f4552433732313a20696e76616c696420746f6b656e2049440000000000000000600082015250565b6000612122601883611908565b915061212d826120ec565b602082019050919050565b6000602082019050818103600083015261215181612115565b9050919050565b7f4552433732313a2061646472657373207a65726f206973206e6f74206120766160008201527f6c6964206f776e65720000000000000000000000000000000000000000000000602082015250565b60006121b4602983611908565b91506121bf82612158565b604082019050919050565b600060208201905081810360008301526121e3816121a7565b9050919050565b600081905092915050565b6000612200826118fd565b61220a81856121ea565b935061221a818560208601611919565b80840191505092915050565b600061223282856121f5565b915061223e82846121f5565b91508190509392505050565b7f4552433732313a207472616e736665722066726f6d20696e636f72726563742060008201527f6f776e6572000000000000000000000000000000000000000000000000000000602082015250565b60006122a6602583611908565b91506122b18261224a565b604082019050919050565b600060208201905081810360008301526122d581612299565b9050919050565b7f4552433732313a207472616e7366657220746f20746865207a65726f2061646460008201527f7265737300000000000000000000000000000000000000000000000000000000602082015250565b6000612338602483611908565b9150612343826122dc565b604082019050919050565b600060208201905081810360008301526123678161232b565b9050919050565b6000612379826119b8565b9150612384836119b8565b92508282101561239757612396612074565b5b828203905092915050565b60006123ad826119b8565b91506123b8836119b8565b9250827fffffffffffffffffffffffffffffffffffffffffffffffffffffffffffffffff038211156123ed576123ec612074565b5b828201905092915050565b7f4552433732313a206d696e7420746f20746865207a65726f2061646472657373600082015250565b600061242e602083611908565b9150612439826123f8565b602082019050919050565b6000602082019050818103600083015261245d81612421565b9050919050565b7f4552433732313a20746f6b656e20616c7265616479206d696e74656400000000600082015250565b600061249a601c83611908565b91506124a582612464565b602082019050919050565b600060208201905081810360008301526124c98161248d565b9050919050565b7f4552433732313a20617070726f766520746f2063616c6c657200000000000000600082015250565b6000612506601983611908565b9150612511826124d0565b602082019050919050565b60006020820190508181036000830152612535816124f9565b9050919050565b7f4552433732313a207472616e7366657220746f206e6f6e20455243373231526560008201527f63656976657220696d706c656d656e7465720000000000000000000000000000602082015250565b6000612598603283611908565b91506125a38261253c565b604082019050919050565b600060208201905081810360008301526125c78161258b565b9050919050565b7f4e487b7100000000000000000000000000000000000000000000000000000000600052601260045260246000fd5b6000612608826119b8565b9150612613836119b8565b925082612623576126226125ce565b5b828204905092915050565b6000612639826119b8565b9150612644836119b8565b925082612654576126536125ce565b5b828206905092915050565b7f4e487b7100000000000000000000000000000000000000000000000000000000600052603260045260246000fd5b600081519050919050565b600082825260208201905092915050565b60006126b58261268e565b6126bf8185612699565b93506126cf818560208601611919565b6126d88161194c565b840191505092915050565b60006080820190506126f86000830187611a4d565b6127056020830186611a4d565b6127126040830185611ae3565b818103606083015261272481846126aa565b905095945050505050565b60008151905061273e8161186e565b92915050565b60006020828403121561275a57612759611838565b5b60006127688482850161272f565b9150509291505056fea26469706673582212208b9979d418d4e34aabf93bcf450f807472bbb08848b88508ae8e02afea02daf764736f6c63430008090033",
  "linkReferences": {},
  "deployedLinkReferences": {}
}