{
  "_format": "hh-sol-artifact-1",
  "contractName": "StudentSocietyDAO",
  "sourceName": "contracts/StudentSocietyDAO.sol",
  "abi": [
    {
      "inputs": [],
      "stateMutability": "nonpayable",
      "type": "constructor"
    },
    {
      "anonymous": false,
      "inputs": [
        {
          "indexed": false,
          "internalType": "uint32",
          "name": "proposalIndex",
          "type": "uint32"
        }
      ],
      "name": "ProposalInitiated",
      "type": "event"
    },
    {
      "inputs": [
        {
          "internalType": "uint32",
          "name": "index",
          "type": "uint32"
        }
      ],
      "name": "DecideProposal",
      "outputs": [],
      "stateMutability": "nonpayable",
      "type": "function"
    },
    {
      "inputs": [
        {
          "internalType": "uint32",
          "name": "amount",
          "type": "uint32"
        },
        {
          "internalType": "string",
          "name": "name",
          "type": "string"
        },
        {
          "internalType": "uint256",
          "name": "duration",
          "type": "uint256"
        },
        {
          "internalType": "string",
          "name": "proposerName",
          "type": "string"
        }
      ],
      "name": "createProposal",
      "outputs": [
        {
          "internalType": "uint32",
          "name": "proposalIndex",
          "type": "uint32"
        }
      ],
      "stateMutability": "nonpayable",
      "type": "function"
    },
    {
      "inputs": [
        {
          "internalType": "uint32",
          "name": "index",
          "type": "uint32"
        }
      ],
      "name": "getApprovement",
      "outputs": [
        {
          "internalType": "uint32",
          "name": "",
          "type": "uint32"
        }
      ],
      "stateMutability": "view",
      "type": "function"
    },
    {
      "inputs": [
        {
          "internalType": "uint32",
          "name": "index",
          "type": "uint32"
        }
      ],
      "name": "getDisapprovement",
      "outputs": [
        {
          "internalType": "uint32",
          "name": "",
          "type": "uint32"
        }
      ],
      "stateMutability": "view",
      "type": "function"
    },
    {
      "inputs": [
        {
          "internalType": "uint32",
          "name": "index",
          "type": "uint32"
        }
      ],
      "name": "getDuration",
      "outputs": [
        {
          "internalType": "uint256",
          "name": "",
          "type": "uint256"
        }
      ],
      "stateMutability": "view",
      "type": "function"
    },
    {
      "inputs": [
        {
          "internalType": "uint32",
          "name": "index",
          "type": "uint32"
        }
      ],
      "name": "getProposalName",
      "outputs": [
        {
          "internalType": "string",
          "name": "",
          "type": "string"
        }
      ],
      "stateMutability": "view",
      "type": "function"
    },
    {
      "inputs": [],
      "name": "getProposalNum",
      "outputs": [
        {
          "internalType": "uint256",
          "name": "",
          "type": "uint256"
        }
      ],
      "stateMutability": "view",
      "type": "function"
    },
    {
      "inputs": [],
      "name": "getProposeCost",
      "outputs": [
        {
          "internalType": "uint32",
          "name": "",
          "type": "uint32"
        }
      ],
      "stateMutability": "pure",
      "type": "function"
    },
    {
      "inputs": [
        {
          "internalType": "uint32",
          "name": "index",
          "type": "uint32"
        }
      ],
      "name": "getProposerAddress",
      "outputs": [
        {
          "internalType": "address",
          "name": "",
          "type": "address"
        }
      ],
      "stateMutability": "view",
      "type": "function"
    },
    {
      "inputs": [
        {
          "internalType": "uint32",
          "name": "index",
          "type": "uint32"
        }
      ],
      "name": "getProposerName",
      "outputs": [
        {
          "internalType": "string",
          "name": "",
          "type": "string"
        }
      ],
      "stateMutability": "view",
      "type": "function"
    },
    {
      "inputs": [
        {
          "internalType": "uint32",
          "name": "index",
          "type": "uint32"
        }
      ],
      "name": "getStartTime",
      "outputs": [
        {
          "internalType": "uint256",
          "name": "",
          "type": "uint256"
        }
      ],
      "stateMutability": "view",
      "type": "function"
    },
    {
      "inputs": [],
      "name": "getStudentNumber",
      "outputs": [
        {
          "internalType": "uint256",
          "name": "",
          "type": "uint256"
        }
      ],
      "stateMutability": "view",
      "type": "function"
    },
    {
      "inputs": [],
      "name": "getVoteCost",
      "outputs": [
        {
          "internalType": "uint32",
          "name": "",
          "type": "uint32"
        }
      ],
      "stateMutability": "pure",
      "type": "function"
    },
    {
      "inputs": [],
      "name": "manager",
      "outputs": [
        {
          "internalType": "address",
          "name": "",
          "type": "address"
        }
      ],
      "stateMutability": "view",
      "type": "function"
    },
    {
      "inputs": [
        {
          "internalType": "uint256",
          "name": "startTime",
          "type": "uint256"
        },
        {
          "internalType": "uint256",
          "name": "duration",
          "type": "uint256"
        }
      ],
      "name": "setTimer",
      "outputs": [
        {
          "internalType": "bool",
          "name": "",
          "type": "bool"
        }
      ],
      "stateMutability": "view",
      "type": "function"
    },
    {
      "inputs": [
        {
          "internalType": "uint256",
          "name": "",
          "type": "uint256"
        }
      ],
      "name": "student",
      "outputs": [
        {
          "internalType": "address",
          "name": "",
          "type": "address"
        }
      ],
      "stateMutability": "view",
      "type": "function"
    },
    {
      "inputs": [],
      "name": "studentERC20",
      "outputs": [
        {
          "internalType": "contract MyERC20",
          "name": "",
          "type": "address"
        }
      ],
      "stateMutability": "view",
      "type": "function"
    },
    {
      "inputs": [
        {
          "internalType": "uint32",
          "name": "index",
          "type": "uint32"
        },
        {
          "internalType": "bool",
          "name": "vote_",
          "type": "bool"
        },
        {
          "internalType": "uint32",
          "name": "amount",
          "type": "uint32"
        }
      ],
      "name": "vote",
      "outputs": [],
      "stateMutability": "nonpayable",
      "type": "function"
    },
    {
      "inputs": [],
      "name": "winner",
      "outputs": [
        {
          "internalType": "address",
          "name": "",
          "type": "address"
        }
      ],
      "stateMutability": "view",
      "type": "function"
    }
  ],
  "bytecode": "0x60806040523480156200001157600080fd5b506040516200002090620000f2565b6200002b90620001b1565b604051809103906000f08015801562000048573d6000803e3d6000fd5b50600260006101000a81548173ffffffffffffffffffffffffffffffffffffffff021916908373ffffffffffffffffffffffffffffffffffffffff1602179055506000600260146101000a81548163ffffffff021916908363ffffffff16021790555033600360006101000a81548173ffffffffffffffffffffffffffffffffffffffff021916908373ffffffffffffffffffffffffffffffffffffffff160217905550620001e8565b6119908062001efa83390190565b600082825260208201905092915050565b7f53747564656e7444414f00000000000000000000000000000000000000000000600082015250565b600062000149600a8362000100565b9150620001568262000111565b602082019050919050565b7f4552430000000000000000000000000000000000000000000000000000000000600082015250565b60006200019960038362000100565b9150620001a68262000161565b602082019050919050565b60006040820190508181036000830152620001cc816200013a565b90508181036020830152620001e1816200018a565b9050919050565b611d0280620001f86000396000f3fe608060405234801561001057600080fd5b50600436106101215760003560e01c806381576ffb116100ad578063b1a2737711610071578063b1a2737714610356578063df03400114610374578063dfbf53ae146103a4578063e3ce5955146103c2578063f5da27c4146103f257610121565b806381576ffb1461028c57806385c2fe24146102bc578063a4276533146102ec578063a44bd6b81461030a578063ae7ca1ac1461032657610121565b8063481c6a75116100f4578063481c6a75146101d45780634c2ce943146101f2578063550891da1461022257806359f00ddf1461023e5780636c3fbb2d1461026e57610121565b8063163b4b05146101265780632c41742a14610144578063356f99991461017457806335f34232146101a4575b600080fd5b61012e610410565b60405161013b919061137b565b60405180910390f35b61015e600480360381019061015991906113d6565b610419565b60405161016b919061137b565b60405180910390f35b61018e600480360381019061018991906113d6565b610455565b60405161019b919061141c565b60405180910390f35b6101be60048036038101906101b99190611463565b610481565b6040516101cb91906114d1565b60405180910390f35b6101dc6104c0565b6040516101e991906114d1565b60405180910390f35b61020c600480360381019061020791906113d6565b6104e6565b604051610219919061137b565b60405180910390f35b61023c60048036038101906102379190611524565b610522565b005b610258600480360381019061025391906113d6565b61089a565b604051610265919061141c565b60405180910390f35b6102766108c6565b60405161028391906115d6565b60405180910390f35b6102a660048036038101906102a19190611737565b6108ec565b6040516102b3919061137b565b60405180910390f35b6102d660048036038101906102d191906113d6565b610dfa565b6040516102e391906114d1565b60405180910390f35b6102f4610e46565b604051610301919061141c565b60405180910390f35b610324600480360381019061031f91906113d6565b610e66565b005b610340600480360381019061033b91906113d6565b6110ed565b60405161034d919061185e565b60405180910390f35b61035e6111a1565b60405161036b919061141c565b60405180910390f35b61038e60048036038101906103899190611880565b6111ad565b60405161039b91906118cf565b60405180910390f35b6103ac6111d5565b6040516103b991906114d1565b60405180910390f35b6103dc60048036038101906103d791906113d6565b6111fb565b6040516103e9919061185e565b60405180910390f35b6103fa6112af565b604051610407919061137b565b60405180910390f35b60006064905090565b6000600460008363ffffffff1663ffffffff16815260200190815260200160002060050160009054906101000a900463ffffffff169050919050565b6000600460008363ffffffff1663ffffffff168152602001908152602001600020600101549050919050565b6000818154811061049157600080fd5b906000526020600020016000915054906101000a900473ffffffffffffffffffffffffffffffffffffffff1681565b600360009054906101000a900473ffffffffffffffffffffffffffffffffffffffff1681565b6000600460008363ffffffff1663ffffffff16815260200190815260200160002060050160049054906101000a900463ffffffff169050919050565b606463ffffffff168163ffffffff161015610572576040517f08c379a00000000000000000000000000000000000000000000000000000000081526004016105699061195c565b60405180910390fd5b600260149054906101000a900463ffffffff1663ffffffff168363ffffffff1611806105ec5750600460008463ffffffff1663ffffffff16815260200190815260200160002060010154600460008563ffffffff1663ffffffff168152602001908152602001600020600201546105e991906119ab565b42115b1561062c576040517f08c379a000000000000000000000000000000000000000000000000000000000815260040161062390611a73565b60405180910390fd5b600260009054906101000a900473ffffffffffffffffffffffffffffffffffffffff1673ffffffffffffffffffffffffffffffffffffffff166323b872dd3330846040518463ffffffff1660e01b815260040161068b93929190611ac4565b602060405180830381600087803b1580156106a557600080fd5b505af11580156106b9573d6000803e3d6000fd5b505050506040513d601f19601f820116820180604052508101906106dd9190611b10565b506000339080600181540180825580915050600190039060005260206000200160009091909190916101000a81548173ffffffffffffffffffffffffffffffffffffffff021916908373ffffffffffffffffffffffffffffffffffffffff1602179055506000600460008563ffffffff1663ffffffff168152602001908152602001600020905082156107bc576064826107779190611b6c565b8160050160008282829054906101000a900463ffffffff166107999190611b9d565b92506101000a81548163ffffffff021916908363ffffffff16021790555061080a565b6064826107c99190611b6c565b8160050160048282829054906101000a900463ffffffff166107eb9190611b9d565b92506101000a81548163ffffffff021916908363ffffffff1602179055505b6064826108179190611b6c565b8160060160003373ffffffffffffffffffffffffffffffffffffffff1673ffffffffffffffffffffffffffffffffffffffff16815260200190815260200160002060008282829054906101000a900463ffffffff166108769190611b9d565b92506101000a81548163ffffffff021916908363ffffffff16021790555050505050565b6000600460008363ffffffff1663ffffffff168152602001908152602001600020600201549050919050565b600260009054906101000a900473ffffffffffffffffffffffffffffffffffffffff1681565b600061012c63ffffffff168563ffffffff16101561093f576040517f08c379a00000000000000000000000000000000000000000000000000000000081526004016109369061195c565b60405180910390fd5b600260009054906101000a900473ffffffffffffffffffffffffffffffffffffffff1673ffffffffffffffffffffffffffffffffffffffff166323b872dd3330886040518463ffffffff1660e01b815260040161099e93929190611ac4565b602060405180830381600087803b1580156109b857600080fd5b505af11580156109cc573d6000803e3d6000fd5b505050506040513d601f19601f820116820180604052508101906109f09190611b10565b506002601481819054906101000a900463ffffffff1680929190610a1390611bd7565b91906101000a81548163ffffffff021916908363ffffffff16021790555050600260149054906101000a900463ffffffff1660046000600260149054906101000a900463ffffffff1663ffffffff1663ffffffff16815260200190815260200160002060000160006101000a81548163ffffffff021916908363ffffffff1602179055508360046000600260149054906101000a900463ffffffff1663ffffffff1663ffffffff1681526020019081526020016000206003019080519060200190610adf9291906112b9565b503360046000600260149054906101000a900463ffffffff1663ffffffff1663ffffffff16815260200190815260200160002060000160046101000a81548173ffffffffffffffffffffffffffffffffffffffff021916908373ffffffffffffffffffffffffffffffffffffffff1602179055508160046000600260149054906101000a900463ffffffff1663ffffffff1663ffffffff1681526020019081526020016000206004019080519060200190610b9b9291906112b9565b50600060046000600260149054906101000a900463ffffffff1663ffffffff1663ffffffff16815260200190815260200160002060050160006101000a81548163ffffffff021916908363ffffffff160217905550600060046000600260149054906101000a900463ffffffff1663ffffffff1663ffffffff16815260200190815260200160002060050160046101000a81548163ffffffff021916908363ffffffff1602179055504260046000600260149054906101000a900463ffffffff1663ffffffff1663ffffffff168152602001908152602001600020600101819055508260046000600260149054906101000a900463ffffffff1663ffffffff1663ffffffff16815260200190815260200160002060020181905550600060046000600260149054906101000a900463ffffffff1663ffffffff1663ffffffff16815260200190815260200160002060060160003373ffffffffffffffffffffffffffffffffffffffff1673ffffffffffffffffffffffffffffffffffffffff16815260200190815260200160002060006101000a81548163ffffffff021916908363ffffffff160217905550600060046000600260149054906101000a900463ffffffff1663ffffffff1663ffffffff16815260200190815260200160002060070160006101000a81548160ff0219169083151502179055507f944f5ef0a446d54c41ea39dac07de1fd2150ec3346cbff6c627d1ffba048676c600260149054906101000a900463ffffffff16604051610dd5919061137b565b60405180910390a1600260149054906101000a900463ffffffff169050949350505050565b6000600460008363ffffffff1663ffffffff16815260200190815260200160002060000160049054906101000a900473ffffffffffffffffffffffffffffffffffffffff169050919050565b6000600260149054906101000a900463ffffffff1663ffffffff16905090565b600460008263ffffffff1663ffffffff16815260200190815260200160002060020154600460008363ffffffff1663ffffffff16815260200190815260200160002060010154610eb691906119ab565b421015610ec257600080fd5b60001515600460008363ffffffff1663ffffffff16815260200190815260200160002060070160009054906101000a900460ff16151514610f0257600080fd5b6001600460008363ffffffff1663ffffffff16815260200190815260200160002060070160006101000a81548160ff021916908315150217905550600460008263ffffffff1663ffffffff16815260200190815260200160002060050160049054906101000a900463ffffffff1663ffffffff16600460008363ffffffff1663ffffffff16815260200190815260200160002060050160009054906101000a900463ffffffff1663ffffffff16106110e957600260009054906101000a900473ffffffffffffffffffffffffffffffffffffffff1673ffffffffffffffffffffffffffffffffffffffff1663a9059cbb600460008463ffffffff1663ffffffff16815260200190815260200160002060000160049054906101000a900473ffffffffffffffffffffffffffffffffffffffff166064600460008663ffffffff1663ffffffff16815260200190815260200160002060050160009054906101000a900463ffffffff166110749190611c04565b6040518363ffffffff1660e01b8152600401611091929190611c42565b602060405180830381600087803b1580156110ab57600080fd5b505af11580156110bf573d6000803e3d6000fd5b505050506040513d601f19601f820116820180604052508101906110e39190611b10565b506110ea565b5b50565b6060600460008363ffffffff1663ffffffff168152602001908152602001600020600401805461111c90611c9a565b80601f016020809104026020016040519081016040528092919081815260200182805461114890611c9a565b80156111955780601f1061116a57610100808354040283529160200191611195565b820191906000526020600020905b81548152906001019060200180831161117857829003601f168201915b50505050509050919050565b60008080549050905090565b600082826111bb91906119ab565b42106111ca57600190506111cf565b600090505b92915050565b600160009054906101000a900473ffffffffffffffffffffffffffffffffffffffff1681565b6060600460008363ffffffff1663ffffffff168152602001908152602001600020600301805461122a90611c9a565b80601f016020809104026020016040519081016040528092919081815260200182805461125690611c9a565b80156112a35780601f10611278576101008083540402835291602001916112a3565b820191906000526020600020905b81548152906001019060200180831161128657829003601f168201915b50505050509050919050565b600061012c905090565b8280546112c590611c9a565b90600052602060002090601f0160209004810192826112e7576000855561132e565b82601f1061130057805160ff191683800117855561132e565b8280016001018555821561132e579182015b8281111561132d578251825591602001919060010190611312565b5b50905061133b919061133f565b5090565b5b80821115611358576000816000905550600101611340565b5090565b600063ffffffff82169050919050565b6113758161135c565b82525050565b6000602082019050611390600083018461136c565b92915050565b6000604051905090565b600080fd5b600080fd5b6113b38161135c565b81146113be57600080fd5b50565b6000813590506113d0816113aa565b92915050565b6000602082840312156113ec576113eb6113a0565b5b60006113fa848285016113c1565b91505092915050565b6000819050919050565b61141681611403565b82525050565b6000602082019050611431600083018461140d565b92915050565b61144081611403565b811461144b57600080fd5b50565b60008135905061145d81611437565b92915050565b600060208284031215611479576114786113a0565b5b60006114878482850161144e565b91505092915050565b600073ffffffffffffffffffffffffffffffffffffffff82169050919050565b60006114bb82611490565b9050919050565b6114cb816114b0565b82525050565b60006020820190506114e660008301846114c2565b92915050565b60008115159050919050565b611501816114ec565b811461150c57600080fd5b50565b60008135905061151e816114f8565b92915050565b60008060006060848603121561153d5761153c6113a0565b5b600061154b868287016113c1565b935050602061155c8682870161150f565b925050604061156d868287016113c1565b9150509250925092565b6000819050919050565b600061159c61159761159284611490565b611577565b611490565b9050919050565b60006115ae82611581565b9050919050565b60006115c0826115a3565b9050919050565b6115d0816115b5565b82525050565b60006020820190506115eb60008301846115c7565b92915050565b600080fd5b600080fd5b6000601f19601f8301169050919050565b7f4e487b7100000000000000000000000000000000000000000000000000000000600052604160045260246000fd5b611644826115fb565b810181811067ffffffffffffffff821117156116635761166261160c565b5b80604052505050565b6000611676611396565b9050611682828261163b565b919050565b600067ffffffffffffffff8211156116a2576116a161160c565b5b6116ab826115fb565b9050602081019050919050565b82818337600083830152505050565b60006116da6116d584611687565b61166c565b9050828152602081018484840111156116f6576116f56115f6565b5b6117018482856116b8565b509392505050565b600082601f83011261171e5761171d6115f1565b5b813561172e8482602086016116c7565b91505092915050565b60008060008060808587031215611751576117506113a0565b5b600061175f878288016113c1565b945050602085013567ffffffffffffffff8111156117805761177f6113a5565b5b61178c87828801611709565b935050604061179d8782880161144e565b925050606085013567ffffffffffffffff8111156117be576117bd6113a5565b5b6117ca87828801611709565b91505092959194509250565b600081519050919050565b600082825260208201905092915050565b60005b838110156118105780820151818401526020810190506117f5565b8381111561181f576000848401525b50505050565b6000611830826117d6565b61183a81856117e1565b935061184a8185602086016117f2565b611853816115fb565b840191505092915050565b600060208201905081810360008301526118788184611825565b905092915050565b60008060408385031215611897576118966113a0565b5b60006118a58582860161144e565b92505060206118b68582860161144e565b9150509250929050565b6118c9816114ec565b82525050565b60006020820190506118e460008301846118c0565b92915050565b7f556e6166666f726461626c652120506c6561736520676574206d6f726520746f60008201527f6b656e0000000000000000000000000000000000000000000000000000000000602082015250565b60006119466023836117e1565b9150611951826118ea565b604082019050919050565b6000602082019050818103600083015261197581611939565b9050919050565b7f4e487b7100000000000000000000000000000000000000000000000000000000600052601160045260246000fd5b60006119b682611403565b91506119c183611403565b9250827fffffffffffffffffffffffffffffffffffffffffffffffffffffffffffffffff038211156119f6576119f561197c565b5b828201905092915050565b7f50726f706f73616c206e6f7420666f756e642e204974206d617920686173206560008201527f6e64656421000000000000000000000000000000000000000000000000000000602082015250565b6000611a5d6025836117e1565b9150611a6882611a01565b604082019050919050565b60006020820190508181036000830152611a8c81611a50565b9050919050565b6000611aae611aa9611aa48461135c565b611577565b611403565b9050919050565b611abe81611a93565b82525050565b6000606082019050611ad960008301866114c2565b611ae660208301856114c2565b611af36040830184611ab5565b949350505050565b600081519050611b0a816114f8565b92915050565b600060208284031215611b2657611b256113a0565b5b6000611b3484828501611afb565b91505092915050565b7f4e487b7100000000000000000000000000000000000000000000000000000000600052601260045260246000fd5b6000611b778261135c565b9150611b828361135c565b925082611b9257611b91611b3d565b5b828204905092915050565b6000611ba88261135c565b9150611bb38361135c565b92508263ffffffff03821115611bcc57611bcb61197c565b5b828201905092915050565b6000611be28261135c565b915063ffffffff821415611bf957611bf861197c565b5b600182019050919050565b6000611c0f8261135c565b9150611c1a8361135c565b92508163ffffffff0483118215151615611c3757611c3661197c565b5b828202905092915050565b6000604082019050611c5760008301856114c2565b611c646020830184611ab5565b9392505050565b7f4e487b7100000000000000000000000000000000000000000000000000000000600052602260045260246000fd5b60006002820490506001821680611cb257607f821691505b60208210811415611cc657611cc5611c6b565b5b5091905056fea2646970667358221220b9c6b7b639835da90f907cd0fb05a9e047ff6ff5d9be11b1ce01c30674ff746c64736f6c6343000809003360806040523480156200001157600080fd5b5060405162001990380380620019908339818101604052810190620000379190620002c2565b818181600390805190602001906200005192919062000075565b5080600490805190602001906200006a92919062000075565b5050505050620003ac565b828054620000839062000376565b90600052602060002090601f016020900481019282620000a75760008555620000f3565b82601f10620000c257805160ff1916838001178555620000f3565b82800160010185558215620000f3579182015b82811115620000f2578251825591602001919060010190620000d5565b5b50905062000102919062000106565b5090565b5b808211156200012157600081600090555060010162000107565b5090565b6000604051905090565b600080fd5b600080fd5b600080fd5b600080fd5b6000601f19601f8301169050919050565b7f4e487b7100000000000000000000000000000000000000000000000000000000600052604160045260246000fd5b6200018e8262000143565b810181811067ffffffffffffffff82111715620001b057620001af62000154565b5b80604052505050565b6000620001c562000125565b9050620001d3828262000183565b919050565b600067ffffffffffffffff821115620001f657620001f562000154565b5b620002018262000143565b9050602081019050919050565b60005b838110156200022e57808201518184015260208101905062000211565b838111156200023e576000848401525b50505050565b60006200025b6200025584620001d8565b620001b9565b9050828152602081018484840111156200027a57620002796200013e565b5b620002878482856200020e565b509392505050565b600082601f830112620002a757620002a662000139565b5b8151620002b984826020860162000244565b91505092915050565b60008060408385031215620002dc57620002db6200012f565b5b600083015167ffffffffffffffff811115620002fd57620002fc62000134565b5b6200030b858286016200028f565b925050602083015167ffffffffffffffff8111156200032f576200032e62000134565b5b6200033d858286016200028f565b9150509250929050565b7f4e487b7100000000000000000000000000000000000000000000000000000000600052602260045260246000fd5b600060028204905060018216806200038f57607f821691505b60208210811415620003a657620003a562000347565b5b50919050565b6115d480620003bc6000396000f3fe608060405234801561001057600080fd5b50600436106100b45760003560e01c80633950935111610071578063395093511461017d57806370a08231146101ad57806395d89b41146101dd578063a457c2d7146101fb578063a9059cbb1461022b578063dd62ed3e1461025b576100b4565b806306fdde03146100b9578063095ea7b3146100d757806318160ddd1461010757806323b872dd14610125578063313ce567146101555780633884d63514610173575b600080fd5b6100c161028b565b6040516100ce9190610d90565b60405180910390f35b6100f160048036038101906100ec9190610e4b565b61031d565b6040516100fe9190610ea6565b60405180910390f35b61010f610340565b60405161011c9190610ed0565b60405180910390f35b61013f600480360381019061013a9190610eeb565b61034a565b60405161014c9190610ea6565b60405180910390f35b61015d610379565b60405161016a9190610f5a565b60405180910390f35b61017b610382565b005b61019760048036038101906101929190610e4b565b61047b565b6040516101a49190610ea6565b60405180910390f35b6101c760048036038101906101c29190610f75565b6104b2565b6040516101d49190610ed0565b60405180910390f35b6101e56104fa565b6040516101f29190610d90565b60405180910390f35b61021560048036038101906102109190610e4b565b61058c565b6040516102229190610ea6565b60405180910390f35b61024560048036038101906102409190610e4b565b610603565b6040516102529190610ea6565b60405180910390f35b61027560048036038101906102709190610fa2565b610626565b6040516102829190610ed0565b60405180910390f35b60606003805461029a90611011565b80601f01602080910402602001604051908101604052809291908181526020018280546102c690611011565b80156103135780601f106102e857610100808354040283529160200191610313565b820191906000526020600020905b8154815290600101906020018083116102f657829003601f168201915b5050505050905090565b6000806103286106ad565b90506103358185856106b5565b600191505092915050565b6000600254905090565b6000806103556106ad565b9050610362858285610880565b61036d85858561090c565b60019150509392505050565b60006012905090565b60001515600560003373ffffffffffffffffffffffffffffffffffffffff1673ffffffffffffffffffffffffffffffffffffffff16815260200190815260200160002060009054906101000a900460ff16151514610415576040517f08c379a000000000000000000000000000000000000000000000000000000000815260040161040c906110b5565b60405180910390fd5b610421336103e8610b8d565b6001600560003373ffffffffffffffffffffffffffffffffffffffff1673ffffffffffffffffffffffffffffffffffffffff16815260200190815260200160002060006101000a81548160ff021916908315150217905550565b6000806104866106ad565b90506104a78185856104988589610626565b6104a29190611104565b6106b5565b600191505092915050565b60008060008373ffffffffffffffffffffffffffffffffffffffff1673ffffffffffffffffffffffffffffffffffffffff168152602001908152602001600020549050919050565b60606004805461050990611011565b80601f016020809104026020016040519081016040528092919081815260200182805461053590611011565b80156105825780601f1061055757610100808354040283529160200191610582565b820191906000526020600020905b81548152906001019060200180831161056557829003601f168201915b5050505050905090565b6000806105976106ad565b905060006105a58286610626565b9050838110156105ea576040517f08c379a00000000000000000000000000000000000000000000000000000000081526004016105e1906111cc565b60405180910390fd5b6105f782868684036106b5565b60019250505092915050565b60008061060e6106ad565b905061061b81858561090c565b600191505092915050565b6000600160008473ffffffffffffffffffffffffffffffffffffffff1673ffffffffffffffffffffffffffffffffffffffff16815260200190815260200160002060008373ffffffffffffffffffffffffffffffffffffffff1673ffffffffffffffffffffffffffffffffffffffff16815260200190815260200160002054905092915050565b600033905090565b600073ffffffffffffffffffffffffffffffffffffffff168373ffffffffffffffffffffffffffffffffffffffff161415610725576040517f08c379a000000000000000000000000000000000000000000000000000000000815260040161071c9061125e565b60405180910390fd5b600073ffffffffffffffffffffffffffffffffffffffff168273ffffffffffffffffffffffffffffffffffffffff161415610795576040517f08c379a000000000000000000000000000000000000000000000000000000000815260040161078c906112f0565b60405180910390fd5b80600160008573ffffffffffffffffffffffffffffffffffffffff1673ffffffffffffffffffffffffffffffffffffffff16815260200190815260200160002060008473ffffffffffffffffffffffffffffffffffffffff1673ffffffffffffffffffffffffffffffffffffffff168152602001908152602001600020819055508173ffffffffffffffffffffffffffffffffffffffff168373ffffffffffffffffffffffffffffffffffffffff167f8c5be1e5ebec7d5bd14f71427d1e84f3dd0314c0f7b2291e5b200ac8c7c3b925836040516108739190610ed0565b60405180910390a3505050565b600061088c8484610626565b90507fffffffffffffffffffffffffffffffffffffffffffffffffffffffffffffffff811461090657818110156108f8576040517f08c379a00000000000000000000000000000000000000000000000000000000081526004016108ef9061135c565b60405180910390fd5b61090584848484036106b5565b5b50505050565b600073ffffffffffffffffffffffffffffffffffffffff168373ffffffffffffffffffffffffffffffffffffffff16141561097c576040517f08c379a0000000000000000000000000000000000000000000000000000000008152600401610973906113ee565b60405180910390fd5b600073ffffffffffffffffffffffffffffffffffffffff168273ffffffffffffffffffffffffffffffffffffffff1614156109ec576040517f08c379a00000000000000000000000000000000000000000000000000000000081526004016109e390611480565b60405180910390fd5b6109f7838383610ced565b60008060008573ffffffffffffffffffffffffffffffffffffffff1673ffffffffffffffffffffffffffffffffffffffff16815260200190815260200160002054905081811015610a7d576040517f08c379a0000000000000000000000000000000000000000000000000000000008152600401610a7490611512565b60405180910390fd5b8181036000808673ffffffffffffffffffffffffffffffffffffffff1673ffffffffffffffffffffffffffffffffffffffff16815260200190815260200160002081905550816000808573ffffffffffffffffffffffffffffffffffffffff1673ffffffffffffffffffffffffffffffffffffffff1681526020019081526020016000206000828254610b109190611104565b925050819055508273ffffffffffffffffffffffffffffffffffffffff168473ffffffffffffffffffffffffffffffffffffffff167fddf252ad1be2c89b69c2b068fc378daa952ba7f163c4a11628f55a4df523b3ef84604051610b749190610ed0565b60405180910390a3610b87848484610cf2565b50505050565b600073ffffffffffffffffffffffffffffffffffffffff168273ffffffffffffffffffffffffffffffffffffffff161415610bfd576040517f08c379a0000000000000000000000000000000000000000000000000000000008152600401610bf49061157e565b60405180910390fd5b610c0960008383610ced565b8060026000828254610c1b9190611104565b92505081905550806000808473ffffffffffffffffffffffffffffffffffffffff1673ffffffffffffffffffffffffffffffffffffffff1681526020019081526020016000206000828254610c709190611104565b925050819055508173ffffffffffffffffffffffffffffffffffffffff16600073ffffffffffffffffffffffffffffffffffffffff167fddf252ad1be2c89b69c2b068fc378daa952ba7f163c4a11628f55a4df523b3ef83604051610cd59190610ed0565b60405180910390a3610ce960008383610cf2565b5050565b505050565b505050565b600081519050919050565b600082825260208201905092915050565b60005b83811015610d31578082015181840152602081019050610d16565b83811115610d40576000848401525b50505050565b6000601f19601f8301169050919050565b6000610d6282610cf7565b610d6c8185610d02565b9350610d7c818560208601610d13565b610d8581610d46565b840191505092915050565b60006020820190508181036000830152610daa8184610d57565b905092915050565b600080fd5b600073ffffffffffffffffffffffffffffffffffffffff82169050919050565b6000610de282610db7565b9050919050565b610df281610dd7565b8114610dfd57600080fd5b50565b600081359050610e0f81610de9565b92915050565b6000819050919050565b610e2881610e15565b8114610e3357600080fd5b50565b600081359050610e4581610e1f565b92915050565b60008060408385031215610e6257610e61610db2565b5b6000610e7085828601610e00565b9250506020610e8185828601610e36565b9150509250929050565b60008115159050919050565b610ea081610e8b565b82525050565b6000602082019050610ebb6000830184610e97565b92915050565b610eca81610e15565b82525050565b6000602082019050610ee56000830184610ec1565b92915050565b600080600060608486031215610f0457610f03610db2565b5b6000610f1286828701610e00565b9350506020610f2386828701610e00565b9250506040610f3486828701610e36565b9150509250925092565b600060ff82169050919050565b610f5481610f3e565b82525050565b6000602082019050610f6f6000830184610f4b565b92915050565b600060208284031215610f8b57610f8a610db2565b5b6000610f9984828501610e00565b91505092915050565b60008060408385031215610fb957610fb8610db2565b5b6000610fc785828601610e00565b9250506020610fd885828601610e00565b9150509250929050565b7f4e487b7100000000000000000000000000000000000000000000000000000000600052602260045260246000fd5b6000600282049050600182168061102957607f821691505b6020821081141561103d5761103c610fe2565b5b50919050565b7f5468697320757365722068617320636c61696d65642061697264726f7020616c60008201527f7265616479000000000000000000000000000000000000000000000000000000602082015250565b600061109f602583610d02565b91506110aa82611043565b604082019050919050565b600060208201905081810360008301526110ce81611092565b9050919050565b7f4e487b7100000000000000000000000000000000000000000000000000000000600052601160045260246000fd5b600061110f82610e15565b915061111a83610e15565b9250827fffffffffffffffffffffffffffffffffffffffffffffffffffffffffffffffff0382111561114f5761114e6110d5565b5b828201905092915050565b7f45524332303a2064656372656173656420616c6c6f77616e63652062656c6f7760008201527f207a65726f000000000000000000000000000000000000000000000000000000602082015250565b60006111b6602583610d02565b91506111c18261115a565b604082019050919050565b600060208201905081810360008301526111e5816111a9565b9050919050565b7f45524332303a20617070726f76652066726f6d20746865207a65726f2061646460008201527f7265737300000000000000000000000000000000000000000000000000000000602082015250565b6000611248602483610d02565b9150611253826111ec565b604082019050919050565b600060208201905081810360008301526112778161123b565b9050919050565b7f45524332303a20617070726f766520746f20746865207a65726f20616464726560008201527f7373000000000000000000000000000000000000000000000000000000000000602082015250565b60006112da602283610d02565b91506112e58261127e565b604082019050919050565b60006020820190508181036000830152611309816112cd565b9050919050565b7f45524332303a20696e73756666696369656e7420616c6c6f77616e6365000000600082015250565b6000611346601d83610d02565b915061135182611310565b602082019050919050565b6000602082019050818103600083015261137581611339565b9050919050565b7f45524332303a207472616e736665722066726f6d20746865207a65726f20616460008201527f6472657373000000000000000000000000000000000000000000000000000000602082015250565b60006113d8602583610d02565b91506113e38261137c565b604082019050919050565b60006020820190508181036000830152611407816113cb565b9050919050565b7f45524332303a207472616e7366657220746f20746865207a65726f206164647260008201527f6573730000000000000000000000000000000000000000000000000000000000602082015250565b600061146a602383610d02565b91506114758261140e565b604082019050919050565b600060208201905081810360008301526114998161145d565b9050919050565b7f45524332303a207472616e7366657220616d6f756e742065786365656473206260008201527f616c616e63650000000000000000000000000000000000000000000000000000602082015250565b60006114fc602683610d02565b9150611507826114a0565b604082019050919050565b6000602082019050818103600083015261152b816114ef565b9050919050565b7f45524332303a206d696e7420746f20746865207a65726f206164647265737300600082015250565b6000611568601f83610d02565b915061157382611532565b602082019050919050565b600060208201905081810360008301526115978161155b565b905091905056fea264697066735822122038a0359e3f52e99756755c91b521261ff2ac9e3b527fc1025df6d75e9922132164736f6c63430008090033",
  "linkReferences": {},
  "deployedLinkReferences": {}
}