{
  "_format": "hh-sol-artifact-1",
  "contractName": "MyERC721",
  "sourceName": "contracts/MyERC721.sol",
  "abi": [
    {
      "inputs": [
        {
          "internalType": "string",
          "name": "name",
          "type": "string"
        },
        {
          "internalType": "string",
          "name": "symbol",
          "type": "string"
        }
      ],
      "stateMutability": "nonpayable",
      "type": "constructor"
    },
    {
      "anonymous": false,
      "inputs": [
        {
          "indexed": true,
          "internalType": "address",
          "name": "owner",
          "type": "address"
        },
        {
          "indexed": true,
          "internalType": "address",
          "name": "approved",
          "type": "address"
        },
        {
          "indexed": true,
          "internalType": "uint256",
          "name": "tokenId",
          "type": "uint256"
        }
      ],
      "name": "Approval",
      "type": "event"
    },
    {
      "anonymous": false,
      "inputs": [
        {
          "indexed": true,
          "internalType": "address",
          "name": "owner",
          "type": "address"
        },
        {
          "indexed": true,
          "internalType": "address",
          "name": "operator",
          "type": "address"
        },
        {
          "indexed": false,
          "internalType": "bool",
          "name": "approved",
          "type": "bool"
        }
      ],
      "name": "ApprovalForAll",
      "type": "event"
    },
    {
      "anonymous": false,
      "inputs": [
        {
          "indexed": true,
          "internalType": "address",
          "name": "from",
          "type": "address"
        },
        {
          "indexed": true,
          "internalType": "address",
          "name": "to",
          "type": "address"
        },
        {
          "indexed": true,
          "internalType": "uint256",
          "name": "tokenId",
          "type": "uint256"
        }
      ],
      "name": "Transfer",
      "type": "event"
    },
    {
      "inputs": [
        {
          "internalType": "address",
          "name": "to",
          "type": "address"
        },
        {
          "internalType": "uint256",
          "name": "tokenId",
          "type": "uint256"
        }
      ],
      "name": "approve",
      "outputs": [],
      "stateMutability": "nonpayable",
      "type": "function"
    },
    {
      "inputs": [
        {
          "internalType": "address",
          "name": "owner",
          "type": "address"
        }
      ],
      "name": "balanceOf",
      "outputs": [
        {
          "internalType": "uint256",
          "name": "",
          "type": "uint256"
        }
      ],
      "stateMutability": "view",
      "type": "function"
    },
    {
      "inputs": [
        {
          "internalType": "uint256",
          "name": "tokenId",
          "type": "uint256"
        }
      ],
      "name": "getApproved",
      "outputs": [
        {
          "internalType": "address",
          "name": "",
          "type": "address"
        }
      ],
      "stateMutability": "view",
      "type": "function"
    },
    {
      "inputs": [
        {
          "internalType": "address",
          "name": "owner",
          "type": "address"
        }
      ],
      "name": "getTokenId",
      "outputs": [
        {
          "internalType": "uint256",
          "name": "",
          "type": "uint256"
        }
      ],
      "stateMutability": "view",
      "type": "function"
    },
    {
      "inputs": [
        {
          "internalType": "address",
          "name": "owner",
          "type": "address"
        },
        {
          "internalType": "address",
          "name": "operator",
          "type": "address"
        }
      ],
      "name": "isApprovedForAll",
      "outputs": [
        {
          "internalType": "bool",
          "name": "",
          "type": "bool"
        }
      ],
      "stateMutability": "view",
      "type": "function"
    },
    {
      "inputs": [],
      "name": "manager",
      "outputs": [
        {
          "internalType": "address",
          "name": "",
          "type": "address"
        }
      ],
      "stateMutability": "view",
      "type": "function"
    },
    {
      "inputs": [
        {
          "internalType": "address",
          "name": "to",
          "type": "address"
        },
        {
          "internalType": "uint256",
          "name": "tokenId",
          "type": "uint256"
        }
      ],
      "name": "mint",
      "outputs": [],
      "stateMutability": "nonpayable",
      "type": "function"
    },
    {
      "inputs": [],
      "name": "name",
      "outputs": [
        {
          "internalType": "string",
          "name": "",
          "type": "string"
        }
      ],
      "stateMutability": "view",
      "type": "function"
    },
    {
      "inputs": [
        {
          "internalType": "uint256",
          "name": "tokenId",
          "type": "uint256"
        }
      ],
      "name": "ownerOf",
      "outputs": [
        {
          "internalType": "address",
          "name": "",
          "type": "address"
        }
      ],
      "stateMutability": "view",
      "type": "function"
    },
    {
      "inputs": [
        {
          "internalType": "address",
          "name": "from",
          "type": "address"
        },
        {
          "internalType": "address",
          "name": "to",
          "type": "address"
        },
        {
          "internalType": "uint256",
          "name": "tokenId",
          "type": "uint256"
        }
      ],
      "name": "safeTransferFrom",
      "outputs": [],
      "stateMutability": "nonpayable",
      "type": "function"
    },
    {
      "inputs": [
        {
          "internalType": "address",
          "name": "from",
          "type": "address"
        },
        {
          "internalType": "address",
          "name": "to",
          "type": "address"
        },
        {
          "internalType": "uint256",
          "name": "tokenId",
          "type": "uint256"
        },
        {
          "internalType": "bytes",
          "name": "data",
          "type": "bytes"
        }
      ],
      "name": "safeTransferFrom",
      "outputs": [],
      "stateMutability": "nonpayable",
      "type": "function"
    },
    {
      "inputs": [
        {
          "internalType": "address",
          "name": "operator",
          "type": "address"
        },
        {
          "internalType": "bool",
          "name": "approved",
          "type": "bool"
        }
      ],
      "name": "setApprovalForAll",
      "outputs": [],
      "stateMutability": "nonpayable",
      "type": "function"
    },
    {
      "inputs": [
        {
          "internalType": "bytes4",
          "name": "interfaceId",
          "type": "bytes4"
        }
      ],
      "name": "supportsInterface",
      "outputs": [
        {
          "internalType": "bool",
          "name": "",
          "type": "bool"
        }
      ],
      "stateMutability": "view",
      "type": "function"
    },
    {
      "inputs": [],
      "name": "symbol",
      "outputs": [
        {
          "internalType": "string",
          "name": "",
          "type": "string"
        }
      ],
      "stateMutability": "view",
      "type": "function"
    },
    {
      "inputs": [
        {
          "internalType": "uint256",
          "name": "index",
          "type": "uint256"
        }
      ],
      "name": "tokenByIndex",
      "outputs": [
        {
          "internalType": "uint256",
          "name": "",
          "type": "uint256"
        }
      ],
      "stateMutability": "view",
      "type": "function"
    },
    {
      "inputs": [
        {
          "internalType": "address",
          "name": "owner",
          "type": "address"
        },
        {
          "internalType": "uint256",
          "name": "index",
          "type": "uint256"
        }
      ],
      "name": "tokenOfOwnerByIndex",
      "outputs": [
        {
          "internalType": "uint256",
          "name": "",
          "type": "uint256"
        }
      ],
      "stateMutability": "view",
      "type": "function"
    },
    {
      "inputs": [
        {
          "internalType": "uint256",
          "name": "tokenId",
          "type": "uint256"
        }
      ],
      "name": "tokenURI",
      "outputs": [
        {
          "internalType": "string",
          "name": "",
          "type": "string"
        }
      ],
      "stateMutability": "view",
      "type": "function"
    },
    {
      "inputs": [],
      "name": "totalSupply",
      "outputs": [
        {
          "internalType": "uint256",
          "name": "",
          "type": "uint256"
        }
      ],
      "stateMutability": "view",
      "type": "function"
    },
    {
      "inputs": [
        {
          "internalType": "address",
          "name": "from",
          "type": "address"
        },
        {
          "internalType": "address",
          "name": "to",
          "type": "address"
        },
        {
          "internalType": "uint256",
          "name": "tokenId",
          "type": "uint256"
        }
      ],
      "name": "transferFrom",
      "outputs": [],
      "stateMutability": "nonpayable",
      "type": "function"
    }
  ],
  "bytecode": "0x60806040523480156200001157600080fd5b5060405162002b0338038062002b0383398181016040528101906200003791906200030b565b8181816000908051906020019062000051929190620000be565b5080600190805190602001906200006a929190620000be565b50505033600660006101000a81548173ffffffffffffffffffffffffffffffffffffffff021916908373ffffffffffffffffffffffffffffffffffffffff16021790555060006007819055505050620003f5565b828054620000cc90620003bf565b90600052602060002090601f016020900481019282620000f057600085556200013c565b82601f106200010b57805160ff19168380011785556200013c565b828001600101855582156200013c579182015b828111156200013b5782518255916020019190600101906200011e565b5b5090506200014b91906200014f565b5090565b5b808211156200016a57600081600090555060010162000150565b5090565b6000604051905090565b600080fd5b600080fd5b600080fd5b600080fd5b6000601f19601f8301169050919050565b7f4e487b7100000000000000000000000000000000000000000000000000000000600052604160045260246000fd5b620001d7826200018c565b810181811067ffffffffffffffff82111715620001f957620001f86200019d565b5b80604052505050565b60006200020e6200016e565b90506200021c8282620001cc565b919050565b600067ffffffffffffffff8211156200023f576200023e6200019d565b5b6200024a826200018c565b9050602081019050919050565b60005b83811015620002775780820151818401526020810190506200025a565b8381111562000287576000848401525b50505050565b6000620002a46200029e8462000221565b62000202565b905082815260208101848484011115620002c357620002c262000187565b5b620002d084828562000257565b509392505050565b600082601f830112620002f057620002ef62000182565b5b8151620003028482602086016200028d565b91505092915050565b6000806040838503121562000325576200032462000178565b5b600083015167ffffffffffffffff8111156200034657620003456200017d565b5b6200035485828601620002d8565b925050602083015167ffffffffffffffff8111156200037857620003776200017d565b5b6200038685828601620002d8565b9150509250929050565b7f4e487b7100000000000000000000000000000000000000000000000000000000600052602260045260246000fd5b60006002820490506001821680620003d857607f821691505b60208210811415620003ef57620003ee62000390565b5b50919050565b6126fe80620004056000396000f3fe608060405234801561001057600080fd5b50600436106101215760003560e01c8063481c6a75116100ad578063a22cb46511610071578063a22cb4651461032e578063b88d4fde1461034a578063c87b56dd14610366578063e985e9c514610396578063f1537686146103c657610121565b8063481c6a75146102625780634f6ccce7146102805780636352211e146102b057806370a08231146102e057806395d89b411461031057610121565b806318160ddd116100f457806318160ddd146101c057806323b872dd146101de5780632f745c59146101fa57806340c10f191461022a57806342842e0e1461024657610121565b806301ffc9a71461012657806306fdde0314610156578063081812fc14610174578063095ea7b3146101a4575b600080fd5b610140600480360381019061013b919061185d565b6103f6565b60405161014d91906118a5565b60405180910390f35b61015e6104d8565b60405161016b9190611959565b60405180910390f35b61018e600480360381019061018991906119b1565b61056a565b60405161019b9190611a1f565b60405180910390f35b6101be60048036038101906101b99190611a66565b6105b0565b005b6101c86106c8565b6040516101d59190611ab5565b60405180910390f35b6101f860048036038101906101f39190611ad0565b6106d2565b005b610214600480360381019061020f9190611a66565b610732565b6040516102219190611ab5565b60405180910390f35b610244600480360381019061023f9190611a66565b61073a565b005b610260600480360381019061025b9190611ad0565b610818565b005b61026a610838565b6040516102779190611a1f565b60405180910390f35b61029a600480360381019061029591906119b1565b61085e565b6040516102a79190611ab5565b60405180910390f35b6102ca60048036038101906102c591906119b1565b61087b565b6040516102d79190611a1f565b60405180910390f35b6102fa60048036038101906102f59190611b23565b61092d565b6040516103079190611ab5565b60405180910390f35b6103186109e5565b6040516103259190611959565b60405180910390f35b61034860048036038101906103439190611b7c565b610a77565b005b610364600480360381019061035f9190611cf1565b610a8d565b005b610380600480360381019061037b91906119b1565b610aef565b60405161038d9190611959565b60405180910390f35b6103b060048036038101906103ab9190611d74565b610b57565b6040516103bd91906118a5565b60405180910390f35b6103e060048036038101906103db9190611b23565b610beb565b6040516103ed9190611ab5565b60405180910390f35b60007f80ac58cd000000000000000000000000000000000000000000000000000000007bffffffffffffffffffffffffffffffffffffffffffffffffffffffff1916827bffffffffffffffffffffffffffffffffffffffffffffffffffffffff191614806104c157507f5b5e139f000000000000000000000000000000000000000000000000000000007bffffffffffffffffffffffffffffffffffffffffffffffffffffffff1916827bffffffffffffffffffffffffffffffffffffffffffffffffffffffff1916145b806104d157506104d082610c34565b5b9050919050565b6060600080546104e790611de3565b80601f016020809104026020016040519081016040528092919081815260200182805461051390611de3565b80156105605780601f1061053557610100808354040283529160200191610560565b820191906000526020600020905b81548152906001019060200180831161054357829003601f168201915b5050505050905090565b600061057582610c9e565b6004600083815260200190815260200160002060009054906101000a900473ffffffffffffffffffffffffffffffffffffffff169050919050565b60006105bb8261087b565b90508073ffffffffffffffffffffffffffffffffffffffff168373ffffffffffffffffffffffffffffffffffffffff16141561062c576040517f08c379a000000000000000000000000000000000000000000000000000000000815260040161062390611e87565b60405180910390fd5b8073ffffffffffffffffffffffffffffffffffffffff1661064b610ce9565b73ffffffffffffffffffffffffffffffffffffffff16148061067a575061067981610674610ce9565b610b57565b5b6106b9576040517f08c379a00000000000000000000000000000000000000000000000000000000081526004016106b090611f19565b60405180910390fd5b6106c38383610cf1565b505050565b6000600754905090565b6106e36106dd610ce9565b82610daa565b610722576040517f08c379a000000000000000000000000000000000000000000000000000000000815260040161071990611fab565b60405180910390fd5b61072d838383610e3f565b505050565b600092915050565b600660009054906101000a900473ffffffffffffffffffffffffffffffffffffffff1673ffffffffffffffffffffffffffffffffffffffff163373ffffffffffffffffffffffffffffffffffffffff161461079457600080fd5b61079e82826110a6565b80600960008473ffffffffffffffffffffffffffffffffffffffff1673ffffffffffffffffffffffffffffffffffffffff1681526020019081526020016000208190555080600860006007548152602001908152602001600020819055506007600081548092919061080f90611ffa565b91905055505050565b61083383838360405180602001604052806000815250610a8d565b505050565b600660009054906101000a900473ffffffffffffffffffffffffffffffffffffffff1681565b600060086000838152602001908152602001600020549050919050565b6000806002600084815260200190815260200160002060009054906101000a900473ffffffffffffffffffffffffffffffffffffffff169050600073ffffffffffffffffffffffffffffffffffffffff168173ffffffffffffffffffffffffffffffffffffffff161415610924576040517f08c379a000000000000000000000000000000000000000000000000000000000815260040161091b9061208f565b60405180910390fd5b80915050919050565b60008073ffffffffffffffffffffffffffffffffffffffff168273ffffffffffffffffffffffffffffffffffffffff16141561099e576040517f08c379a000000000000000000000000000000000000000000000000000000000815260040161099590612121565b60405180910390fd5b600360008373ffffffffffffffffffffffffffffffffffffffff1673ffffffffffffffffffffffffffffffffffffffff168152602001908152602001600020549050919050565b6060600180546109f490611de3565b80601f0160208091040260200160405190810160405280929190818152602001828054610a2090611de3565b8015610a6d5780601f10610a4257610100808354040283529160200191610a6d565b820191906000526020600020905b815481529060010190602001808311610a5057829003601f168201915b5050505050905090565b610a89610a82610ce9565b8383611280565b5050565b610a9e610a98610ce9565b83610daa565b610add576040517f08c379a0000000000000000000000000000000000000000000000000000000008152600401610ad490611fab565b60405180910390fd5b610ae9848484846113ed565b50505050565b6060610afa82610c9e565b6000610b04611449565b90506000815111610b245760405180602001604052806000815250610b4f565b80610b2e84611460565b604051602001610b3f92919061217d565b6040516020818303038152906040525b915050919050565b6000600560008473ffffffffffffffffffffffffffffffffffffffff1673ffffffffffffffffffffffffffffffffffffffff16815260200190815260200160002060008373ffffffffffffffffffffffffffffffffffffffff1673ffffffffffffffffffffffffffffffffffffffff16815260200190815260200160002060009054906101000a900460ff16905092915050565b6000600960008373ffffffffffffffffffffffffffffffffffffffff1673ffffffffffffffffffffffffffffffffffffffff168152602001908152602001600020549050919050565b60007f01ffc9a7000000000000000000000000000000000000000000000000000000007bffffffffffffffffffffffffffffffffffffffffffffffffffffffff1916827bffffffffffffffffffffffffffffffffffffffffffffffffffffffff1916149050919050565b610ca7816115c1565b610ce6576040517f08c379a0000000000000000000000000000000000000000000000000000000008152600401610cdd9061208f565b60405180910390fd5b50565b600033905090565b816004600083815260200190815260200160002060006101000a81548173ffffffffffffffffffffffffffffffffffffffff021916908373ffffffffffffffffffffffffffffffffffffffff160217905550808273ffffffffffffffffffffffffffffffffffffffff16610d648361087b565b73ffffffffffffffffffffffffffffffffffffffff167f8c5be1e5ebec7d5bd14f71427d1e84f3dd0314c0f7b2291e5b200ac8c7c3b92560405160405180910390a45050565b600080610db68361087b565b90508073ffffffffffffffffffffffffffffffffffffffff168473ffffffffffffffffffffffffffffffffffffffff161480610df85750610df78185610b57565b5b80610e3657508373ffffffffffffffffffffffffffffffffffffffff16610e1e8461056a565b73ffffffffffffffffffffffffffffffffffffffff16145b91505092915050565b8273ffffffffffffffffffffffffffffffffffffffff16610e5f8261087b565b73ffffffffffffffffffffffffffffffffffffffff1614610eb5576040517f08c379a0000000000000000000000000000000000000000000000000000000008152600401610eac90612213565b60405180910390fd5b600073ffffffffffffffffffffffffffffffffffffffff168273ffffffffffffffffffffffffffffffffffffffff161415610f25576040517f08c379a0000000000000000000000000000000000000000000000000000000008152600401610f1c906122a5565b60405180910390fd5b610f3083838361162d565b610f3b600082610cf1565b6001600360008573ffffffffffffffffffffffffffffffffffffffff1673ffffffffffffffffffffffffffffffffffffffff1681526020019081526020016000206000828254610f8b91906122c5565b925050819055506001600360008473ffffffffffffffffffffffffffffffffffffffff1673ffffffffffffffffffffffffffffffffffffffff1681526020019081526020016000206000828254610fe291906122f9565b92505081905550816002600083815260200190815260200160002060006101000a81548173ffffffffffffffffffffffffffffffffffffffff021916908373ffffffffffffffffffffffffffffffffffffffff160217905550808273ffffffffffffffffffffffffffffffffffffffff168473ffffffffffffffffffffffffffffffffffffffff167fddf252ad1be2c89b69c2b068fc378daa952ba7f163c4a11628f55a4df523b3ef60405160405180910390a46110a1838383611632565b505050565b600073ffffffffffffffffffffffffffffffffffffffff168273ffffffffffffffffffffffffffffffffffffffff161415611116576040517f08c379a000000000000000000000000000000000000000000000000000000000815260040161110d9061239b565b60405180910390fd5b61111f816115c1565b1561115f576040517f08c379a000000000000000000000000000000000000000000000000000000000815260040161115690612407565b60405180910390fd5b61116b6000838361162d565b6001600360008473ffffffffffffffffffffffffffffffffffffffff1673ffffffffffffffffffffffffffffffffffffffff16815260200190815260200160002060008282546111bb91906122f9565b92505081905550816002600083815260200190815260200160002060006101000a81548173ffffffffffffffffffffffffffffffffffffffff021916908373ffffffffffffffffffffffffffffffffffffffff160217905550808273ffffffffffffffffffffffffffffffffffffffff16600073ffffffffffffffffffffffffffffffffffffffff167fddf252ad1be2c89b69c2b068fc378daa952ba7f163c4a11628f55a4df523b3ef60405160405180910390a461127c60008383611632565b5050565b8173ffffffffffffffffffffffffffffffffffffffff168373ffffffffffffffffffffffffffffffffffffffff1614156112ef576040517f08c379a00000000000000000000000000000000000000000000000000000000081526004016112e690612473565b60405180910390fd5b80600560008573ffffffffffffffffffffffffffffffffffffffff1673ffffffffffffffffffffffffffffffffffffffff16815260200190815260200160002060008473ffffffffffffffffffffffffffffffffffffffff1673ffffffffffffffffffffffffffffffffffffffff16815260200190815260200160002060006101000a81548160ff0219169083151502179055508173ffffffffffffffffffffffffffffffffffffffff168373ffffffffffffffffffffffffffffffffffffffff167f17307eab39ab6107e8899845ad3d59bd9653f200f220920489ca2b5937696c31836040516113e091906118a5565b60405180910390a3505050565b6113f8848484610e3f565b61140484848484611637565b611443576040517f08c379a000000000000000000000000000000000000000000000000000000000815260040161143a90612505565b60405180910390fd5b50505050565b606060405180602001604052806000815250905090565b606060008214156114a8576040518060400160405280600181526020017f300000000000000000000000000000000000000000000000000000000000000081525090506115bc565b600082905060005b600082146114da5780806114c390611ffa565b915050600a826114d39190612554565b91506114b0565b60008167ffffffffffffffff8111156114f6576114f5611bc6565b5b6040519080825280601f01601f1916602001820160405280156115285781602001600182028036833780820191505090505b5090505b600085146115b55760018261154191906122c5565b9150600a856115509190612585565b603061155c91906122f9565b60f81b818381518110611572576115716125b6565b5b60200101907effffffffffffffffffffffffffffffffffffffffffffffffffffffffffffff1916908160001a905350600a856115ae9190612554565b945061152c565b8093505050505b919050565b60008073ffffffffffffffffffffffffffffffffffffffff166002600084815260200190815260200160002060009054906101000a900473ffffffffffffffffffffffffffffffffffffffff1673ffffffffffffffffffffffffffffffffffffffff1614159050919050565b505050565b505050565b60006116588473ffffffffffffffffffffffffffffffffffffffff166117ce565b156117c1578373ffffffffffffffffffffffffffffffffffffffff1663150b7a02611681610ce9565b8786866040518563ffffffff1660e01b81526004016116a3949392919061263a565b602060405180830381600087803b1580156116bd57600080fd5b505af19250505080156116ee57506040513d601f19601f820116820180604052508101906116eb919061269b565b60015b611771573d806000811461171e576040519150601f19603f3d011682016040523d82523d6000602084013e611723565b606091505b50600081511415611769576040517f08c379a000000000000000000000000000000000000000000000000000000000815260040161176090612505565b60405180910390fd5b805181602001fd5b63150b7a0260e01b7bffffffffffffffffffffffffffffffffffffffffffffffffffffffff1916817bffffffffffffffffffffffffffffffffffffffffffffffffffffffff1916149150506117c6565b600190505b949350505050565b6000808273ffffffffffffffffffffffffffffffffffffffff163b119050919050565b6000604051905090565b600080fd5b600080fd5b60007fffffffff0000000000000000000000000000000000000000000000000000000082169050919050565b61183a81611805565b811461184557600080fd5b50565b60008135905061185781611831565b92915050565b600060208284031215611873576118726117fb565b5b600061188184828501611848565b91505092915050565b60008115159050919050565b61189f8161188a565b82525050565b60006020820190506118ba6000830184611896565b92915050565b600081519050919050565b600082825260208201905092915050565b60005b838110156118fa5780820151818401526020810190506118df565b83811115611909576000848401525b50505050565b6000601f19601f8301169050919050565b600061192b826118c0565b61193581856118cb565b93506119458185602086016118dc565b61194e8161190f565b840191505092915050565b600060208201905081810360008301526119738184611920565b905092915050565b6000819050919050565b61198e8161197b565b811461199957600080fd5b50565b6000813590506119ab81611985565b92915050565b6000602082840312156119c7576119c66117fb565b5b60006119d58482850161199c565b91505092915050565b600073ffffffffffffffffffffffffffffffffffffffff82169050919050565b6000611a09826119de565b9050919050565b611a19816119fe565b82525050565b6000602082019050611a346000830184611a10565b92915050565b611a43816119fe565b8114611a4e57600080fd5b50565b600081359050611a6081611a3a565b92915050565b60008060408385031215611a7d57611a7c6117fb565b5b6000611a8b85828601611a51565b9250506020611a9c8582860161199c565b9150509250929050565b611aaf8161197b565b82525050565b6000602082019050611aca6000830184611aa6565b92915050565b600080600060608486031215611ae957611ae86117fb565b5b6000611af786828701611a51565b9350506020611b0886828701611a51565b9250506040611b198682870161199c565b9150509250925092565b600060208284031215611b3957611b386117fb565b5b6000611b4784828501611a51565b91505092915050565b611b598161188a565b8114611b6457600080fd5b50565b600081359050611b7681611b50565b92915050565b60008060408385031215611b9357611b926117fb565b5b6000611ba185828601611a51565b9250506020611bb285828601611b67565b9150509250929050565b600080fd5b600080fd5b7f4e487b7100000000000000000000000000000000000000000000000000000000600052604160045260246000fd5b611bfe8261190f565b810181811067ffffffffffffffff82111715611c1d57611c1c611bc6565b5b80604052505050565b6000611c306117f1565b9050611c3c8282611bf5565b919050565b600067ffffffffffffffff821115611c5c57611c5b611bc6565b5b611c658261190f565b9050602081019050919050565b82818337600083830152505050565b6000611c94611c8f84611c41565b611c26565b905082815260208101848484011115611cb057611caf611bc1565b5b611cbb848285611c72565b509392505050565b600082601f830112611cd857611cd7611bbc565b5b8135611ce8848260208601611c81565b91505092915050565b60008060008060808587031215611d0b57611d0a6117fb565b5b6000611d1987828801611a51565b9450506020611d2a87828801611a51565b9350506040611d3b8782880161199c565b925050606085013567ffffffffffffffff811115611d5c57611d5b611800565b5b611d6887828801611cc3565b91505092959194509250565b60008060408385031215611d8b57611d8a6117fb565b5b6000611d9985828601611a51565b9250506020611daa85828601611a51565b9150509250929050565b7f4e487b7100000000000000000000000000000000000000000000000000000000600052602260045260246000fd5b60006002820490506001821680611dfb57607f821691505b60208210811415611e0f57611e0e611db4565b5b50919050565b7f4552433732313a20617070726f76616c20746f2063757272656e74206f776e6560008201527f7200000000000000000000000000000000000000000000000000000000000000602082015250565b6000611e716021836118cb565b9150611e7c82611e15565b604082019050919050565b60006020820190508181036000830152611ea081611e64565b9050919050565b7f4552433732313a20617070726f76652063616c6c6572206973206e6f7420746f60008201527f6b656e206f776e6572206e6f7220617070726f76656420666f7220616c6c0000602082015250565b6000611f03603e836118cb565b9150611f0e82611ea7565b604082019050919050565b60006020820190508181036000830152611f3281611ef6565b9050919050565b7f4552433732313a2063616c6c6572206973206e6f7420746f6b656e206f776e6560008201527f72206e6f7220617070726f766564000000000000000000000000000000000000602082015250565b6000611f95602e836118cb565b9150611fa082611f39565b604082019050919050565b60006020820190508181036000830152611fc481611f88565b9050919050565b7f4e487b7100000000000000000000000000000000000000000000000000000000600052601160045260246000fd5b60006120058261197b565b91507fffffffffffffffffffffffffffffffffffffffffffffffffffffffffffffffff82141561203857612037611fcb565b5b600182019050919050565b7f4552433732313a20696e76616c696420746f6b656e2049440000000000000000600082015250565b60006120796018836118cb565b915061208482612043565b602082019050919050565b600060208201905081810360008301526120a88161206c565b9050919050565b7f4552433732313a2061646472657373207a65726f206973206e6f74206120766160008201527f6c6964206f776e65720000000000000000000000000000000000000000000000602082015250565b600061210b6029836118cb565b9150612116826120af565b604082019050919050565b6000602082019050818103600083015261213a816120fe565b9050919050565b600081905092915050565b6000612157826118c0565b6121618185612141565b93506121718185602086016118dc565b80840191505092915050565b6000612189828561214c565b9150612195828461214c565b91508190509392505050565b7f4552433732313a207472616e736665722066726f6d20696e636f72726563742060008201527f6f776e6572000000000000000000000000000000000000000000000000000000602082015250565b60006121fd6025836118cb565b9150612208826121a1565b604082019050919050565b6000602082019050818103600083015261222c816121f0565b9050919050565b7f4552433732313a207472616e7366657220746f20746865207a65726f2061646460008201527f7265737300000000000000000000000000000000000000000000000000000000602082015250565b600061228f6024836118cb565b915061229a82612233565b604082019050919050565b600060208201905081810360008301526122be81612282565b9050919050565b60006122d08261197b565b91506122db8361197b565b9250828210156122ee576122ed611fcb565b5b828203905092915050565b60006123048261197b565b915061230f8361197b565b9250827fffffffffffffffffffffffffffffffffffffffffffffffffffffffffffffffff0382111561234457612343611fcb565b5b828201905092915050565b7f4552433732313a206d696e7420746f20746865207a65726f2061646472657373600082015250565b60006123856020836118cb565b91506123908261234f565b602082019050919050565b600060208201905081810360008301526123b481612378565b9050919050565b7f4552433732313a20746f6b656e20616c7265616479206d696e74656400000000600082015250565b60006123f1601c836118cb565b91506123fc826123bb565b602082019050919050565b60006020820190508181036000830152612420816123e4565b9050919050565b7f4552433732313a20617070726f766520746f2063616c6c657200000000000000600082015250565b600061245d6019836118cb565b915061246882612427565b602082019050919050565b6000602082019050818103600083015261248c81612450565b9050919050565b7f4552433732313a207472616e7366657220746f206e6f6e20455243373231526560008201527f63656976657220696d706c656d656e7465720000000000000000000000000000602082015250565b60006124ef6032836118cb565b91506124fa82612493565b604082019050919050565b6000602082019050818103600083015261251e816124e2565b9050919050565b7f4e487b7100000000000000000000000000000000000000000000000000000000600052601260045260246000fd5b600061255f8261197b565b915061256a8361197b565b92508261257a57612579612525565b5b828204905092915050565b60006125908261197b565b915061259b8361197b565b9250826125ab576125aa612525565b5b828206905092915050565b7f4e487b7100000000000000000000000000000000000000000000000000000000600052603260045260246000fd5b600081519050919050565b600082825260208201905092915050565b600061260c826125e5565b61261681856125f0565b93506126268185602086016118dc565b61262f8161190f565b840191505092915050565b600060808201905061264f6000830187611a10565b61265c6020830186611a10565b6126696040830185611aa6565b818103606083015261267b8184612601565b905095945050505050565b60008151905061269581611831565b92915050565b6000602082840312156126b1576126b06117fb565b5b60006126bf84828501612686565b9150509291505056fea2646970667358221220be55a578333da936ab32e22ea740d2621ea73550938f1949bf539a0e7ae1f7a664736f6c63430008090033",
  "linkReferences": {},
  "deployedLinkReferences": {}
}